{
  "_format": "hh-sol-artifact-1",
  "contractName": "LiqFunGameManager",
  "sourceName": "contracts/LiqFunGameManager.sol",
  "abi": [
    {
      "inputs": [
        {
          "internalType": "address",
          "name": "_gameSigner",
          "type": "address"
        },
        {
          "internalType": "address",
          "name": "_router02",
          "type": "address"
        },
        {
          "internalType": "address",
          "name": "_universalRouter",
          "type": "address"
        },
        {
          "internalType": "address",
          "name": "_quoter",
          "type": "address"
        },
        {
          "internalType": "address",
          "name": "_factoryV2",
          "type": "address"
        }
      ],
      "stateMutability": "nonpayable",
      "type": "constructor"
    },
    {
      "inputs": [],
      "name": "GameHasAlreadyBeenCompleted",
      "type": "error"
    },
    {
      "inputs": [],
      "name": "GameHasNotCompletedOrDoesntExist",
      "type": "error"
    },
    {
      "inputs": [],
      "name": "GameIsActive",
      "type": "error"
    },
    {
      "inputs": [],
      "name": "GameIsNotActive",
      "type": "error"
    },
    {
      "inputs": [],
      "name": "InvalidCreationFee",
      "type": "error"
    },
    {
      "inputs": [],
      "name": "NothingToClaim",
      "type": "error"
    },
    {
      "inputs": [
        {
          "internalType": "address",
          "name": "owner",
          "type": "address"
        }
      ],
      "name": "OwnableInvalidOwner",
      "type": "error"
    },
    {
      "inputs": [
        {
          "internalType": "address",
          "name": "account",
          "type": "address"
        }
      ],
      "name": "OwnableUnauthorizedAccount",
      "type": "error"
    },
    {
      "anonymous": false,
      "inputs": [
        {
          "indexed": true,
          "internalType": "address",
          "name": "winner",
          "type": "address"
        },
        {
          "indexed": true,
          "internalType": "address",
          "name": "loser",
          "type": "address"
        },
        {
          "indexed": true,
          "internalType": "bytes32",
          "name": "gameHash",
          "type": "bytes32"
        },
        {
          "indexed": false,
          "internalType": "bool",
          "name": "dnf",
          "type": "bool"
        },
        {
          "indexed": false,
          "internalType": "bool",
          "name": "tie",
          "type": "bool"
        }
      ],
      "name": "GameComplete",
      "type": "event"
    },
    {
      "anonymous": false,
      "inputs": [
        {
          "indexed": true,
          "internalType": "address",
          "name": "team1",
          "type": "address"
        },
        {
          "indexed": true,
          "internalType": "address",
          "name": "team2",
          "type": "address"
        },
        {
          "indexed": true,
          "internalType": "bytes32",
          "name": "gameHash",
          "type": "bytes32"
        }
      ],
      "name": "GameStarted",
      "type": "event"
    },
    {
      "anonymous": false,
      "inputs": [
        {
          "indexed": true,
          "internalType": "address",
          "name": "previousOwner",
          "type": "address"
        },
        {
          "indexed": true,
          "internalType": "address",
          "name": "newOwner",
          "type": "address"
        }
      ],
      "name": "OwnershipTransferred",
      "type": "event"
    },
    {
      "anonymous": false,
      "inputs": [
        {
          "indexed": true,
          "internalType": "address",
          "name": "staker",
          "type": "address"
        },
        {
          "indexed": true,
          "internalType": "bytes32",
          "name": "game",
          "type": "bytes32"
        },
        {
          "indexed": true,
          "internalType": "address",
          "name": "token",
          "type": "address"
        },
        {
          "indexed": false,
          "internalType": "uint256",
          "name": "amount",
          "type": "uint256"
        }
      ],
      "name": "StakeReclaimed",
      "type": "event"
    },
    {
      "anonymous": false,
      "inputs": [
        {
          "indexed": true,
          "internalType": "address",
          "name": "staker",
          "type": "address"
        },
        {
          "indexed": true,
          "internalType": "bytes32",
          "name": "game",
          "type": "bytes32"
        },
        {
          "indexed": true,
          "internalType": "address",
          "name": "token",
          "type": "address"
        },
        {
          "indexed": false,
          "internalType": "uint256",
          "name": "amount",
          "type": "uint256"
        }
      ],
      "name": "StakeSubmitted",
      "type": "event"
    },
    {
      "inputs": [],
      "name": "CREATION_FEE",
      "outputs": [
        {
          "internalType": "uint256",
          "name": "",
          "type": "uint256"
        }
      ],
      "stateMutability": "view",
      "type": "function"
    },
    {
      "inputs": [],
      "name": "LIQUIDATION_FEE",
      "outputs": [
        {
          "internalType": "uint256",
          "name": "",
          "type": "uint256"
        }
      ],
      "stateMutability": "view",
      "type": "function"
    },
    {
      "inputs": [],
      "name": "PERMIT2",
      "outputs": [
        {
          "internalType": "address",
          "name": "",
          "type": "address"
        }
      ],
      "stateMutability": "view",
      "type": "function"
    },
    {
      "inputs": [],
      "name": "WETH",
      "outputs": [
        {
          "internalType": "address",
          "name": "",
          "type": "address"
        }
      ],
      "stateMutability": "view",
      "type": "function"
    },
    {
      "inputs": [
        {
          "internalType": "address",
          "name": "team1",
          "type": "address"
        },
        {
          "internalType": "address",
          "name": "team2",
          "type": "address"
        }
      ],
      "name": "completeGame",
      "outputs": [],
      "stateMutability": "nonpayable",
      "type": "function"
    },
    {
      "inputs": [
        {
          "internalType": "address",
          "name": "team1",
          "type": "address"
        },
        {
          "internalType": "address",
          "name": "team2",
          "type": "address"
        },
        {
          "internalType": "uint8",
          "name": "token1PoolVersion",
          "type": "uint8"
        },
        {
          "internalType": "uint8",
          "name": "token2PoolVersion",
          "type": "uint8"
        },
        {
          "internalType": "uint24",
          "name": "token1PoolFee",
          "type": "uint24"
        },
        {
          "internalType": "uint24",
          "name": "token2PoolFee",
          "type": "uint24"
        },
        {
          "internalType": "uint256",
          "name": "startBlock",
          "type": "uint256"
        }
      ],
      "name": "createGame",
      "outputs": [],
      "stateMutability": "payable",
      "type": "function"
    },
    {
      "inputs": [],
      "name": "factoryV2",
      "outputs": [
        {
          "internalType": "contract IUniswapV2Factory",
          "name": "",
          "type": "address"
        }
      ],
      "stateMutability": "view",
      "type": "function"
    },
    {
      "inputs": [
        {
          "internalType": "address",
          "name": "team1",
          "type": "address"
        },
        {
          "internalType": "address",
          "name": "team2",
          "type": "address"
        }
      ],
      "name": "games",
      "outputs": [
        {
          "internalType": "bytes32",
          "name": "gameHash",
          "type": "bytes32"
        },
        {
          "internalType": "uint256",
          "name": "startBlock",
          "type": "uint256"
        },
        {
          "internalType": "uint256",
          "name": "endBlock",
          "type": "uint256"
        },
        {
          "internalType": "uint256",
          "name": "token1Amount",
          "type": "uint256"
        },
        {
          "internalType": "uint256",
          "name": "token2Amount",
          "type": "uint256"
        },
        {
          "internalType": "uint8",
          "name": "token1PoolVersion",
          "type": "uint8"
        },
        {
          "internalType": "uint8",
          "name": "token2PoolVersion",
          "type": "uint8"
        },
        {
          "internalType": "uint24",
          "name": "token1PoolFee",
          "type": "uint24"
        },
        {
          "internalType": "uint24",
          "name": "token2PoolFee",
          "type": "uint24"
        },
        {
          "internalType": "bool",
          "name": "hasCompleted",
          "type": "bool"
        }
      ],
      "stateMutability": "view",
      "type": "function"
    },
    {
      "inputs": [],
      "name": "owner",
      "outputs": [
        {
          "internalType": "address",
          "name": "",
          "type": "address"
        }
      ],
      "stateMutability": "view",
      "type": "function"
    },
    {
      "inputs": [],
      "name": "permit2",
      "outputs": [
        {
          "internalType": "contract IPermit2",
          "name": "",
          "type": "address"
        }
      ],
      "stateMutability": "view",
      "type": "function"
    },
    {
      "inputs": [],
      "name": "quoter",
      "outputs": [
        {
          "internalType": "contract IQuoter",
          "name": "",
          "type": "address"
        }
      ],
      "stateMutability": "view",
      "type": "function"
    },
    {
      "inputs": [
        {
          "internalType": "bytes32",
          "name": "gameHash",
          "type": "bytes32"
        }
      ],
      "name": "reclaimStake",
      "outputs": [],
      "stateMutability": "nonpayable",
      "type": "function"
    },
    {
      "inputs": [],
      "name": "recoverETH",
      "outputs": [],
      "stateMutability": "nonpayable",
      "type": "function"
    },
    {
      "inputs": [
        {
          "internalType": "address",
          "name": "token",
          "type": "address"
        }
      ],
      "name": "recoverTokens",
      "outputs": [],
      "stateMutability": "nonpayable",
      "type": "function"
    },
    {
      "inputs": [],
      "name": "renounceOwnership",
      "outputs": [],
      "stateMutability": "nonpayable",
      "type": "function"
    },
    {
      "inputs": [
        {
          "internalType": "bytes32",
          "name": "gameHash",
          "type": "bytes32"
        }
      ],
      "name": "results",
      "outputs": [
        {
          "internalType": "address",
          "name": "winningTeam",
          "type": "address"
        },
        {
          "internalType": "uint256",
          "name": "endBlock",
          "type": "uint256"
        },
        {
          "internalType": "uint256",
          "name": "winningTokenAmount",
          "type": "uint256"
        },
        {
          "internalType": "uint256",
          "name": "newTokenAmount",
          "type": "uint256"
        },
        {
          "internalType": "bool",
          "name": "dnf",
          "type": "bool"
        },
        {
          "internalType": "bool",
          "name": "tie",
          "type": "bool"
        },
        {
          "internalType": "address",
          "name": "losingTeam",
          "type": "address"
        },
        {
          "internalType": "uint256",
          "name": "losingTokenAmount",
          "type": "uint256"
        }
      ],
      "stateMutability": "view",
      "type": "function"
    },
    {
      "inputs": [],
      "name": "router",
      "outputs": [
        {
          "internalType": "contract ISwapRouter02",
          "name": "",
          "type": "address"
        }
      ],
      "stateMutability": "view",
      "type": "function"
    },
    {
      "inputs": [
        {
          "internalType": "uint256",
          "name": "_fee",
          "type": "uint256"
        }
      ],
      "name": "setCreationFee",
      "outputs": [],
      "stateMutability": "nonpayable",
      "type": "function"
    },
    {
      "inputs": [
        {
          "internalType": "address",
          "name": "_gameSigner",
          "type": "address"
        }
      ],
      "name": "setGameSigner",
      "outputs": [],
      "stateMutability": "nonpayable",
      "type": "function"
    },
    {
      "inputs": [
        {
          "internalType": "uint256",
          "name": "_fee",
          "type": "uint256"
        }
      ],
      "name": "setLiquidationFee",
      "outputs": [],
      "stateMutability": "nonpayable",
      "type": "function"
    },
    {
      "inputs": [
        {
          "internalType": "address",
          "name": "team1",
          "type": "address"
        },
        {
          "internalType": "address",
          "name": "team2",
          "type": "address"
        },
        {
          "internalType": "uint256",
          "name": "tokenAmount",
          "type": "uint256"
        },
        {
          "internalType": "address",
          "name": "token",
          "type": "address"
        }
      ],
      "name": "stakeInGame",
      "outputs": [],
      "stateMutability": "nonpayable",
      "type": "function"
    },
    {
      "inputs": [
        {
          "internalType": "address",
          "name": "staker",
          "type": "address"
        },
        {
          "internalType": "bytes32",
          "name": "gameHash",
          "type": "bytes32"
        },
        {
          "internalType": "address",
          "name": "team",
          "type": "address"
        }
      ],
      "name": "stakes",
      "outputs": [
        {
          "internalType": "uint256",
          "name": "amount",
          "type": "uint256"
        }
      ],
      "stateMutability": "view",
      "type": "function"
    },
    {
      "inputs": [
        {
          "internalType": "address",
          "name": "newOwner",
          "type": "address"
        }
      ],
      "name": "transferOwnership",
      "outputs": [],
      "stateMutability": "nonpayable",
      "type": "function"
    },
    {
      "inputs": [],
      "name": "universalRouter",
      "outputs": [
        {
          "internalType": "contract IUniversalRouter",
          "name": "",
          "type": "address"
        }
      ],
      "stateMutability": "view",
      "type": "function"
    },
    {
      "inputs": [],
      "name": "weth",
      "outputs": [
        {
          "internalType": "contract IWETH",
          "name": "",
          "type": "address"
        }
      ],
      "stateMutability": "view",
      "type": "function"
    }
  ],
  "bytecode": "0x6080604052346200003457620000226200001862000117565b93929092620001d9565b604051613999620003c1823961399990f35b600080fd5b634e487b7160e01b600052604160045260246000fd5b90601f01601f191681019081106001600160401b038211176200007157604052565b62000039565b906200008e6200008660405190565b92836200004f565b565b6001600160a01b031690565b90565b6001600160a01b038116036200003457565b905051906200008e826200009f565b919060a0838203126200003457620000d98184620000b1565b92620000e98260208301620000b1565b926200009c620000fd8460408501620000b1565b9360806200010f8260608701620000b1565b9401620000b1565b6200013a62003d5a803803806200012e8162000077565b928339810190620000c0565b9091929394565b90600019905b9181191691161790565b6200009c6200009c6200009c9290565b90620001756200009c6200017d9262000151565b825462000141565b9055565b906001600160a01b039062000147565b6200009c9062000090906001600160a01b031682565b6200009c9062000191565b6200009c90620001a7565b90620001d16200009c6200017d92620001b2565b825462000181565b92620001ec926200008e95923362000244565b620001fa6005600b62000161565b6200020e6611c37937e08000600c62000161565b600a620001bd565b620000906200009c6200009c9290565b6200009c9062000216565b6001600160a01b03909116815260200190565b9391620002529391620002ae565b6200025e600062000226565b6001600160a01b0381166001600160a01b038316146200028457506200008e9062000366565b620002aa906200029360405190565b631e4fbdf760e01b81529182916004830162000231565b0390fd5b906200008e9392916200033f62000347936200031c620003146200008e9795620002fe6200030c620002fe97620002fe62000304620002fe73420000000000000000000000000000000000000690565b620001b2565b6005620001bd565b6000620001bd565b6001620001bd565b620002fe620003376e22d473030f116ddee9f6b43ac78ba382565b6003620001bd565b6002620001bd565b6004620001bd565b6200009c9062000090565b6200009c90546200034f565b6200038e620003876200037a60066200035a565b620002fe846006620001bd565b91620001b2565b907f8be0079c531659141344cd1fd0a4f28419497f9722a3daafe3b4186f6b6457e0620003ba60405190565b600090a356fe6080604052600436101561001257600080fd5b60003560e01c80630614117a146101a257806312261ee71461019d578063152c82971461019857806316114acd14610193578063332ccba91461018e57806335a9e4df146101895780633fc8cef31461018457806349a2104d1461017f5780634c6b25b11461017a5780635f6d73bd1461017557806368e0d4e1146101705780636afdd8501461016b578063715018a6146101665780638da5cb5b14610161578063ad5c46481461015c578063b182733014610157578063b7d8622514610152578063b936c7831461014d578063c6bbd5a714610148578063ef95f73314610143578063f0edc7b31461013e578063f2fde38b14610139578063f6c4c1f214610134578063f887ea401461012f5763fef0bec8036101a7576109b4565b610999565b610976565b61095e565b610942565b6108f1565b61088b565b610866565b61084e565b610833565b6107fa565b6107df565b6107c7565b610797565b61076c565b610746565b61067b565b61055b565b61051e565b6104f7565b6104d3565b610494565b610445565b61024e565b6101b7565b600080fd5b60009103126101a757565b346101a7576101c73660046101ac565b6101cf610b01565b604051005b0390f35b6101ed916008021c5b6001600160a01b031690565b90565b906101ed91546101d8565b6101ed600060036101f0565b6101e16101ed6101ed926001600160a01b031690565b6101ed90610207565b6101ed9061021d565b61023890610226565b9052565b60208101929161024c919061022f565b565b346101a75761025e3660046101ac565b6101d46102696101fb565b6040519182918261023c565b61027e816101e1565b036101a757565b9050359061024c82610275565b91906040838203126101a7576101ed9060206102ae8286610285565b9401610285565b906102bf90610226565b600052602052604060002090565b6101ed9081565b6101ed90546102cd565b6101ed905b60ff1690565b6101ed90546102de565b6101ed9060081c6102e3565b6101ed90546102f3565b6101ed9060101c5b62ffffff1690565b6101ed9054610309565b6101ed9060281c610311565b6101ed9054610323565b6101ed9060401c6102e3565b6101ed9054610339565b9061035e6103639260076102b5565b6102b5565b9061036d826102d4565b9161037a600182016102d4565b91610387600283016102d4565b91610394600382016102d4565b916103a1600483016102d4565b916103ae600582016102e9565b916103bb600583016102ff565b916103c860058201610319565b916101ed60056103d981850161032f565b9301610345565b979593919a9998969492909a61014089019b60008a016103fe919052565b602089015260408801526060870152608086015260ff1660a085015260ff1660c084015262ffffff1660e083015262ffffff166101008201526101200161024c9115159052565b346101a7576101d461046161045b366004610292565b9061034f565b966104779a989a96919695929594939460405190565b9a8b9a8b6103e0565b906020828203126101a7576101ed91610285565b346101a7576101cf6104a7366004610480565b610c8f565b8061027e565b9050359061024c826104ac565b906020828203126101a7576101ed916104b2565b346101a7576101cf6104e63660046104bf565b610e0f565b6101ed600060016101f0565b346101a7576105073660046101ac565b6101d46102696104eb565b6101ed600060056101f0565b346101a75761052e3660046101ac565b6101d4610269610512565b6101ed916008021c81565b906101ed9154610539565b6101ed6000600c610544565b346101a75761056b3660046101ac565b6101d461057661054f565b6040515b9182918290815260200190565b906102bf565b6101ed906101e1565b6101ed905461058d565b6101ed9060101c6101e1565b6101ed90546105a0565b6105c1906009610587565b906105cb82610596565b916105d8600182016102d4565b916105e5600283016102d4565b916105f2600382016102d4565b916105ff600483016102e9565b9161060c600482016102ff565b916101ed600561061e600485016105ac565b93016102d4565b610238906101e1565b959391989796949290986101008701996000880161064b91610625565b60208701526040860152606085015215156080840152151560a083015260c0820161067591610625565b60e00152565b346101a7576101d46106966106913660046104bf565b6105b6565b946106a998969894919493929360405190565b9889988961062e565b60ff811661027e565b9050359061024c826106b2565b62ffffff811661027e565b9050359061024c826106c8565b60e0818303126101a7576106f48282610285565b926107028360208401610285565b9261071081604085016106bb565b9261071e82606083016106bb565b926101ed61072f84608085016106d3565b9360c061073f8260a087016106d3565b94016104b2565b6101cf6107543660046106e0565b95949094939193611436565b6101ed600060046101f0565b346101a75761077c3660046101ac565b6101d4610269610760565b60208101929161024c9190610625565b346101a7576107a73660046101ac565b6101d46e22d473030f116ddee9f6b43ac78ba35b60405191829182610787565b346101a7576107d73660046101ac565b6101cf61171d565b346101a7576107ef3660046101ac565b6101d46107bb611725565b346101a75761080a3660046101ac565b6101d47342000000000000000000000000000000000000066107bb565b6101ed6000600b610544565b346101a7576108433660046101ac565b6101d4610576610827565b346101a7576101cf6108613660046104bf565b611746565b346101a7576101cf610879366004610292565b9061174f565b6101ed600060026101f0565b346101a75761089b3660046101ac565b6101d461026961087f565b90916060828403126101a7576101ed6108bf8484610285565b9360406102ae82602087016104b2565b6101ed9261035e6000936108e76108ec9460086102b5565b610587565b610544565b346101a7576101d46105766109073660046108a6565b916108cf565b6080818303126101a7576109218282610285565b926101ed6109328460208501610285565b9360606102ae82604087016104b2565b346101a7576101cf61095536600461090d565b929190916118d1565b346101a7576101cf610971366004610480565b611b85565b346101a7576101cf610989366004610480565b611bd0565b6101ed6000806101f0565b346101a7576109a93660046101ac565b6101d461026961098e565b346101a7576101cf6109c73660046104bf565b611bf0565b6109d4611bf9565b61024c610ad4565b0190565b634e487b7160e01b600052604160045260246000fd5b90601f01601f1916810190811067ffffffffffffffff821117610a1857604052565b6109e0565b9061024c610a2a60405190565b92836109f6565b67ffffffffffffffff8111610a1857602090601f01601f19160190565b90610a60610a5b83610a31565b610a1d565b918252565b3d15610a7f57610a743d610a4e565b903d6000602084013e565b606090565b15610a8b57565b60405162461bcd60e51b815260206004820152601060248201527f5472616e73666572206661696c65642e000000000000000000000000000000006044820152606490fd5b0390fd5b61024c600080610ae330610226565b31610aed60405190565b600091335af1610afb610a65565b50610a84565b61024c6109cc565b61024c90610b15611bf9565b610b8f565b9050519061024c826104ac565b906020828203126101a7576101ed91610b1a565b6040513d6000823e3d90fd5b80151561027e565b9050519061024c82610b47565b906020828203126101a7576101ed91610b4f565b91602061024c929493610b8b60408201966000830190610625565b0152565b610b9b610ba091610226565b610226565b610be46020610bae30610226565b6040519283918291907f70a08231000000000000000000000000000000000000000000000000000000005b835260048301610787565b0381855afa908115610c5d57600092602092610c21928591610c62575b50604051948593849283919063a9059cbb60e01b83523360048401610b70565b03925af18015610c5d57610c325750565b610c539060203d602011610c56575b610c4b81836109f6565b810190610b5c565b50565b503d610c41565b610b3b565b610c829150843d8611610c88575b610c7a81836109f6565b810190610b27565b38610c01565b503d610c70565b61024c90610b09565b90610238906101e1565b6101ed610100610a1d565b9061024c610d616005610cbe610ca2565b94610cd1610ccb82610596565b87610c98565b610ce7610ce0600183016102d4565b6020880152565b610cfd610cf6600283016102d4565b6040880152565b610d13610d0c600383016102d4565b6060880152565b610d2b610d22600483016102e9565b15156080880152565b610d43610d3a600483016102ff565b151560a0880152565b610d5b610d52600483016105ac565b60c08801610c98565b016102d4565b60e0840152565b6101ed90610cad565b6101ed90516101e1565b6101e16101ed6101ed9290565b6101ed90610d7b565b6101ed6101ed6101ed9290565b634e487b7160e01b600052601160045260246000fd5b91908201809211610dc157565b610d9e565b907fffffffffffffffffffffffffffffffffffffffffffffffffffffffffffffffff905b9181191691161790565b90610e046101ed610e0b92610d91565b8254610dc6565b9055565b610e22610e1d826009610587565b610d68565b90610e2c82610d71565b91600092610e4a610e44610e3f86610d88565b6101e1565b916101e1565b146110fe57600890610e60836108e733856102b5565b610e7e610e7986840192610e7384610d71565b906102b5565b6102d4565b610e8786610d91565b8111610fe3575b5050608081015115158015610fd6575b610ea9575b50505050565b610ecb610e7960c0610ebf866108e733886102b5565b930192610e7384610d71565b93610ed581610d91565b8511610ee2575b50610ea3565b610ef1610b9b610b9b84610d71565b926020610efd60405190565b94859063a9059cbb60e01b8252818581610f1b8c3360048401610b70565b03925af1938415610c5d57610f51866108e7610f4986610f5a95610f649a610f5f9950610fb9575b50610d91565b9433906102b5565b610e7385610d71565b610df4565b610d71565b907f7521b41fd87bbba2e8adc235ce9a586217c275f3daea9f5a08b3b9d26c801c48610fac610fa2610f9c610f9833610226565b9490565b94610226565b9461057a60405190565b0390a43880808080610edc565b610fd19060203d602011610c5657610c4b81836109f6565b610f43565b5060a08101511515610e9e565b61100d90600090610ffe610ffa6080870151151590565b1590565b806110e8575b6110d657610db4565b9061101d610b9b610b9b83610d71565b90602061102960405190565b92839063a9059cbb60e01b8252818a81611047893360048401610b70565b03925af1918215610c5d57611079926110b9575b50610f5f61106888610d91565b610f5a610f51896108e7338b6102b5565b61108233610226565b7f7521b41fd87bbba2e8adc235ce9a586217c275f3daea9f5a08b3b9d26c801c486110af610fa288610f9c565b0390a43880610e8e565b6110d19060203d602011610c5657610c4b81836109f6565b61105b565b90506110e28482611cfd565b90610db4565b506110f9610ffa60a0870151151590565b611004565b6040517fb3a96cfc000000000000000000000000000000000000000000000000000000008152600490fd5b6101ed610140610a1d565b9061024c6112046005611145611129565b94611156611152826102d4565b8752565b611165610ce0600183016102d4565b611174610cf6600283016102d4565b611183610d0c600383016102d4565b611199611192600483016102d4565b6080880152565b6111b16111a78383016102e9565b60ff1660a0880152565b6111c96111bf8383016102ff565b60ff1660c0880152565b6111e36111d7838301610319565b62ffffff1660e0880152565b6111fe6111f183830161032f565b62ffffff16610100880152565b01610345565b1515610120840152565b6101ed90611134565b611223610238916101e1565b60601b90565b6020939261124960148361124182956109dc97611217565b018092611217565b01918252565b90610e046101ed610e0b9290565b9060ff90610dea565b6102e36101ed6101ed9260ff1690565b906112866101ed610e0b92611266565b825461125d565b9061ff009060081b610dea565b906112aa6101ed610e0b92611266565b825461128d565b9064ffffff00009060101b610dea565b6103116101ed6101ed9262ffffff1690565b906112e36101ed610e0b926112c1565b82546112b1565b9067ffffff00000000009060281b610dea565b9061130d6101ed610e0b926112c1565b82546112ea565b9068ff00000000000000009060401b610dea565b906113386101ed610e0b92151590565b8254611314565b90611426610120600561024c9461136061135a600087015190565b8261124f565b61137761136e602087015190565b60018301610df4565b61138e611385604087015190565b60028301610df4565b6113a561139c606087015190565b60038301610df4565b6113bc6113b3608087015190565b60048301610df4565b01926113d56113cf60a083015160ff1690565b85611276565b6113ec6113e660c083015160ff1690565b8561129a565b6114056113ff60e083015162ffffff1690565b856112d3565b61141f61141961010083015162ffffff1690565b856112fd565b0151151590565b90611328565b9061024c9161133f565b929094939195611445866101e1565b61144e856101e1565b10156116fa5783955b611460876101e1565b611469866101e1565b036116f257965b6007936114896114848a61035e8b896102b5565b61120e565b936020850197611497895190565b986000996114ab6114a78c610d91565b9190565b1415806116e5575b806116ce575b6116a3578b988b978b6114d96114a76114d36114f2965190565b92610d91565b1415908161168e575b81611680575b50611676576101e1565b6114fb876101e1565b1491821561166f57845b60ff811660ff8716036116675750915b1561166057825b62ffffff811662ffffff8516036116585750925b6040518060208101611544888c8b84611229565b90810382520361155490826109f6565b805190602001209461156660b4610d91565b6115709082610db4565b90611579611129565b96611584908c890152565b6020870152604086015261159789610d91565b6115a2816060880152565b608086015260ff1660a085015260ff1660c084015262ffffff1660e083015262ffffff16610100820152841515610120820152836115e083856102b5565b906115ea916102b5565b906115f49161142c565b6115fd916102b5565b90611607916102b5565b01611611906102d4565b9061161b90610226565b9161162590610226565b909161163060405190565b7fcaae1144bff91d59a9ac363d9fc91a3f9afcbac47706cb7413e5d1e42169b05690600090a4565b905092611530565b809261151c565b905091611515565b8094611505565b610e3f8a89611ea2565b6101200151159050386114e8565b905061169b604082015190565b4311906114e2565b6040517f2f314085000000000000000000000000000000000000000000000000000000008152600490fd5b506116e0610ffa610120890151151590565b6114b9565b50604087015143106114b3565b508396611470565b85611457565b611708611bf9565b61024c61024c6117186000610d88565b612437565b61024c611700565b6101ed6006610596565b61024c9061173b611bf9565b61024c90600c610df4565b61024c9061172f565b90611759816101e1565b611762836101e1565b10156118a057815b611773836101e1565b61177c826101e1565b0361189957505b6117956101ed8261035e8560076102b5565b600181016117a2816102d4565b6117af6114a76000610d91565b1480611879575b61184e576117c3906102d4565b6117d06114a76000610d91565b118061183a575b80611825575b6116a35760056117ed9101610345565b6117fa5761024c91611ea2565b6040517f4f50b0e1000000000000000000000000000000000000000000000000000000008152600490fd5b50611835610ffa60058301610345565b6117dd565b50611847600282016102d4565b43106117d7565b6040517fa5e06178000000000000000000000000000000000000000000000000000000008152600490fd5b50611886600283016102d4565b6118936114a76000610d91565b146117b6565b9050611783565b809161176a565b604090610b8b61024c94969593966118c760608401986000850190610625565b6020830190610625565b909291926118de816101e1565b6118e7836101e1565b1015611b0b57815b6118f8836101e1565b611901826101e1565b03611b0457505b61191a6101ed8261035e8560076102b5565b91611927600184016102d4565b6119346114a76000610d91565b148015611af0575b8015611ade575b61184e5761198e9060208661195a610b9b88610226565b61196330610226565b600061196e60405190565b8097819582946119826323b872dd60e01b90565b845233600485016118a7565b03925af1918215610c5d576119a892611ac1575b506101e1565b6119b1846101e1565b03611a485750806119da6003611a1093016119d4866119cf836102d4565b610db4565b90610df4565b610e79611a038461035e60006119f13360086102b5565b9501946119fd866102d4565b90610587565b6119d4866119cf836102d4565b7f05bb41883a6fff90eff4e984cc1f4cdc29bcfbb49fbf510dc6d13ba1c920be8b611a43610fa2610f9c610f9833610226565b0390a4565b611a51906101e1565b611a5a836101e1565b03611a7c5780611a776004611a1093016119d4866119cf836102d4565b6119da565b60405162461bcd60e51b815260206004820152600d60248201527f496e76616c696420746f6b656e000000000000000000000000000000000000006044820152606490fd5b611ad99060203d602011610c5657610c4b81836109f6565b6119a2565b50611aeb60058401610345565b611943565b50611afd600284016102d4565b431161193c565b9050611908565b80916118ef565b61024c90611b1e611bf9565b611b286000610d88565b611b31816101e1565b611b3a836101e1565b14611b49575061024c90612437565b610ad090611b5660405190565b9182917f1e4fbdf700000000000000000000000000000000000000000000000000000000835260048301610787565b61024c90611b12565b61024c90611b9a611bf9565b611bc5565b906001600160a01b0390610dea565b90611bbe6101ed610e0b92610226565b8254611b9f565b61024c90600a611bae565b61024c90611b8e565b61024c90611be5611bf9565b61024c90600b610df4565b61024c90611bd9565b611c01611725565b3390611c0f610e44836101e1565b03611c175750565b610ad090611c2460405190565b9182917f118cdaa700000000000000000000000000000000000000000000000000000000835260048301610787565b15611c5a57565b60405162461bcd60e51b815260206004820152602e60248201527f57696e6e696e6720746f6b656e20616d6f756e74206d7573742062652067726560448201527f61746572207468616e207a65726f0000000000000000000000000000000000006064820152608490fd5b81810292918115918404141715610dc157565b634e487b7160e01b600052601260045260246000fd5b8115611cf8570490565b611cd8565b611d5e611d6a6101ed93611d0f600090565b50611d536060611d6460408401611d3a611d27825190565b611d346114a76000610d91565b11611c53565b611d5e611d59670de0b6b3a764000099611d538b610d91565b90611cc5565b915190565b90611cee565b92015190565b91610d91565b6102e36101ed6101ed9290565b906112866101ed610e0b92151590565b906112aa6101ed610e0b92151590565b9075ffffffffffffffffffffffffffffffffffffffff00009060101b610dea565b90611dce6101ed610e0b92610226565b8254611d9d565b6005611e8460e061024c94611df5611def60008301610d71565b86611bae565b611e0c611e03602083015190565b60018701610df4565b611e23611e1a604083015190565b60028701610df4565b611e3a611e31606083015190565b60038701610df4565b611e7f60048601611e57611e516080850151151590565b82611d7d565b611e6d611e6760a0850151151590565b82611d8d565b611e7960c08401610d71565b90611dbe565b015190565b9101610df4565b9061024c91611dd5565b6103116101ed6101ed9290565b90611eac816101e1565b611eb5836101e1565b101561243057815b611ec6836101e1565b611ecf826101e1565b036124285750905b611ee96101ed8361035e8460076102b5565b916000926003810184611efb826102d4565b95600096611f0b6114a789610d91565b116123ea575b6004840191611f1f836102d4565b611f2b6114a78a610d91565b11612396575b8788918993611f3f8b610d91565b81118080612385575b8061237c575b1561230b57505050506001915b818215612304575b6121d2575050610f9c6121286120fc610e796001600589612122610f5a8f8f9c8f9c7f99dc767cf9079637556fa4c152dcaf6b25bbf98c744029720eaf88154130855e9f611a439f9361212e9f610f989f906120ef61210d946120e8612116996120d061210896806000146121cc5782965b81156121c25761209190935b8d83156121b35750611ff28d6102d4565b965b611ffd826101e1565b6120068b6101e1565b036121a45761203561201a600583016102e9565b61202e6120276002611d70565b9160ff1690565b14926101e1565b61203e876101e1565b0361218257612078612052600583016102e9565b61205f6120276002611d70565b145b8d81156121705761207190611e95565b8a896128d2565b90821561215e57506120898c611e95565b905b8a61293e565b901561214d576120c96120a38d6102d4565b6120b76120ae610ca2565b998c8b01610c98565b6120c24360208b0152565b6040890152565b6060870152565b8615156080860181905260a086015260c08501610c98565b60e0830152565b612103838b019e8f6102d4565b6009610587565b611e8b565b610d91565b93848093610df4565b61138581868501610df4565b01611328565b96610226565b9461213860405190565b90151580825260208201529081906040820190565b6120c96121598c6102d4565b6120a3565b600561216a9101610319565b9061208b565b5061217d6005840161032f565b612071565b612078612191600583016102ff565b61219e6120276002611d70565b14612061565b61203561201a600583016102ff565b6121bc906102d4565b96611ff4565b5061209183611fe1565b86611fd5565b9492909791506121e1846102d4565b936121eb826102d4565b906121f4610ca2565b956122018a868901610c98565b61220c436020890152565b604087015261221a84610d91565b809481938260608a019061222b9152565b89151560808a01528c151560a08a01526122488b60c08b01610c98565b60e0890152860196612259886102d4565b612264906009610587565b9061226e91611e8b565b61227791610df4565b61228091610df4565b61228d8160018401610df4565b61229a9060028301610df4565b60050160016122a891611328565b6122b1906102d4565b926122bb90610226565b916122c590610226565b92936122d060405190565b9115158252151560208201527f99dc767cf9079637556fa4c152dcaf6b25bbf98c744029720eaf88154130855e90604090a4565b5080611f63565b9294928061236b575b80612362575b1561232a57506001925050611f5b565b6123366114a78c610d91565b1490811561234d575b5015611f5b57506001611f5b565b905061235b6114a78b610d91565b143861233f565b5081811461231a565b506123758b610d91565b8211612314565b50828211611f4e565b5061238f8c610d91565b8311611f48565b50600584016123a4816102ff565b6123b16120276002611d70565b036123ce57506123c96123c3836102d4565b86612707565b611f31565b6123da6123c99161032f565b6123e3846102d4565b908761256f565b50600583016123f8816102e9565b6124056120276002611d70565b0361241c57506124176123c3836102d4565b611f11565b6123da61241791610319565b905090611ed7565b8091611ebd565b6124586124526124476006610596565b610b9b846006611bae565b91610226565b907f8be0079c531659141344cd1fd0a4f28419497f9722a3daafe3b4186f6b6457e061248360405190565b600090a3565b6101ed60a0610a1d565b6001600160a01b03811661027e565b9050519061024c82612493565b63ffffffff811661027e565b9050519061024c826124af565b6080818303126101a7576124dc8282610b1a565b926101ed6124ed84602085016124a2565b9360606124fd82604087016124bb565b9401610b1a565b9060808061024c9361251e60008201516000860190610625565b61253060208201516020860190610625565b61253f60408201516040860152565b60608181015162ffffff16908501525b01516001600160a01b0316910152565b60a08101929161024c9190612504565b6080906126309261257e600090565b506125df61258f610b9b6002610596565b916125d3734200000000000000000000000000000000000006976125cc6000996125c36125ba612489565b988c8a01610c98565b60208801610c98565b6040860152565b62ffffff166060840152565b6125fa6125eb86610d7b565b6001600160a01b031683850152565b604051938492839182917fc6a5026a0000000000000000000000000000000000000000000000000000000083526004830161255f565b03915afa8015610c5d57612642575090565b612664915060803d60801161266a575b61265c81836109f6565b8101906124c8565b50505090565b503d612652565b9050519061024c82610275565b906020828203126101a7576101ed91612671565b91602061024c9294936126ad60408201966000830190610625565b0190610625565b6dffffffffffffffffffffffffffff811661027e565b9050519061024c826126b4565b90916060828403126101a7576101ed6126f084846126ca565b93604061270082602087016126ca565b94016124bb565b9061276660208361271b610b9b6004610596565b604051938492839182917342000000000000000000000000000000000000067fe6a4390500000000000000000000000000000000000000000000000000000000845260048401612692565b03915afa908115610c5d5761278791610b9b916000916128a6575b50610226565b9161279160405190565b7f0902f1ac000000000000000000000000000000000000000000000000000000008152606081600481875afa918215610c5d576000918293612872575b5060206127da60405190565b7f0dfe168100000000000000000000000000000000000000000000000000000000815295869060049082905afa908115610c5d576101ed95600092612839575b50610e44612827916101e1565b03612833579091612acb565b91612acb565b612827919250612863610e449160203d60201161286b575b61285b81836109f6565b81019061267e565b92915061281a565b503d612851565b909250612897915060603d60601161289f575b61288f81836109f6565b8101906126d7565b9290926127ce565b503d612885565b6128bf915060203d60201161286b5761285b81836109f6565b38612781565b91908203918211610dc157565b612919926101ed946128e2600090565b50156129235750816128f76128fd9383612707565b91613154565b611d5361290a600b6102d4565b6129146064610d91565b6128c5565b611d5e6064610d91565b908261293361293994848461256f565b91612c04565b6128fd565b919092612949600090565b501561296457508161295e6101ed9383613651565b916136b8565b90826129746101ed94848461256f565b916134ad565b1561298157565b60405162461bcd60e51b815260206004820152602b60248201527f556e697377617056324c6962726172793a20494e53554646494349454e545f4960448201527f4e5055545f414d4f554e540000000000000000000000000000000000000000006064820152608490fd5b6129f96101ed6101ed9290565b6dffffffffffffffffffffffffffff1690565b15612a1357565b60405162461bcd60e51b815260206004820152602860248201527f556e697377617056324c6962726172793a20494e53554646494349454e545f4c60448201527f49515549444954590000000000000000000000000000000000000000000000006064820152608490fd5b6101ed6101ed6101ed926dffffffffffffffffffffffffffff1690565b6dffffffffffffffffffffffffffff908116911602906dffffffffffffffffffffffffffff8216918203610dc157565b6101ed926119cf612b53612b41612b3b612b35611d5e96612aea600090565b50612aff612af86000610d91565b821161297a565b612b0960006129ec565b6dffffffffffffffffffffffffffff8a161180612b58575b612b2a90612a0c565b611d536103e5610d91565b94612a7e565b84611cc5565b94612b4d6103e86129ec565b90612a9b565b612a7e565b50612b2a612b6660006129ec565b6dffffffffffffffffffffffffffff8916119050612b21565b6101ed60e0610a1d565b9060c08061024c93612ba360008201516000860190610625565b612bb560208201516020860190610625565b60408181015162ffffff1690850152612bd660608201516060860190610625565b612be560808201516080860152565b61254f60a082015160a0860152565b60e08101929161024c9190612b89565b9091612c4f602084612c18610b9b86610226565b612c25610b9b6000610596565b6000612c3060405190565b809681958294612c4463095ea7b360e01b90565b845260048401610b70565b03925af18015610c5d57612e50575b50612c6c610b9b6005610596565b936370a0823192612c7c30610226565b926020612c8860405190565b8098612c948860e01b90565b82528180612ca58960048301610787565b03915afa958615610c5d576000978897612e1c575b5091612d3360209492612d2c612d8795612d18612cd9610b9b8e610596565b96612d0c734200000000000000000000000000000000000006612d04612cfd612b7f565b998a610c98565b8b8901610c98565b62ffffff166040870152565b612d258960608701610c98565b6080850152565b60a0830152565b612d4f612d3f89610d7b565b6001600160a01b031660c0830152565b60405197889384928391907f04e45aaf000000000000000000000000000000000000000000000000000000005b835260048301612bf4565b03925af1918215610c5d57612dc694602093612e01575b50610bd9612daf610b9b6005610596565b91612db960405190565b9687948593849360e01b90565b03915afa8015610c5d576101ed92600091612de2575b506128c5565b612dfb915060203d602011610c8857610c7a81836109f6565b38612ddc565b612e1790843d8611610c8857610c7a81836109f6565b612d9e565b612d879391975060209492612d2c612e43612d3393883d8a11610c8857610c7a81836109f6565b9993955050929450612cba565b612e689060203d602011610c5657610c4b81836109f6565b612c5e565b612ea961024c94612e99606094989795612e8f608086019a6000870190610625565b6020850190610625565b6001600160a01b03166040830152565b019065ffffffffffff169052565b6101ed6008610d91565b612ed7612ed16101ed9260ff1690565b60f81b90565b7fff000000000000000000000000000000000000000000000000000000000000001690565b67ffffffffffffffff8111610a185760208091020190565b90610a60610a5b83612efc565b369037565b9061024c612f3c612f3684612f14565b93612efc565b601f190160208401612f21565b634e487b7160e01b600052603260045260246000fd5b90612f68825190565b811015612f79576020809102010190565b612f49565b60005b828110612f8d57505050565b606082820152602001612f81565b9061024c612fab612f3684612f14565b601f190160208401612f7e565b906109dc81602093610625565b90612fe5612fde612fd4845190565b8084529260200190565b9260200190565b9060005b818110612ff65750505090565b9091926130106130096001928651612fb8565b9460200190565b929101612fe9565b61024c9461304c8298979561304560809661303e61305997600060a08901980190610625565b60208c0152565b60408a0152565b8782036060890152612fc5565b94019015159052565b60005b8381106130755750506000910152565b8181015183820152602001613065565b6130a66130af6020936109dc9361309a815190565b80835293849260200190565b95869101613062565b601f01601f191690565b906101ed91613085565b906130d96130cf835190565b8083529160200190565b90816130eb6020830284019460200190565b926000915b8383106130ff57505050505090565b9091929394602061312261311b838560019503875289516130b9565b9760200190565b93019301919392906130f0565b60408082526101ed93919261314691840190613085565b9160208184039101526130c3565b91613162610b9b6003610596565b61316f610b9b6001610596565b90803b156101a75765ffffffffffff6000916001600160a01b03836131cb9561319760405190565b968795869485937f87517c450000000000000000000000000000000000000000000000000000000085528d60048601612e6d565b03925af18015610c5d57613497575b506132196020836131ed610b9b87610226565b6131fa610b9b6001610596565b600061320560405190565b809681958294612c4463a9059cbb60e01b90565b03925af18015610c5d5761347a575b5061324161323c613237612eb7565b611d70565b612ec1565b61329161324d60405190565b80926132856020830191826109dc816001937fff00000000000000000000000000000000000000000000000000000000000000169052565b908103825203826109f6565b6132a361329e6002610d91565b612f26565b6132c06000956132bb6132b588610d91565b84612f5f565b610c98565b6132e57342000000000000000000000000000000000000066132bb6132b56001610d91565b6133216132fa6132f56001610d91565b612f9b565b9361330430610226565b956132858861331260405190565b95869460208601948b86613018565b61332d6132b586610d91565b5261334061333a85610d91565b83612f5f565b5061334e610b9b6005610596565b926370a0823191602061336060405190565b809661336c8660e01b90565b8252818061337d8760048301610787565b03915afa948515610c5d578695613459575b5061339d610b9b6001610596565b93843b156101a7576133d4948792836133b560405190565b8098819582946133c96324856bc360e01b90565b84526004840161312f565b03925af1918215610c5d576134139360209361342d575b50610bd96133fc610b9b6005610596565b9161340660405190565b9586948593849360e01b90565b03915afa908115610c5d576101ed9391612de257506128c5565b61344c90873d8911613452575b61344481836109f6565b8101906101ac565b386133eb565b503d61343a565b61347391955060203d602011610c8857610c7a81836109f6565b933861338f565b6134929060203d602011610c5657610c4b81836109f6565b613228565b6134a790600061344481836109f6565b386131da565b9291734200000000000000000000000000000000000006936134d7602084612c18610b9b89610226565b03925af18015610c5d57613634575b506134f3610b9b82610226565b906370a082319561350330610226565b9361350d60405190565b956135188960e01b90565b87526020878061352b8960048301610787565b0381885afa968715610c5d576000976135f9575b509161357e60209492612d2c6135bb9561357160009b9c612d0c613565610b9b8f610596565b98612d04612cfd612b7f565b612d258a60608701610c98565b61358a612d3f88610d7b565b60405196879384928391907f04e45aaf00000000000000000000000000000000000000000000000000000000612d7c565b03925af18015610c5d57612dc695602094610bd9926135de575b50604051612db9565b6135f490863d8811610c8857610c7a81836109f6565b6135d5565b6000975060209492612d2c6135bb959361357161362561357e958a3d8c11610c8857610c7a81836109f6565b9b50509395505092945061353f565b61364c9060203d602011610c5657610c4b81836109f6565b6134e6565b906127666020613664610b9b6004610596565b937342000000000000000000000000000000000000069461368460405190565b938492839182917fe6a439050000000000000000000000000000000000000000000000000000000083528960048401612692565b906136c6610b9b6003610596565b92734200000000000000000000000000000000000006936136ea610b9b6001610596565b90803b156101a7576001600160a01b0360009165ffffffffffff93838961374661371360405190565b978896879586947f87517c4500000000000000000000000000000000000000000000000000000000865260048601612e6d565b03925af18015610c5d5761394d575b506137686020836131ed610b9b88610226565b03925af18015610c5d57613930575b50613869610b9b61378c61323c613237612eb7565b946137dd61379960405190565b80976137d16020830191826109dc816001937fff00000000000000000000000000000000000000000000000000000000000000169052565b908103825203876109f6565b6137ea61329e6002610d91565b6137fc6000986132bb6132b58b610d91565b61380d826132bb6132b56001610d91565b61384461381d6132f56001610d91565b9561382730610226565b976132858b61383560405190565b95869460208601948d86613018565b61385661385089610d91565b86612f5f565b5261278161386388610d91565b85612f5f565b916370a082319261387960405190565b946138848560e01b90565b8652602086806138978660048301610787565b0381855afa958615610c5d57879661390f575b506138b8610b9b6001610596565b93843b156101a7576138d0948892836133b560405190565b03925af18015610c5d5761341394602094610bd9926138f3575b50604051613406565b61390990893d8b116134525761344481836109f6565b386138ea565b61392991965060203d602011610c8857610c7a81836109f6565b94386138aa565b6139489060203d602011610c5657610c4b81836109f6565b613777565b61395d90600061344481836109f6565b3861375556fea26469706673582212202c7b938cbd1f2226b679fb69be97b585c0b3edc2c1f2df96ca682a6528f6332f64736f6c63430008180033",
  "linkReferences": {},
  "deployedLinkReferences": {}
}