{
  "contracts/SwapRouterHelper.sol": {
    "SwapRouterHelper": {
      "abi": [
        {
          "inputs": [
            {
              "internalType": "address",
              "name": "_router",
              "type": "address"
            },
            {
              "internalType": "address",
              "name": "_universalRouter",
              "type": "address"
            },
            {
              "internalType": "address",
              "name": "_quoter",
              "type": "address"
            },
            {
              "internalType": "address",
              "name": "_factoryV2",
              "type": "address"
            }
          ],
          "stateMutability": "nonpayable",
          "type": "constructor"
        },
        {
          "inputs": [],
          "name": "PERMIT2",
          "outputs": [
            {
              "internalType": "address",
              "name": "",
              "type": "address"
            }
          ],
          "stateMutability": "view",
          "type": "function"
        },
        {
          "inputs": [],
          "name": "WETH",
          "outputs": [
            {
              "internalType": "address",
              "name": "",
              "type": "address"
            }
          ],
          "stateMutability": "view",
          "type": "function"
        },
        {
          "inputs": [],
          "name": "factoryV2",
          "outputs": [
            {
              "internalType": "contract IUniswapV2Factory",
              "name": "",
              "type": "address"
            }
          ],
          "stateMutability": "view",
          "type": "function"
        },
        {
          "inputs": [],
          "name": "permit2",
          "outputs": [
            {
              "internalType": "contract IPermit2",
              "name": "",
              "type": "address"
            }
          ],
          "stateMutability": "view",
          "type": "function"
        },
        {
          "inputs": [],
          "name": "quoter",
          "outputs": [
            {
              "internalType": "contract IQuoter",
              "name": "",
              "type": "address"
            }
          ],
          "stateMutability": "view",
          "type": "function"
        },
        {
          "inputs": [],
          "name": "router",
          "outputs": [
            {
              "internalType": "contract ISwapRouter02",
              "name": "",
              "type": "address"
            }
          ],
          "stateMutability": "view",
          "type": "function"
        },
        {
          "inputs": [],
          "name": "universalRouter",
          "outputs": [
            {
              "internalType": "contract IUniversalRouter",
              "name": "",
              "type": "address"
            }
          ],
          "stateMutability": "view",
          "type": "function"
        },
        {
          "inputs": [],
          "name": "weth",
          "outputs": [
            {
              "internalType": "contract IWETH",
              "name": "",
              "type": "address"
            }
          ],
          "stateMutability": "view",
          "type": "function"
        }
      ],
      "evm": {
        "bytecode": {
          "linkReferences": {},
          "object": "60806040523461002e5761001d6100146100ee565b92919091610168565b6040516102d06101ee82396102d090f35b600080fd5b634e487b7160e01b600052604160045260246000fd5b90601f01601f191681019081106001600160401b0382111761006a57604052565b610033565b9061008361007c60405190565b9283610049565b565b6001600160a01b031690565b90565b6001600160a01b0381160361002e57565b9050519061008382610094565b60808183031261002e576100c682826100a5565b926100916100d784602085016100a5565b9360606100e782604087016100a5565b94016100a5565b61010c6104be803803806101018161006f565b9283398101906100b2565b90919293565b61009190610085906001600160a01b031682565b61009190610112565b61009190610126565b906101486100916101649261012f565b82546001600160a01b0319166001600160a01b03919091161790565b9055565b6101df6101e6936101bf6101b861008397956101a56101b16101a5976101a56101aa6101a573420000000000000000000000000000000000000690565b61012f565b6005610138565b6000610138565b6001610138565b6101a56101d86e22d473030f116ddee9f6b43ac78ba382565b6003610138565b6002610138565b600461013856fe6080604052600436101561001257600080fd5b60003560e01c806312261ee71461009257806335a9e4df1461008d5780633fc8cef31461008857806368e0d4e1146100835780636afdd8501461007e578063ad5c464814610079578063c6bbd5a7146100745763f887ea40036100975761027f565b610259565b610220565b6101f0565b6101bc565b610195565b61016e565b610137565b600080fd5b600091031261009757565b6100c9916008021c5b73ffffffffffffffffffffffffffffffffffffffff1690565b90565b906100c991546100a7565b6100c9600060036100cc565b6100b06100c96100c99273ffffffffffffffffffffffffffffffffffffffff1690565b6100c9906100e3565b6100c990610106565b6101219061010f565b9052565b6020810192916101359190610118565b565b346100975761014736600461009c565b61015e6101526100d7565b60405191829182610125565b0390f35b6100c9600060016100cc565b346100975761017e36600461009c565b61015e610152610162565b6100c9600060056100cc565b34610097576101a536600461009c565b61015e610152610189565b6100c9600060046100cc565b34610097576101cc36600461009c565b61015e6101526101b0565b610121906100b0565b60208101929161013591906101d7565b346100975761020036600461009c565b61015e6e22d473030f116ddee9f6b43ac78ba35b604051918291826101e0565b346100975761023036600461009c565b61015e734200000000000000000000000000000000000006610214565b6100c9600060026100cc565b346100975761026936600461009c565b61015e61015261024d565b6100c96000806100cc565b346100975761028f36600461009c565b61015e61015261027456fea26469706673582212200e1237d7e099bb4c2006bb2c63ca1270840e538789e44f175b718dcc18b6d74564736f6c63430008180033",
          "opcodes": "PUSH1 0x80 PUSH1 0x40 MSTORE CALLVALUE PUSH2 0x2E JUMPI PUSH2 0x1D PUSH2 0x14 PUSH2 0xEE JUMP JUMPDEST SWAP3 SWAP2 SWAP1 SWAP2 PUSH2 0x168 JUMP JUMPDEST PUSH1 0x40 MLOAD PUSH2 0x2D0 PUSH2 0x1EE DUP3 CODECOPY PUSH2 0x2D0 SWAP1 RETURN JUMPDEST PUSH1 0x0 DUP1 REVERT JUMPDEST PUSH4 0x4E487B71 PUSH1 0xE0 SHL PUSH1 0x0 MSTORE PUSH1 0x41 PUSH1 0x4 MSTORE PUSH1 0x24 PUSH1 0x0 REVERT JUMPDEST SWAP1 PUSH1 0x1F ADD PUSH1 0x1F NOT AND DUP2 ADD SWAP1 DUP2 LT PUSH1 0x1 PUSH1 0x1 PUSH1 0x40 SHL SUB DUP3 GT OR PUSH2 0x6A JUMPI PUSH1 0x40 MSTORE JUMP JUMPDEST PUSH2 0x33 JUMP JUMPDEST SWAP1 PUSH2 0x83 PUSH2 0x7C PUSH1 0x40 MLOAD SWAP1 JUMP JUMPDEST SWAP3 DUP4 PUSH2 0x49 JUMP JUMPDEST JUMP JUMPDEST PUSH1 0x1 PUSH1 0x1 PUSH1 0xA0 SHL SUB AND SWAP1 JUMP JUMPDEST SWAP1 JUMP JUMPDEST PUSH1 0x1 PUSH1 0x1 PUSH1 0xA0 SHL SUB DUP2 AND SUB PUSH2 0x2E JUMPI JUMP JUMPDEST SWAP1 POP MLOAD SWAP1 PUSH2 0x83 DUP3 PUSH2 0x94 JUMP JUMPDEST PUSH1 0x80 DUP2 DUP4 SUB SLT PUSH2 0x2E JUMPI PUSH2 0xC6 DUP3 DUP3 PUSH2 0xA5 JUMP JUMPDEST SWAP3 PUSH2 0x91 PUSH2 0xD7 DUP5 PUSH1 0x20 DUP6 ADD PUSH2 0xA5 JUMP JUMPDEST SWAP4 PUSH1 0x60 PUSH2 0xE7 DUP3 PUSH1 0x40 DUP8 ADD PUSH2 0xA5 JUMP JUMPDEST SWAP5 ADD PUSH2 0xA5 JUMP JUMPDEST PUSH2 0x10C PUSH2 0x4BE DUP1 CODESIZE SUB DUP1 PUSH2 0x101 DUP2 PUSH2 0x6F JUMP JUMPDEST SWAP3 DUP4 CODECOPY DUP2 ADD SWAP1 PUSH2 0xB2 JUMP JUMPDEST SWAP1 SWAP2 SWAP3 SWAP4 JUMP JUMPDEST PUSH2 0x91 SWAP1 PUSH2 0x85 SWAP1 PUSH1 0x1 PUSH1 0x1 PUSH1 0xA0 SHL SUB AND DUP3 JUMP JUMPDEST PUSH2 0x91 SWAP1 PUSH2 0x112 JUMP JUMPDEST PUSH2 0x91 SWAP1 PUSH2 0x126 JUMP JUMPDEST SWAP1 PUSH2 0x148 PUSH2 0x91 PUSH2 0x164 SWAP3 PUSH2 0x12F JUMP JUMPDEST DUP3 SLOAD PUSH1 0x1 PUSH1 0x1 PUSH1 0xA0 SHL SUB NOT AND PUSH1 0x1 PUSH1 0x1 PUSH1 0xA0 SHL SUB SWAP2 SWAP1 SWAP2 AND OR SWAP1 JUMP JUMPDEST SWAP1 SSTORE JUMP JUMPDEST PUSH2 0x1DF PUSH2 0x1E6 SWAP4 PUSH2 0x1BF PUSH2 0x1B8 PUSH2 0x83 SWAP8 SWAP6 PUSH2 0x1A5 PUSH2 0x1B1 PUSH2 0x1A5 SWAP8 PUSH2 0x1A5 PUSH2 0x1AA PUSH2 0x1A5 PUSH20 0x4200000000000000000000000000000000000006 SWAP1 JUMP JUMPDEST PUSH2 0x12F JUMP JUMPDEST PUSH1 0x5 PUSH2 0x138 JUMP JUMPDEST PUSH1 0x0 PUSH2 0x138 JUMP JUMPDEST PUSH1 0x1 PUSH2 0x138 JUMP JUMPDEST PUSH2 0x1A5 PUSH2 0x1D8 PUSH15 0x22D473030F116DDEE9F6B43AC78BA3 DUP3 JUMP JUMPDEST PUSH1 0x3 PUSH2 0x138 JUMP JUMPDEST PUSH1 0x2 PUSH2 0x138 JUMP JUMPDEST PUSH1 0x4 PUSH2 0x138 JUMP INVALID PUSH1 0x80 PUSH1 0x40 MSTORE PUSH1 0x4 CALLDATASIZE LT ISZERO PUSH2 0x12 JUMPI PUSH1 0x0 DUP1 REVERT JUMPDEST PUSH1 0x0 CALLDATALOAD PUSH1 0xE0 SHR DUP1 PUSH4 0x12261EE7 EQ PUSH2 0x92 JUMPI DUP1 PUSH4 0x35A9E4DF EQ PUSH2 0x8D JUMPI DUP1 PUSH4 0x3FC8CEF3 EQ PUSH2 0x88 JUMPI DUP1 PUSH4 0x68E0D4E1 EQ PUSH2 0x83 JUMPI DUP1 PUSH4 0x6AFDD850 EQ PUSH2 0x7E JUMPI DUP1 PUSH4 0xAD5C4648 EQ PUSH2 0x79 JUMPI DUP1 PUSH4 0xC6BBD5A7 EQ PUSH2 0x74 JUMPI PUSH4 0xF887EA40 SUB PUSH2 0x97 JUMPI PUSH2 0x27F JUMP JUMPDEST PUSH2 0x259 JUMP JUMPDEST PUSH2 0x220 JUMP JUMPDEST PUSH2 0x1F0 JUMP JUMPDEST PUSH2 0x1BC JUMP JUMPDEST PUSH2 0x195 JUMP JUMPDEST PUSH2 0x16E JUMP JUMPDEST PUSH2 0x137 JUMP JUMPDEST PUSH1 0x0 DUP1 REVERT JUMPDEST PUSH1 0x0 SWAP2 SUB SLT PUSH2 0x97 JUMPI JUMP JUMPDEST PUSH2 0xC9 SWAP2 PUSH1 0x8 MUL SHR JUMPDEST PUSH20 0xFFFFFFFFFFFFFFFFFFFFFFFFFFFFFFFFFFFFFFFF AND SWAP1 JUMP JUMPDEST SWAP1 JUMP JUMPDEST SWAP1 PUSH2 0xC9 SWAP2 SLOAD PUSH2 0xA7 JUMP JUMPDEST PUSH2 0xC9 PUSH1 0x0 PUSH1 0x3 PUSH2 0xCC JUMP JUMPDEST PUSH2 0xB0 PUSH2 0xC9 PUSH2 0xC9 SWAP3 PUSH20 0xFFFFFFFFFFFFFFFFFFFFFFFFFFFFFFFFFFFFFFFF AND SWAP1 JUMP JUMPDEST PUSH2 0xC9 SWAP1 PUSH2 0xE3 JUMP JUMPDEST PUSH2 0xC9 SWAP1 PUSH2 0x106 JUMP JUMPDEST PUSH2 0x121 SWAP1 PUSH2 0x10F JUMP JUMPDEST SWAP1 MSTORE JUMP JUMPDEST PUSH1 0x20 DUP2 ADD SWAP3 SWAP2 PUSH2 0x135 SWAP2 SWAP1 PUSH2 0x118 JUMP JUMPDEST JUMP JUMPDEST CALLVALUE PUSH2 0x97 JUMPI PUSH2 0x147 CALLDATASIZE PUSH1 0x4 PUSH2 0x9C JUMP JUMPDEST PUSH2 0x15E PUSH2 0x152 PUSH2 0xD7 JUMP JUMPDEST PUSH1 0x40 MLOAD SWAP2 DUP3 SWAP2 DUP3 PUSH2 0x125 JUMP JUMPDEST SUB SWAP1 RETURN JUMPDEST PUSH2 0xC9 PUSH1 0x0 PUSH1 0x1 PUSH2 0xCC JUMP JUMPDEST CALLVALUE PUSH2 0x97 JUMPI PUSH2 0x17E CALLDATASIZE PUSH1 0x4 PUSH2 0x9C JUMP JUMPDEST PUSH2 0x15E PUSH2 0x152 PUSH2 0x162 JUMP JUMPDEST PUSH2 0xC9 PUSH1 0x0 PUSH1 0x5 PUSH2 0xCC JUMP JUMPDEST CALLVALUE PUSH2 0x97 JUMPI PUSH2 0x1A5 CALLDATASIZE PUSH1 0x4 PUSH2 0x9C JUMP JUMPDEST PUSH2 0x15E PUSH2 0x152 PUSH2 0x189 JUMP JUMPDEST PUSH2 0xC9 PUSH1 0x0 PUSH1 0x4 PUSH2 0xCC JUMP JUMPDEST CALLVALUE PUSH2 0x97 JUMPI PUSH2 0x1CC CALLDATASIZE PUSH1 0x4 PUSH2 0x9C JUMP JUMPDEST PUSH2 0x15E PUSH2 0x152 PUSH2 0x1B0 JUMP JUMPDEST PUSH2 0x121 SWAP1 PUSH2 0xB0 JUMP JUMPDEST PUSH1 0x20 DUP2 ADD SWAP3 SWAP2 PUSH2 0x135 SWAP2 SWAP1 PUSH2 0x1D7 JUMP JUMPDEST CALLVALUE PUSH2 0x97 JUMPI PUSH2 0x200 CALLDATASIZE PUSH1 0x4 PUSH2 0x9C JUMP JUMPDEST PUSH2 0x15E PUSH15 0x22D473030F116DDEE9F6B43AC78BA3 JUMPDEST PUSH1 0x40 MLOAD SWAP2 DUP3 SWAP2 DUP3 PUSH2 0x1E0 JUMP JUMPDEST CALLVALUE PUSH2 0x97 JUMPI PUSH2 0x230 CALLDATASIZE PUSH1 0x4 PUSH2 0x9C JUMP JUMPDEST PUSH2 0x15E PUSH20 0x4200000000000000000000000000000000000006 PUSH2 0x214 JUMP JUMPDEST PUSH2 0xC9 PUSH1 0x0 PUSH1 0x2 PUSH2 0xCC JUMP JUMPDEST CALLVALUE PUSH2 0x97 JUMPI PUSH2 0x269 CALLDATASIZE PUSH1 0x4 PUSH2 0x9C JUMP JUMPDEST PUSH2 0x15E PUSH2 0x152 PUSH2 0x24D JUMP JUMPDEST PUSH2 0xC9 PUSH1 0x0 DUP1 PUSH2 0xCC JUMP JUMPDEST CALLVALUE PUSH2 0x97 JUMPI PUSH2 0x28F CALLDATASIZE PUSH1 0x4 PUSH2 0x9C JUMP JUMPDEST PUSH2 0x15E PUSH2 0x152 PUSH2 0x274 JUMP INVALID LOG2 PUSH5 0x6970667358 0x22 SLT KECCAK256 0xE SLT CALLDATACOPY 0xD7 0xE0 SWAP10 0xBB 0x4C KECCAK256 MOD 0xBB 0x2C PUSH4 0xCA127084 0xE MSTORE8 DUP8 DUP10 0xE4 0x4F OR JUMPDEST PUSH18 0x8DCC18B6D74564736F6C6343000818003300 "
        },
        "methodIdentifiers": {
          "PERMIT2()": "6afdd850",
          "WETH()": "ad5c4648",
          "factoryV2()": "68e0d4e1",
          "permit2()": "12261ee7",
          "quoter()": "c6bbd5a7",
          "router()": "f887ea40",
          "universalRouter()": "35a9e4df",
          "weth()": "3fc8cef3"
        }
      }
    }
  }
}