{
  "contracts/LiqFunGameManager.sol": {
    "LiqFunGameManager": {
      "abi": [
        {
          "inputs": [
            {
              "internalType": "address",
              "name": "_gameSigner",
              "type": "address"
            },
            {
              "internalType": "address",
              "name": "_router02",
              "type": "address"
            },
            {
              "internalType": "address",
              "name": "_universalRouter",
              "type": "address"
            },
            {
              "internalType": "address",
              "name": "_quoter",
              "type": "address"
            },
            {
              "internalType": "address",
              "name": "_factoryV2",
              "type": "address"
            }
          ],
          "stateMutability": "nonpayable",
          "type": "constructor"
        },
        {
          "inputs": [],
          "name": "GameHasAlreadyBeenCompleted",
          "type": "error"
        },
        {
          "inputs": [],
          "name": "GameHasNotCompletedOrDoesntExist",
          "type": "error"
        },
        {
          "inputs": [],
          "name": "GameIsActive",
          "type": "error"
        },
        {
          "inputs": [],
          "name": "GameIsNotActive",
          "type": "error"
        },
        {
          "inputs": [],
          "name": "InvalidCreationFee",
          "type": "error"
        },
        {
          "inputs": [],
          "name": "NothingToClaim",
          "type": "error"
        },
        {
          "inputs": [
            {
              "internalType": "address",
              "name": "owner",
              "type": "address"
            }
          ],
          "name": "OwnableInvalidOwner",
          "type": "error"
        },
        {
          "inputs": [
            {
              "internalType": "address",
              "name": "account",
              "type": "address"
            }
          ],
          "name": "OwnableUnauthorizedAccount",
          "type": "error"
        },
        {
          "anonymous": false,
          "inputs": [
            {
              "indexed": true,
              "internalType": "address",
              "name": "winner",
              "type": "address"
            },
            {
              "indexed": true,
              "internalType": "address",
              "name": "loser",
              "type": "address"
            },
            {
              "indexed": true,
              "internalType": "bytes32",
              "name": "gameHash",
              "type": "bytes32"
            },
            {
              "indexed": false,
              "internalType": "bool",
              "name": "dnf",
              "type": "bool"
            },
            {
              "indexed": false,
              "internalType": "bool",
              "name": "tie",
              "type": "bool"
            }
          ],
          "name": "GameComplete",
          "type": "event"
        },
        {
          "anonymous": false,
          "inputs": [
            {
              "indexed": true,
              "internalType": "address",
              "name": "team1",
              "type": "address"
            },
            {
              "indexed": true,
              "internalType": "address",
              "name": "team2",
              "type": "address"
            },
            {
              "indexed": true,
              "internalType": "bytes32",
              "name": "gameHash",
              "type": "bytes32"
            }
          ],
          "name": "GameStarted",
          "type": "event"
        },
        {
          "anonymous": false,
          "inputs": [
            {
              "indexed": true,
              "internalType": "address",
              "name": "previousOwner",
              "type": "address"
            },
            {
              "indexed": true,
              "internalType": "address",
              "name": "newOwner",
              "type": "address"
            }
          ],
          "name": "OwnershipTransferred",
          "type": "event"
        },
        {
          "anonymous": false,
          "inputs": [
            {
              "indexed": true,
              "internalType": "address",
              "name": "staker",
              "type": "address"
            },
            {
              "indexed": true,
              "internalType": "bytes32",
              "name": "game",
              "type": "bytes32"
            },
            {
              "indexed": true,
              "internalType": "address",
              "name": "token",
              "type": "address"
            },
            {
              "indexed": false,
              "internalType": "uint256",
              "name": "amount",
              "type": "uint256"
            }
          ],
          "name": "StakeReclaimed",
          "type": "event"
        },
        {
          "anonymous": false,
          "inputs": [
            {
              "indexed": true,
              "internalType": "address",
              "name": "staker",
              "type": "address"
            },
            {
              "indexed": true,
              "internalType": "bytes32",
              "name": "game",
              "type": "bytes32"
            },
            {
              "indexed": true,
              "internalType": "address",
              "name": "token",
              "type": "address"
            },
            {
              "indexed": false,
              "internalType": "uint256",
              "name": "amount",
              "type": "uint256"
            }
          ],
          "name": "StakeSubmitted",
          "type": "event"
        },
        {
          "inputs": [],
          "name": "CREATION_FEE",
          "outputs": [
            {
              "internalType": "uint256",
              "name": "",
              "type": "uint256"
            }
          ],
          "stateMutability": "view",
          "type": "function"
        },
        {
          "inputs": [],
          "name": "LIQUIDATION_FEE",
          "outputs": [
            {
              "internalType": "uint256",
              "name": "",
              "type": "uint256"
            }
          ],
          "stateMutability": "view",
          "type": "function"
        },
        {
          "inputs": [],
          "name": "PERMIT2",
          "outputs": [
            {
              "internalType": "address",
              "name": "",
              "type": "address"
            }
          ],
          "stateMutability": "view",
          "type": "function"
        },
        {
          "inputs": [],
          "name": "WETH",
          "outputs": [
            {
              "internalType": "address",
              "name": "",
              "type": "address"
            }
          ],
          "stateMutability": "view",
          "type": "function"
        },
        {
          "inputs": [
            {
              "internalType": "address",
              "name": "team1",
              "type": "address"
            },
            {
              "internalType": "address",
              "name": "team2",
              "type": "address"
            }
          ],
          "name": "completeGame",
          "outputs": [],
          "stateMutability": "nonpayable",
          "type": "function"
        },
        {
          "inputs": [
            {
              "internalType": "address",
              "name": "team1",
              "type": "address"
            },
            {
              "internalType": "address",
              "name": "team2",
              "type": "address"
            },
            {
              "internalType": "uint8",
              "name": "token1PoolVersion",
              "type": "uint8"
            },
            {
              "internalType": "uint8",
              "name": "token2PoolVersion",
              "type": "uint8"
            },
            {
              "internalType": "uint24",
              "name": "token1PoolFee",
              "type": "uint24"
            },
            {
              "internalType": "uint24",
              "name": "token2PoolFee",
              "type": "uint24"
            },
            {
              "internalType": "uint256",
              "name": "startBlock",
              "type": "uint256"
            }
          ],
          "name": "createGame",
          "outputs": [],
          "stateMutability": "payable",
          "type": "function"
        },
        {
          "inputs": [],
          "name": "factoryV2",
          "outputs": [
            {
              "internalType": "contract IUniswapV2Factory",
              "name": "",
              "type": "address"
            }
          ],
          "stateMutability": "view",
          "type": "function"
        },
        {
          "inputs": [
            {
              "internalType": "address",
              "name": "team1",
              "type": "address"
            },
            {
              "internalType": "address",
              "name": "team2",
              "type": "address"
            }
          ],
          "name": "games",
          "outputs": [
            {
              "internalType": "bytes32",
              "name": "gameHash",
              "type": "bytes32"
            },
            {
              "internalType": "uint256",
              "name": "startBlock",
              "type": "uint256"
            },
            {
              "internalType": "uint256",
              "name": "endBlock",
              "type": "uint256"
            },
            {
              "internalType": "uint256",
              "name": "token1Amount",
              "type": "uint256"
            },
            {
              "internalType": "uint256",
              "name": "token2Amount",
              "type": "uint256"
            },
            {
              "internalType": "uint8",
              "name": "token1PoolVersion",
              "type": "uint8"
            },
            {
              "internalType": "uint8",
              "name": "token2PoolVersion",
              "type": "uint8"
            },
            {
              "internalType": "uint24",
              "name": "token1PoolFee",
              "type": "uint24"
            },
            {
              "internalType": "uint24",
              "name": "token2PoolFee",
              "type": "uint24"
            },
            {
              "internalType": "bool",
              "name": "hasCompleted",
              "type": "bool"
            }
          ],
          "stateMutability": "view",
          "type": "function"
        },
        {
          "inputs": [],
          "name": "owner",
          "outputs": [
            {
              "internalType": "address",
              "name": "",
              "type": "address"
            }
          ],
          "stateMutability": "view",
          "type": "function"
        },
        {
          "inputs": [],
          "name": "permit2",
          "outputs": [
            {
              "internalType": "contract IPermit2",
              "name": "",
              "type": "address"
            }
          ],
          "stateMutability": "view",
          "type": "function"
        },
        {
          "inputs": [],
          "name": "quoter",
          "outputs": [
            {
              "internalType": "contract IQuoter",
              "name": "",
              "type": "address"
            }
          ],
          "stateMutability": "view",
          "type": "function"
        },
        {
          "inputs": [
            {
              "internalType": "bytes32",
              "name": "gameHash",
              "type": "bytes32"
            }
          ],
          "name": "reclaimStake",
          "outputs": [],
          "stateMutability": "nonpayable",
          "type": "function"
        },
        {
          "inputs": [],
          "name": "recoverETH",
          "outputs": [],
          "stateMutability": "nonpayable",
          "type": "function"
        },
        {
          "inputs": [
            {
              "internalType": "address",
              "name": "token",
              "type": "address"
            }
          ],
          "name": "recoverTokens",
          "outputs": [],
          "stateMutability": "nonpayable",
          "type": "function"
        },
        {
          "inputs": [],
          "name": "renounceOwnership",
          "outputs": [],
          "stateMutability": "nonpayable",
          "type": "function"
        },
        {
          "inputs": [
            {
              "internalType": "bytes32",
              "name": "gameHash",
              "type": "bytes32"
            }
          ],
          "name": "results",
          "outputs": [
            {
              "internalType": "address",
              "name": "winningTeam",
              "type": "address"
            },
            {
              "internalType": "uint256",
              "name": "endBlock",
              "type": "uint256"
            },
            {
              "internalType": "uint256",
              "name": "winningTokenAmount",
              "type": "uint256"
            },
            {
              "internalType": "uint256",
              "name": "newTokenAmount",
              "type": "uint256"
            },
            {
              "internalType": "bool",
              "name": "dnf",
              "type": "bool"
            },
            {
              "internalType": "bool",
              "name": "tie",
              "type": "bool"
            },
            {
              "internalType": "address",
              "name": "losingTeam",
              "type": "address"
            },
            {
              "internalType": "uint256",
              "name": "losingTokenAmount",
              "type": "uint256"
            }
          ],
          "stateMutability": "view",
          "type": "function"
        },
        {
          "inputs": [],
          "name": "router",
          "outputs": [
            {
              "internalType": "contract ISwapRouter02",
              "name": "",
              "type": "address"
            }
          ],
          "stateMutability": "view",
          "type": "function"
        },
        {
          "inputs": [
            {
              "internalType": "uint256",
              "name": "_fee",
              "type": "uint256"
            }
          ],
          "name": "setCreationFee",
          "outputs": [],
          "stateMutability": "nonpayable",
          "type": "function"
        },
        {
          "inputs": [
            {
              "internalType": "address",
              "name": "_gameSigner",
              "type": "address"
            }
          ],
          "name": "setGameSigner",
          "outputs": [],
          "stateMutability": "nonpayable",
          "type": "function"
        },
        {
          "inputs": [
            {
              "internalType": "uint256",
              "name": "_fee",
              "type": "uint256"
            }
          ],
          "name": "setLiquidationFee",
          "outputs": [],
          "stateMutability": "nonpayable",
          "type": "function"
        },
        {
          "inputs": [
            {
              "internalType": "address",
              "name": "team1",
              "type": "address"
            },
            {
              "internalType": "address",
              "name": "team2",
              "type": "address"
            },
            {
              "internalType": "uint256",
              "name": "tokenAmount",
              "type": "uint256"
            },
            {
              "internalType": "address",
              "name": "token",
              "type": "address"
            }
          ],
          "name": "stakeInGame",
          "outputs": [],
          "stateMutability": "nonpayable",
          "type": "function"
        },
        {
          "inputs": [
            {
              "internalType": "address",
              "name": "staker",
              "type": "address"
            },
            {
              "internalType": "bytes32",
              "name": "gameHash",
              "type": "bytes32"
            },
            {
              "internalType": "address",
              "name": "team",
              "type": "address"
            }
          ],
          "name": "stakes",
          "outputs": [
            {
              "internalType": "uint256",
              "name": "amount",
              "type": "uint256"
            }
          ],
          "stateMutability": "view",
          "type": "function"
        },
        {
          "inputs": [
            {
              "internalType": "address",
              "name": "newOwner",
              "type": "address"
            }
          ],
          "name": "transferOwnership",
          "outputs": [],
          "stateMutability": "nonpayable",
          "type": "function"
        },
        {
          "inputs": [],
          "name": "universalRouter",
          "outputs": [
            {
              "internalType": "contract IUniversalRouter",
              "name": "",
              "type": "address"
            }
          ],
          "stateMutability": "view",
          "type": "function"
        },
        {
          "inputs": [],
          "name": "weth",
          "outputs": [
            {
              "internalType": "contract IWETH",
              "name": "",
              "type": "address"
            }
          ],
          "stateMutability": "view",
          "type": "function"
        }
      ],
      "evm": {
        "bytecode": {
          "linkReferences": {},
          "object": "6080604052346200003457620000226200001862000117565b93929092620001d9565b604051613999620003c1823961399990f35b600080fd5b634e487b7160e01b600052604160045260246000fd5b90601f01601f191681019081106001600160401b038211176200007157604052565b62000039565b906200008e6200008660405190565b92836200004f565b565b6001600160a01b031690565b90565b6001600160a01b038116036200003457565b905051906200008e826200009f565b919060a0838203126200003457620000d98184620000b1565b92620000e98260208301620000b1565b926200009c620000fd8460408501620000b1565b9360806200010f8260608701620000b1565b9401620000b1565b6200013a62003d5a803803806200012e8162000077565b928339810190620000c0565b9091929394565b90600019905b9181191691161790565b6200009c6200009c6200009c9290565b90620001756200009c6200017d9262000151565b825462000141565b9055565b906001600160a01b039062000147565b6200009c9062000090906001600160a01b031682565b6200009c9062000191565b6200009c90620001a7565b90620001d16200009c6200017d92620001b2565b825462000181565b92620001ec926200008e95923362000244565b620001fa6005600b62000161565b6200020e6611c37937e08000600c62000161565b600a620001bd565b620000906200009c6200009c9290565b6200009c9062000216565b6001600160a01b03909116815260200190565b9391620002529391620002ae565b6200025e600062000226565b6001600160a01b0381166001600160a01b038316146200028457506200008e9062000366565b620002aa906200029360405190565b631e4fbdf760e01b81529182916004830162000231565b0390fd5b906200008e9392916200033f62000347936200031c620003146200008e9795620002fe6200030c620002fe97620002fe62000304620002fe73420000000000000000000000000000000000000690565b620001b2565b6005620001bd565b6000620001bd565b6001620001bd565b620002fe620003376e22d473030f116ddee9f6b43ac78ba382565b6003620001bd565b6002620001bd565b6004620001bd565b6200009c9062000090565b6200009c90546200034f565b6200038e620003876200037a60066200035a565b620002fe846006620001bd565b91620001b2565b907f8be0079c531659141344cd1fd0a4f28419497f9722a3daafe3b4186f6b6457e0620003ba60405190565b600090a356fe6080604052600436101561001257600080fd5b60003560e01c80630614117a146101a257806312261ee71461019d578063152c82971461019857806316114acd14610193578063332ccba91461018e57806335a9e4df146101895780633fc8cef31461018457806349a2104d1461017f5780634c6b25b11461017a5780635f6d73bd1461017557806368e0d4e1146101705780636afdd8501461016b578063715018a6146101665780638da5cb5b14610161578063ad5c46481461015c578063b182733014610157578063b7d8622514610152578063b936c7831461014d578063c6bbd5a714610148578063ef95f73314610143578063f0edc7b31461013e578063f2fde38b14610139578063f6c4c1f214610134578063f887ea401461012f5763fef0bec8036101a7576109b4565b610999565b610976565b61095e565b610942565b6108f1565b61088b565b610866565b61084e565b610833565b6107fa565b6107df565b6107c7565b610797565b61076c565b610746565b61067b565b61055b565b61051e565b6104f7565b6104d3565b610494565b610445565b61024e565b6101b7565b600080fd5b60009103126101a757565b346101a7576101c73660046101ac565b6101cf610b01565b604051005b0390f35b6101ed916008021c5b6001600160a01b031690565b90565b906101ed91546101d8565b6101ed600060036101f0565b6101e16101ed6101ed926001600160a01b031690565b6101ed90610207565b6101ed9061021d565b61023890610226565b9052565b60208101929161024c919061022f565b565b346101a75761025e3660046101ac565b6101d46102696101fb565b6040519182918261023c565b61027e816101e1565b036101a757565b9050359061024c82610275565b91906040838203126101a7576101ed9060206102ae8286610285565b9401610285565b906102bf90610226565b600052602052604060002090565b6101ed9081565b6101ed90546102cd565b6101ed905b60ff1690565b6101ed90546102de565b6101ed9060081c6102e3565b6101ed90546102f3565b6101ed9060101c5b62ffffff1690565b6101ed9054610309565b6101ed9060281c610311565b6101ed9054610323565b6101ed9060401c6102e3565b6101ed9054610339565b9061035e6103639260076102b5565b6102b5565b9061036d826102d4565b9161037a600182016102d4565b91610387600283016102d4565b91610394600382016102d4565b916103a1600483016102d4565b916103ae600582016102e9565b916103bb600583016102ff565b916103c860058201610319565b916101ed60056103d981850161032f565b9301610345565b979593919a9998969492909a61014089019b60008a016103fe919052565b602089015260408801526060870152608086015260ff1660a085015260ff1660c084015262ffffff1660e083015262ffffff166101008201526101200161024c9115159052565b346101a7576101d461046161045b366004610292565b9061034f565b966104779a989a96919695929594939460405190565b9a8b9a8b6103e0565b906020828203126101a7576101ed91610285565b346101a7576101cf6104a7366004610480565b610c8f565b8061027e565b9050359061024c826104ac565b906020828203126101a7576101ed916104b2565b346101a7576101cf6104e63660046104bf565b610e0f565b6101ed600060016101f0565b346101a7576105073660046101ac565b6101d46102696104eb565b6101ed600060056101f0565b346101a75761052e3660046101ac565b6101d4610269610512565b6101ed916008021c81565b906101ed9154610539565b6101ed6000600c610544565b346101a75761056b3660046101ac565b6101d461057661054f565b6040515b9182918290815260200190565b906102bf565b6101ed906101e1565b6101ed905461058d565b6101ed9060101c6101e1565b6101ed90546105a0565b6105c1906009610587565b906105cb82610596565b916105d8600182016102d4565b916105e5600283016102d4565b916105f2600382016102d4565b916105ff600483016102e9565b9161060c600482016102ff565b916101ed600561061e600485016105ac565b93016102d4565b610238906101e1565b959391989796949290986101008701996000880161064b91610625565b60208701526040860152606085015215156080840152151560a083015260c0820161067591610625565b60e00152565b346101a7576101d46106966106913660046104bf565b6105b6565b946106a998969894919493929360405190565b9889988961062e565b60ff811661027e565b9050359061024c826106b2565b62ffffff811661027e565b9050359061024c826106c8565b60e0818303126101a7576106f48282610285565b926107028360208401610285565b9261071081604085016106bb565b9261071e82606083016106bb565b926101ed61072f84608085016106d3565b9360c061073f8260a087016106d3565b94016104b2565b6101cf6107543660046106e0565b95949094939193611436565b6101ed600060046101f0565b346101a75761077c3660046101ac565b6101d4610269610760565b60208101929161024c9190610625565b346101a7576107a73660046101ac565b6101d46e22d473030f116ddee9f6b43ac78ba35b60405191829182610787565b346101a7576107d73660046101ac565b6101cf61171d565b346101a7576107ef3660046101ac565b6101d46107bb611725565b346101a75761080a3660046101ac565b6101d47342000000000000000000000000000000000000066107bb565b6101ed6000600b610544565b346101a7576108433660046101ac565b6101d4610576610827565b346101a7576101cf6108613660046104bf565b611746565b346101a7576101cf610879366004610292565b9061174f565b6101ed600060026101f0565b346101a75761089b3660046101ac565b6101d461026961087f565b90916060828403126101a7576101ed6108bf8484610285565b9360406102ae82602087016104b2565b6101ed9261035e6000936108e76108ec9460086102b5565b610587565b610544565b346101a7576101d46105766109073660046108a6565b916108cf565b6080818303126101a7576109218282610285565b926101ed6109328460208501610285565b9360606102ae82604087016104b2565b346101a7576101cf61095536600461090d565b929190916118d1565b346101a7576101cf610971366004610480565b611b85565b346101a7576101cf610989366004610480565b611bd0565b6101ed6000806101f0565b346101a7576109a93660046101ac565b6101d461026961098e565b346101a7576101cf6109c73660046104bf565b611bf0565b6109d4611bf9565b61024c610ad4565b0190565b634e487b7160e01b600052604160045260246000fd5b90601f01601f1916810190811067ffffffffffffffff821117610a1857604052565b6109e0565b9061024c610a2a60405190565b92836109f6565b67ffffffffffffffff8111610a1857602090601f01601f19160190565b90610a60610a5b83610a31565b610a1d565b918252565b3d15610a7f57610a743d610a4e565b903d6000602084013e565b606090565b15610a8b57565b60405162461bcd60e51b815260206004820152601060248201527f5472616e73666572206661696c65642e000000000000000000000000000000006044820152606490fd5b0390fd5b61024c600080610ae330610226565b31610aed60405190565b600091335af1610afb610a65565b50610a84565b61024c6109cc565b61024c90610b15611bf9565b610b8f565b9050519061024c826104ac565b906020828203126101a7576101ed91610b1a565b6040513d6000823e3d90fd5b80151561027e565b9050519061024c82610b47565b906020828203126101a7576101ed91610b4f565b91602061024c929493610b8b60408201966000830190610625565b0152565b610b9b610ba091610226565b610226565b610be46020610bae30610226565b6040519283918291907f70a08231000000000000000000000000000000000000000000000000000000005b835260048301610787565b0381855afa908115610c5d57600092602092610c21928591610c62575b50604051948593849283919063a9059cbb60e01b83523360048401610b70565b03925af18015610c5d57610c325750565b610c539060203d602011610c56575b610c4b81836109f6565b810190610b5c565b50565b503d610c41565b610b3b565b610c829150843d8611610c88575b610c7a81836109f6565b810190610b27565b38610c01565b503d610c70565b61024c90610b09565b90610238906101e1565b6101ed610100610a1d565b9061024c610d616005610cbe610ca2565b94610cd1610ccb82610596565b87610c98565b610ce7610ce0600183016102d4565b6020880152565b610cfd610cf6600283016102d4565b6040880152565b610d13610d0c600383016102d4565b6060880152565b610d2b610d22600483016102e9565b15156080880152565b610d43610d3a600483016102ff565b151560a0880152565b610d5b610d52600483016105ac565b60c08801610c98565b016102d4565b60e0840152565b6101ed90610cad565b6101ed90516101e1565b6101e16101ed6101ed9290565b6101ed90610d7b565b6101ed6101ed6101ed9290565b634e487b7160e01b600052601160045260246000fd5b91908201809211610dc157565b610d9e565b907fffffffffffffffffffffffffffffffffffffffffffffffffffffffffffffffff905b9181191691161790565b90610e046101ed610e0b92610d91565b8254610dc6565b9055565b610e22610e1d826009610587565b610d68565b90610e2c82610d71565b91600092610e4a610e44610e3f86610d88565b6101e1565b916101e1565b146110fe57600890610e60836108e733856102b5565b610e7e610e7986840192610e7384610d71565b906102b5565b6102d4565b610e8786610d91565b8111610fe3575b5050608081015115158015610fd6575b610ea9575b50505050565b610ecb610e7960c0610ebf866108e733886102b5565b930192610e7384610d71565b93610ed581610d91565b8511610ee2575b50610ea3565b610ef1610b9b610b9b84610d71565b926020610efd60405190565b94859063a9059cbb60e01b8252818581610f1b8c3360048401610b70565b03925af1938415610c5d57610f51866108e7610f4986610f5a95610f649a610f5f9950610fb9575b50610d91565b9433906102b5565b610e7385610d71565b610df4565b610d71565b907f7521b41fd87bbba2e8adc235ce9a586217c275f3daea9f5a08b3b9d26c801c48610fac610fa2610f9c610f9833610226565b9490565b94610226565b9461057a60405190565b0390a43880808080610edc565b610fd19060203d602011610c5657610c4b81836109f6565b610f43565b5060a08101511515610e9e565b61100d90600090610ffe610ffa6080870151151590565b1590565b806110e8575b6110d657610db4565b9061101d610b9b610b9b83610d71565b90602061102960405190565b92839063a9059cbb60e01b8252818a81611047893360048401610b70565b03925af1918215610c5d57611079926110b9575b50610f5f61106888610d91565b610f5a610f51896108e7338b6102b5565b61108233610226565b7f7521b41fd87bbba2e8adc235ce9a586217c275f3daea9f5a08b3b9d26c801c486110af610fa288610f9c565b0390a43880610e8e565b6110d19060203d602011610c5657610c4b81836109f6565b61105b565b90506110e28482611cfd565b90610db4565b506110f9610ffa60a0870151151590565b611004565b6040517fb3a96cfc000000000000000000000000000000000000000000000000000000008152600490fd5b6101ed610140610a1d565b9061024c6112046005611145611129565b94611156611152826102d4565b8752565b611165610ce0600183016102d4565b611174610cf6600283016102d4565b611183610d0c600383016102d4565b611199611192600483016102d4565b6080880152565b6111b16111a78383016102e9565b60ff1660a0880152565b6111c96111bf8383016102ff565b60ff1660c0880152565b6111e36111d7838301610319565b62ffffff1660e0880152565b6111fe6111f183830161032f565b62ffffff16610100880152565b01610345565b1515610120840152565b6101ed90611134565b611223610238916101e1565b60601b90565b6020939261124960148361124182956109dc97611217565b018092611217565b01918252565b90610e046101ed610e0b9290565b9060ff90610dea565b6102e36101ed6101ed9260ff1690565b906112866101ed610e0b92611266565b825461125d565b9061ff009060081b610dea565b906112aa6101ed610e0b92611266565b825461128d565b9064ffffff00009060101b610dea565b6103116101ed6101ed9262ffffff1690565b906112e36101ed610e0b926112c1565b82546112b1565b9067ffffff00000000009060281b610dea565b9061130d6101ed610e0b926112c1565b82546112ea565b9068ff00000000000000009060401b610dea565b906113386101ed610e0b92151590565b8254611314565b90611426610120600561024c9461136061135a600087015190565b8261124f565b61137761136e602087015190565b60018301610df4565b61138e611385604087015190565b60028301610df4565b6113a561139c606087015190565b60038301610df4565b6113bc6113b3608087015190565b60048301610df4565b01926113d56113cf60a083015160ff1690565b85611276565b6113ec6113e660c083015160ff1690565b8561129a565b6114056113ff60e083015162ffffff1690565b856112d3565b61141f61141961010083015162ffffff1690565b856112fd565b0151151590565b90611328565b9061024c9161133f565b929094939195611445866101e1565b61144e856101e1565b10156116fa5783955b611460876101e1565b611469866101e1565b036116f257965b6007936114896114848a61035e8b896102b5565b61120e565b936020850197611497895190565b986000996114ab6114a78c610d91565b9190565b1415806116e5575b806116ce575b6116a3578b988b978b6114d96114a76114d36114f2965190565b92610d91565b1415908161168e575b81611680575b50611676576101e1565b6114fb876101e1565b1491821561166f57845b60ff811660ff8716036116675750915b1561166057825b62ffffff811662ffffff8516036116585750925b6040518060208101611544888c8b84611229565b90810382520361155490826109f6565b805190602001209461156660b4610d91565b6115709082610db4565b90611579611129565b96611584908c890152565b6020870152604086015261159789610d91565b6115a2816060880152565b608086015260ff1660a085015260ff1660c084015262ffffff1660e083015262ffffff16610100820152841515610120820152836115e083856102b5565b906115ea916102b5565b906115f49161142c565b6115fd916102b5565b90611607916102b5565b01611611906102d4565b9061161b90610226565b9161162590610226565b909161163060405190565b7fcaae1144bff91d59a9ac363d9fc91a3f9afcbac47706cb7413e5d1e42169b05690600090a4565b905092611530565b809261151c565b905091611515565b8094611505565b610e3f8a89611ea2565b6101200151159050386114e8565b905061169b604082015190565b4311906114e2565b6040517f2f314085000000000000000000000000000000000000000000000000000000008152600490fd5b506116e0610ffa610120890151151590565b6114b9565b50604087015143106114b3565b508396611470565b85611457565b611708611bf9565b61024c61024c6117186000610d88565b612437565b61024c611700565b6101ed6006610596565b61024c9061173b611bf9565b61024c90600c610df4565b61024c9061172f565b90611759816101e1565b611762836101e1565b10156118a057815b611773836101e1565b61177c826101e1565b0361189957505b6117956101ed8261035e8560076102b5565b600181016117a2816102d4565b6117af6114a76000610d91565b1480611879575b61184e576117c3906102d4565b6117d06114a76000610d91565b118061183a575b80611825575b6116a35760056117ed9101610345565b6117fa5761024c91611ea2565b6040517f4f50b0e1000000000000000000000000000000000000000000000000000000008152600490fd5b50611835610ffa60058301610345565b6117dd565b50611847600282016102d4565b43106117d7565b6040517fa5e06178000000000000000000000000000000000000000000000000000000008152600490fd5b50611886600283016102d4565b6118936114a76000610d91565b146117b6565b9050611783565b809161176a565b604090610b8b61024c94969593966118c760608401986000850190610625565b6020830190610625565b909291926118de816101e1565b6118e7836101e1565b1015611b0b57815b6118f8836101e1565b611901826101e1565b03611b0457505b61191a6101ed8261035e8560076102b5565b91611927600184016102d4565b6119346114a76000610d91565b148015611af0575b8015611ade575b61184e5761198e9060208661195a610b9b88610226565b61196330610226565b600061196e60405190565b8097819582946119826323b872dd60e01b90565b845233600485016118a7565b03925af1918215610c5d576119a892611ac1575b506101e1565b6119b1846101e1565b03611a485750806119da6003611a1093016119d4866119cf836102d4565b610db4565b90610df4565b610e79611a038461035e60006119f13360086102b5565b9501946119fd866102d4565b90610587565b6119d4866119cf836102d4565b7f05bb41883a6fff90eff4e984cc1f4cdc29bcfbb49fbf510dc6d13ba1c920be8b611a43610fa2610f9c610f9833610226565b0390a4565b611a51906101e1565b611a5a836101e1565b03611a7c5780611a776004611a1093016119d4866119cf836102d4565b6119da565b60405162461bcd60e51b815260206004820152600d60248201527f496e76616c696420746f6b656e000000000000000000000000000000000000006044820152606490fd5b611ad99060203d602011610c5657610c4b81836109f6565b6119a2565b50611aeb60058401610345565b611943565b50611afd600284016102d4565b431161193c565b9050611908565b80916118ef565b61024c90611b1e611bf9565b611b286000610d88565b611b31816101e1565b611b3a836101e1565b14611b49575061024c90612437565b610ad090611b5660405190565b9182917f1e4fbdf700000000000000000000000000000000000000000000000000000000835260048301610787565b61024c90611b12565b61024c90611b9a611bf9565b611bc5565b906001600160a01b0390610dea565b90611bbe6101ed610e0b92610226565b8254611b9f565b61024c90600a611bae565b61024c90611b8e565b61024c90611be5611bf9565b61024c90600b610df4565b61024c90611bd9565b611c01611725565b3390611c0f610e44836101e1565b03611c175750565b610ad090611c2460405190565b9182917f118cdaa700000000000000000000000000000000000000000000000000000000835260048301610787565b15611c5a57565b60405162461bcd60e51b815260206004820152602e60248201527f57696e6e696e6720746f6b656e20616d6f756e74206d7573742062652067726560448201527f61746572207468616e207a65726f0000000000000000000000000000000000006064820152608490fd5b81810292918115918404141715610dc157565b634e487b7160e01b600052601260045260246000fd5b8115611cf8570490565b611cd8565b611d5e611d6a6101ed93611d0f600090565b50611d536060611d6460408401611d3a611d27825190565b611d346114a76000610d91565b11611c53565b611d5e611d59670de0b6b3a764000099611d538b610d91565b90611cc5565b915190565b90611cee565b92015190565b91610d91565b6102e36101ed6101ed9290565b906112866101ed610e0b92151590565b906112aa6101ed610e0b92151590565b9075ffffffffffffffffffffffffffffffffffffffff00009060101b610dea565b90611dce6101ed610e0b92610226565b8254611d9d565b6005611e8460e061024c94611df5611def60008301610d71565b86611bae565b611e0c611e03602083015190565b60018701610df4565b611e23611e1a604083015190565b60028701610df4565b611e3a611e31606083015190565b60038701610df4565b611e7f60048601611e57611e516080850151151590565b82611d7d565b611e6d611e6760a0850151151590565b82611d8d565b611e7960c08401610d71565b90611dbe565b015190565b9101610df4565b9061024c91611dd5565b6103116101ed6101ed9290565b90611eac816101e1565b611eb5836101e1565b101561243057815b611ec6836101e1565b611ecf826101e1565b036124285750905b611ee96101ed8361035e8460076102b5565b916000926003810184611efb826102d4565b95600096611f0b6114a789610d91565b116123ea575b6004840191611f1f836102d4565b611f2b6114a78a610d91565b11612396575b8788918993611f3f8b610d91565b81118080612385575b8061237c575b1561230b57505050506001915b818215612304575b6121d2575050610f9c6121286120fc610e796001600589612122610f5a8f8f9c8f9c7f99dc767cf9079637556fa4c152dcaf6b25bbf98c744029720eaf88154130855e9f611a439f9361212e9f610f989f906120ef61210d946120e8612116996120d061210896806000146121cc5782965b81156121c25761209190935b8d83156121b35750611ff28d6102d4565b965b611ffd826101e1565b6120068b6101e1565b036121a45761203561201a600583016102e9565b61202e6120276002611d70565b9160ff1690565b14926101e1565b61203e876101e1565b0361218257612078612052600583016102e9565b61205f6120276002611d70565b145b8d81156121705761207190611e95565b8a896128d2565b90821561215e57506120898c611e95565b905b8a61293e565b901561214d576120c96120a38d6102d4565b6120b76120ae610ca2565b998c8b01610c98565b6120c24360208b0152565b6040890152565b6060870152565b8615156080860181905260a086015260c08501610c98565b60e0830152565b612103838b019e8f6102d4565b6009610587565b611e8b565b610d91565b93848093610df4565b61138581868501610df4565b01611328565b96610226565b9461213860405190565b90151580825260208201529081906040820190565b6120c96121598c6102d4565b6120a3565b600561216a9101610319565b9061208b565b5061217d6005840161032f565b612071565b612078612191600583016102ff565b61219e6120276002611d70565b14612061565b61203561201a600583016102ff565b6121bc906102d4565b96611ff4565b5061209183611fe1565b86611fd5565b9492909791506121e1846102d4565b936121eb826102d4565b906121f4610ca2565b956122018a868901610c98565b61220c436020890152565b604087015261221a84610d91565b809481938260608a019061222b9152565b89151560808a01528c151560a08a01526122488b60c08b01610c98565b60e0890152860196612259886102d4565b612264906009610587565b9061226e91611e8b565b61227791610df4565b61228091610df4565b61228d8160018401610df4565b61229a9060028301610df4565b60050160016122a891611328565b6122b1906102d4565b926122bb90610226565b916122c590610226565b92936122d060405190565b9115158252151560208201527f99dc767cf9079637556fa4c152dcaf6b25bbf98c744029720eaf88154130855e90604090a4565b5080611f63565b9294928061236b575b80612362575b1561232a57506001925050611f5b565b6123366114a78c610d91565b1490811561234d575b5015611f5b57506001611f5b565b905061235b6114a78b610d91565b143861233f565b5081811461231a565b506123758b610d91565b8211612314565b50828211611f4e565b5061238f8c610d91565b8311611f48565b50600584016123a4816102ff565b6123b16120276002611d70565b036123ce57506123c96123c3836102d4565b86612707565b611f31565b6123da6123c99161032f565b6123e3846102d4565b908761256f565b50600583016123f8816102e9565b6124056120276002611d70565b0361241c57506124176123c3836102d4565b611f11565b6123da61241791610319565b905090611ed7565b8091611ebd565b6124586124526124476006610596565b610b9b846006611bae565b91610226565b907f8be0079c531659141344cd1fd0a4f28419497f9722a3daafe3b4186f6b6457e061248360405190565b600090a3565b6101ed60a0610a1d565b6001600160a01b03811661027e565b9050519061024c82612493565b63ffffffff811661027e565b9050519061024c826124af565b6080818303126101a7576124dc8282610b1a565b926101ed6124ed84602085016124a2565b9360606124fd82604087016124bb565b9401610b1a565b9060808061024c9361251e60008201516000860190610625565b61253060208201516020860190610625565b61253f60408201516040860152565b60608181015162ffffff16908501525b01516001600160a01b0316910152565b60a08101929161024c9190612504565b6080906126309261257e600090565b506125df61258f610b9b6002610596565b916125d3734200000000000000000000000000000000000006976125cc6000996125c36125ba612489565b988c8a01610c98565b60208801610c98565b6040860152565b62ffffff166060840152565b6125fa6125eb86610d7b565b6001600160a01b031683850152565b604051938492839182917fc6a5026a0000000000000000000000000000000000000000000000000000000083526004830161255f565b03915afa8015610c5d57612642575090565b612664915060803d60801161266a575b61265c81836109f6565b8101906124c8565b50505090565b503d612652565b9050519061024c82610275565b906020828203126101a7576101ed91612671565b91602061024c9294936126ad60408201966000830190610625565b0190610625565b6dffffffffffffffffffffffffffff811661027e565b9050519061024c826126b4565b90916060828403126101a7576101ed6126f084846126ca565b93604061270082602087016126ca565b94016124bb565b9061276660208361271b610b9b6004610596565b604051938492839182917342000000000000000000000000000000000000067fe6a4390500000000000000000000000000000000000000000000000000000000845260048401612692565b03915afa908115610c5d5761278791610b9b916000916128a6575b50610226565b9161279160405190565b7f0902f1ac000000000000000000000000000000000000000000000000000000008152606081600481875afa918215610c5d576000918293612872575b5060206127da60405190565b7f0dfe168100000000000000000000000000000000000000000000000000000000815295869060049082905afa908115610c5d576101ed95600092612839575b50610e44612827916101e1565b03612833579091612acb565b91612acb565b612827919250612863610e449160203d60201161286b575b61285b81836109f6565b81019061267e565b92915061281a565b503d612851565b909250612897915060603d60601161289f575b61288f81836109f6565b8101906126d7565b9290926127ce565b503d612885565b6128bf915060203d60201161286b5761285b81836109f6565b38612781565b91908203918211610dc157565b612919926101ed946128e2600090565b50156129235750816128f76128fd9383612707565b91613154565b611d5361290a600b6102d4565b6129146064610d91565b6128c5565b611d5e6064610d91565b908261293361293994848461256f565b91612c04565b6128fd565b919092612949600090565b501561296457508161295e6101ed9383613651565b916136b8565b90826129746101ed94848461256f565b916134ad565b1561298157565b60405162461bcd60e51b815260206004820152602b60248201527f556e697377617056324c6962726172793a20494e53554646494349454e545f4960448201527f4e5055545f414d4f554e540000000000000000000000000000000000000000006064820152608490fd5b6129f96101ed6101ed9290565b6dffffffffffffffffffffffffffff1690565b15612a1357565b60405162461bcd60e51b815260206004820152602860248201527f556e697377617056324c6962726172793a20494e53554646494349454e545f4c60448201527f49515549444954590000000000000000000000000000000000000000000000006064820152608490fd5b6101ed6101ed6101ed926dffffffffffffffffffffffffffff1690565b6dffffffffffffffffffffffffffff908116911602906dffffffffffffffffffffffffffff8216918203610dc157565b6101ed926119cf612b53612b41612b3b612b35611d5e96612aea600090565b50612aff612af86000610d91565b821161297a565b612b0960006129ec565b6dffffffffffffffffffffffffffff8a161180612b58575b612b2a90612a0c565b611d536103e5610d91565b94612a7e565b84611cc5565b94612b4d6103e86129ec565b90612a9b565b612a7e565b50612b2a612b6660006129ec565b6dffffffffffffffffffffffffffff8916119050612b21565b6101ed60e0610a1d565b9060c08061024c93612ba360008201516000860190610625565b612bb560208201516020860190610625565b60408181015162ffffff1690850152612bd660608201516060860190610625565b612be560808201516080860152565b61254f60a082015160a0860152565b60e08101929161024c9190612b89565b9091612c4f602084612c18610b9b86610226565b612c25610b9b6000610596565b6000612c3060405190565b809681958294612c4463095ea7b360e01b90565b845260048401610b70565b03925af18015610c5d57612e50575b50612c6c610b9b6005610596565b936370a0823192612c7c30610226565b926020612c8860405190565b8098612c948860e01b90565b82528180612ca58960048301610787565b03915afa958615610c5d576000978897612e1c575b5091612d3360209492612d2c612d8795612d18612cd9610b9b8e610596565b96612d0c734200000000000000000000000000000000000006612d04612cfd612b7f565b998a610c98565b8b8901610c98565b62ffffff166040870152565b612d258960608701610c98565b6080850152565b60a0830152565b612d4f612d3f89610d7b565b6001600160a01b031660c0830152565b60405197889384928391907f04e45aaf000000000000000000000000000000000000000000000000000000005b835260048301612bf4565b03925af1918215610c5d57612dc694602093612e01575b50610bd9612daf610b9b6005610596565b91612db960405190565b9687948593849360e01b90565b03915afa8015610c5d576101ed92600091612de2575b506128c5565b612dfb915060203d602011610c8857610c7a81836109f6565b38612ddc565b612e1790843d8611610c8857610c7a81836109f6565b612d9e565b612d879391975060209492612d2c612e43612d3393883d8a11610c8857610c7a81836109f6565b9993955050929450612cba565b612e689060203d602011610c5657610c4b81836109f6565b612c5e565b612ea961024c94612e99606094989795612e8f608086019a6000870190610625565b6020850190610625565b6001600160a01b03166040830152565b019065ffffffffffff169052565b6101ed6008610d91565b612ed7612ed16101ed9260ff1690565b60f81b90565b7fff000000000000000000000000000000000000000000000000000000000000001690565b67ffffffffffffffff8111610a185760208091020190565b90610a60610a5b83612efc565b369037565b9061024c612f3c612f3684612f14565b93612efc565b601f190160208401612f21565b634e487b7160e01b600052603260045260246000fd5b90612f68825190565b811015612f79576020809102010190565b612f49565b60005b828110612f8d57505050565b606082820152602001612f81565b9061024c612fab612f3684612f14565b601f190160208401612f7e565b906109dc81602093610625565b90612fe5612fde612fd4845190565b8084529260200190565b9260200190565b9060005b818110612ff65750505090565b9091926130106130096001928651612fb8565b9460200190565b929101612fe9565b61024c9461304c8298979561304560809661303e61305997600060a08901980190610625565b60208c0152565b60408a0152565b8782036060890152612fc5565b94019015159052565b60005b8381106130755750506000910152565b8181015183820152602001613065565b6130a66130af6020936109dc9361309a815190565b80835293849260200190565b95869101613062565b601f01601f191690565b906101ed91613085565b906130d96130cf835190565b8083529160200190565b90816130eb6020830284019460200190565b926000915b8383106130ff57505050505090565b9091929394602061312261311b838560019503875289516130b9565b9760200190565b93019301919392906130f0565b60408082526101ed93919261314691840190613085565b9160208184039101526130c3565b91613162610b9b6003610596565b61316f610b9b6001610596565b90803b156101a75765ffffffffffff6000916001600160a01b03836131cb9561319760405190565b968795869485937f87517c450000000000000000000000000000000000000000000000000000000085528d60048601612e6d565b03925af18015610c5d57613497575b506132196020836131ed610b9b87610226565b6131fa610b9b6001610596565b600061320560405190565b809681958294612c4463a9059cbb60e01b90565b03925af18015610c5d5761347a575b5061324161323c613237612eb7565b611d70565b612ec1565b61329161324d60405190565b80926132856020830191826109dc816001937fff00000000000000000000000000000000000000000000000000000000000000169052565b908103825203826109f6565b6132a361329e6002610d91565b612f26565b6132c06000956132bb6132b588610d91565b84612f5f565b610c98565b6132e57342000000000000000000000000000000000000066132bb6132b56001610d91565b6133216132fa6132f56001610d91565b612f9b565b9361330430610226565b956132858861331260405190565b95869460208601948b86613018565b61332d6132b586610d91565b5261334061333a85610d91565b83612f5f565b5061334e610b9b6005610596565b926370a0823191602061336060405190565b809661336c8660e01b90565b8252818061337d8760048301610787565b03915afa948515610c5d578695613459575b5061339d610b9b6001610596565b93843b156101a7576133d4948792836133b560405190565b8098819582946133c96324856bc360e01b90565b84526004840161312f565b03925af1918215610c5d576134139360209361342d575b50610bd96133fc610b9b6005610596565b9161340660405190565b9586948593849360e01b90565b03915afa908115610c5d576101ed9391612de257506128c5565b61344c90873d8911613452575b61344481836109f6565b8101906101ac565b386133eb565b503d61343a565b61347391955060203d602011610c8857610c7a81836109f6565b933861338f565b6134929060203d602011610c5657610c4b81836109f6565b613228565b6134a790600061344481836109f6565b386131da565b9291734200000000000000000000000000000000000006936134d7602084612c18610b9b89610226565b03925af18015610c5d57613634575b506134f3610b9b82610226565b906370a082319561350330610226565b9361350d60405190565b956135188960e01b90565b87526020878061352b8960048301610787565b0381885afa968715610c5d576000976135f9575b509161357e60209492612d2c6135bb9561357160009b9c612d0c613565610b9b8f610596565b98612d04612cfd612b7f565b612d258a60608701610c98565b61358a612d3f88610d7b565b60405196879384928391907f04e45aaf00000000000000000000000000000000000000000000000000000000612d7c565b03925af18015610c5d57612dc695602094610bd9926135de575b50604051612db9565b6135f490863d8811610c8857610c7a81836109f6565b6135d5565b6000975060209492612d2c6135bb959361357161362561357e958a3d8c11610c8857610c7a81836109f6565b9b50509395505092945061353f565b61364c9060203d602011610c5657610c4b81836109f6565b6134e6565b906127666020613664610b9b6004610596565b937342000000000000000000000000000000000000069461368460405190565b938492839182917fe6a439050000000000000000000000000000000000000000000000000000000083528960048401612692565b906136c6610b9b6003610596565b92734200000000000000000000000000000000000006936136ea610b9b6001610596565b90803b156101a7576001600160a01b0360009165ffffffffffff93838961374661371360405190565b978896879586947f87517c4500000000000000000000000000000000000000000000000000000000865260048601612e6d565b03925af18015610c5d5761394d575b506137686020836131ed610b9b88610226565b03925af18015610c5d57613930575b50613869610b9b61378c61323c613237612eb7565b946137dd61379960405190565b80976137d16020830191826109dc816001937fff00000000000000000000000000000000000000000000000000000000000000169052565b908103825203876109f6565b6137ea61329e6002610d91565b6137fc6000986132bb6132b58b610d91565b61380d826132bb6132b56001610d91565b61384461381d6132f56001610d91565b9561382730610226565b976132858b61383560405190565b95869460208601948d86613018565b61385661385089610d91565b86612f5f565b5261278161386388610d91565b85612f5f565b916370a082319261387960405190565b946138848560e01b90565b8652602086806138978660048301610787565b0381855afa958615610c5d57879661390f575b506138b8610b9b6001610596565b93843b156101a7576138d0948892836133b560405190565b03925af18015610c5d5761341394602094610bd9926138f3575b50604051613406565b61390990893d8b116134525761344481836109f6565b386138ea565b61392991965060203d602011610c8857610c7a81836109f6565b94386138aa565b6139489060203d602011610c5657610c4b81836109f6565b613777565b61395d90600061344481836109f6565b3861375556fea26469706673582212202c7b938cbd1f2226b679fb69be97b585c0b3edc2c1f2df96ca682a6528f6332f64736f6c63430008180033",
          "opcodes": "PUSH1 0x80 PUSH1 0x40 MSTORE CALLVALUE PUSH3 0x34 JUMPI PUSH3 0x22 PUSH3 0x18 PUSH3 0x117 JUMP JUMPDEST SWAP4 SWAP3 SWAP1 SWAP3 PUSH3 0x1D9 JUMP JUMPDEST PUSH1 0x40 MLOAD PUSH2 0x3999 PUSH3 0x3C1 DUP3 CODECOPY PUSH2 0x3999 SWAP1 RETURN JUMPDEST PUSH1 0x0 DUP1 REVERT JUMPDEST PUSH4 0x4E487B71 PUSH1 0xE0 SHL PUSH1 0x0 MSTORE PUSH1 0x41 PUSH1 0x4 MSTORE PUSH1 0x24 PUSH1 0x0 REVERT JUMPDEST SWAP1 PUSH1 0x1F ADD PUSH1 0x1F NOT AND DUP2 ADD SWAP1 DUP2 LT PUSH1 0x1 PUSH1 0x1 PUSH1 0x40 SHL SUB DUP3 GT OR PUSH3 0x71 JUMPI PUSH1 0x40 MSTORE JUMP JUMPDEST PUSH3 0x39 JUMP JUMPDEST SWAP1 PUSH3 0x8E PUSH3 0x86 PUSH1 0x40 MLOAD SWAP1 JUMP JUMPDEST SWAP3 DUP4 PUSH3 0x4F JUMP JUMPDEST JUMP JUMPDEST PUSH1 0x1 PUSH1 0x1 PUSH1 0xA0 SHL SUB AND SWAP1 JUMP JUMPDEST SWAP1 JUMP JUMPDEST PUSH1 0x1 PUSH1 0x1 PUSH1 0xA0 SHL SUB DUP2 AND SUB PUSH3 0x34 JUMPI JUMP JUMPDEST SWAP1 POP MLOAD SWAP1 PUSH3 0x8E DUP3 PUSH3 0x9F JUMP JUMPDEST SWAP2 SWAP1 PUSH1 0xA0 DUP4 DUP3 SUB SLT PUSH3 0x34 JUMPI PUSH3 0xD9 DUP2 DUP5 PUSH3 0xB1 JUMP JUMPDEST SWAP3 PUSH3 0xE9 DUP3 PUSH1 0x20 DUP4 ADD PUSH3 0xB1 JUMP JUMPDEST SWAP3 PUSH3 0x9C PUSH3 0xFD DUP5 PUSH1 0x40 DUP6 ADD PUSH3 0xB1 JUMP JUMPDEST SWAP4 PUSH1 0x80 PUSH3 0x10F DUP3 PUSH1 0x60 DUP8 ADD PUSH3 0xB1 JUMP JUMPDEST SWAP5 ADD PUSH3 0xB1 JUMP JUMPDEST PUSH3 0x13A PUSH3 0x3D5A DUP1 CODESIZE SUB DUP1 PUSH3 0x12E DUP2 PUSH3 0x77 JUMP JUMPDEST SWAP3 DUP4 CODECOPY DUP2 ADD SWAP1 PUSH3 0xC0 JUMP JUMPDEST SWAP1 SWAP2 SWAP3 SWAP4 SWAP5 JUMP JUMPDEST SWAP1 PUSH1 0x0 NOT SWAP1 JUMPDEST SWAP2 DUP2 NOT AND SWAP2 AND OR SWAP1 JUMP JUMPDEST PUSH3 0x9C PUSH3 0x9C PUSH3 0x9C SWAP3 SWAP1 JUMP JUMPDEST SWAP1 PUSH3 0x175 PUSH3 0x9C PUSH3 0x17D SWAP3 PUSH3 0x151 JUMP JUMPDEST DUP3 SLOAD PUSH3 0x141 JUMP JUMPDEST SWAP1 SSTORE JUMP JUMPDEST SWAP1 PUSH1 0x1 PUSH1 0x1 PUSH1 0xA0 SHL SUB SWAP1 PUSH3 0x147 JUMP JUMPDEST PUSH3 0x9C SWAP1 PUSH3 0x90 SWAP1 PUSH1 0x1 PUSH1 0x1 PUSH1 0xA0 SHL SUB AND DUP3 JUMP JUMPDEST PUSH3 0x9C SWAP1 PUSH3 0x191 JUMP JUMPDEST PUSH3 0x9C SWAP1 PUSH3 0x1A7 JUMP JUMPDEST SWAP1 PUSH3 0x1D1 PUSH3 0x9C PUSH3 0x17D SWAP3 PUSH3 0x1B2 JUMP JUMPDEST DUP3 SLOAD PUSH3 0x181 JUMP JUMPDEST SWAP3 PUSH3 0x1EC SWAP3 PUSH3 0x8E SWAP6 SWAP3 CALLER PUSH3 0x244 JUMP JUMPDEST PUSH3 0x1FA PUSH1 0x5 PUSH1 0xB PUSH3 0x161 JUMP JUMPDEST PUSH3 0x20E PUSH7 0x11C37937E08000 PUSH1 0xC PUSH3 0x161 JUMP JUMPDEST PUSH1 0xA PUSH3 0x1BD JUMP JUMPDEST PUSH3 0x90 PUSH3 0x9C PUSH3 0x9C SWAP3 SWAP1 JUMP JUMPDEST PUSH3 0x9C SWAP1 PUSH3 0x216 JUMP JUMPDEST PUSH1 0x1 PUSH1 0x1 PUSH1 0xA0 SHL SUB SWAP1 SWAP2 AND DUP2 MSTORE PUSH1 0x20 ADD SWAP1 JUMP JUMPDEST SWAP4 SWAP2 PUSH3 0x252 SWAP4 SWAP2 PUSH3 0x2AE JUMP JUMPDEST PUSH3 0x25E PUSH1 0x0 PUSH3 0x226 JUMP JUMPDEST PUSH1 0x1 PUSH1 0x1 PUSH1 0xA0 SHL SUB DUP2 AND PUSH1 0x1 PUSH1 0x1 PUSH1 0xA0 SHL SUB DUP4 AND EQ PUSH3 0x284 JUMPI POP PUSH3 0x8E SWAP1 PUSH3 0x366 JUMP JUMPDEST PUSH3 0x2AA SWAP1 PUSH3 0x293 PUSH1 0x40 MLOAD SWAP1 JUMP JUMPDEST PUSH4 0x1E4FBDF7 PUSH1 0xE0 SHL DUP2 MSTORE SWAP2 DUP3 SWAP2 PUSH1 0x4 DUP4 ADD PUSH3 0x231 JUMP JUMPDEST SUB SWAP1 REVERT JUMPDEST SWAP1 PUSH3 0x8E SWAP4 SWAP3 SWAP2 PUSH3 0x33F PUSH3 0x347 SWAP4 PUSH3 0x31C PUSH3 0x314 PUSH3 0x8E SWAP8 SWAP6 PUSH3 0x2FE PUSH3 0x30C PUSH3 0x2FE SWAP8 PUSH3 0x2FE PUSH3 0x304 PUSH3 0x2FE PUSH20 0x4200000000000000000000000000000000000006 SWAP1 JUMP JUMPDEST PUSH3 0x1B2 JUMP JUMPDEST PUSH1 0x5 PUSH3 0x1BD JUMP JUMPDEST PUSH1 0x0 PUSH3 0x1BD JUMP JUMPDEST PUSH1 0x1 PUSH3 0x1BD JUMP JUMPDEST PUSH3 0x2FE PUSH3 0x337 PUSH15 0x22D473030F116DDEE9F6B43AC78BA3 DUP3 JUMP JUMPDEST PUSH1 0x3 PUSH3 0x1BD JUMP JUMPDEST PUSH1 0x2 PUSH3 0x1BD JUMP JUMPDEST PUSH1 0x4 PUSH3 0x1BD JUMP JUMPDEST PUSH3 0x9C SWAP1 PUSH3 0x90 JUMP JUMPDEST PUSH3 0x9C SWAP1 SLOAD PUSH3 0x34F JUMP JUMPDEST PUSH3 0x38E PUSH3 0x387 PUSH3 0x37A PUSH1 0x6 PUSH3 0x35A JUMP JUMPDEST PUSH3 0x2FE DUP5 PUSH1 0x6 PUSH3 0x1BD JUMP JUMPDEST SWAP2 PUSH3 0x1B2 JUMP JUMPDEST SWAP1 PUSH32 0x8BE0079C531659141344CD1FD0A4F28419497F9722A3DAAFE3B4186F6B6457E0 PUSH3 0x3BA PUSH1 0x40 MLOAD SWAP1 JUMP JUMPDEST PUSH1 0x0 SWAP1 LOG3 JUMP INVALID PUSH1 0x80 PUSH1 0x40 MSTORE PUSH1 0x4 CALLDATASIZE LT ISZERO PUSH2 0x12 JUMPI PUSH1 0x0 DUP1 REVERT JUMPDEST PUSH1 0x0 CALLDATALOAD PUSH1 0xE0 SHR DUP1 PUSH4 0x614117A EQ PUSH2 0x1A2 JUMPI DUP1 PUSH4 0x12261EE7 EQ PUSH2 0x19D JUMPI DUP1 PUSH4 0x152C8297 EQ PUSH2 0x198 JUMPI DUP1 PUSH4 0x16114ACD EQ PUSH2 0x193 JUMPI DUP1 PUSH4 0x332CCBA9 EQ PUSH2 0x18E JUMPI DUP1 PUSH4 0x35A9E4DF EQ PUSH2 0x189 JUMPI DUP1 PUSH4 0x3FC8CEF3 EQ PUSH2 0x184 JUMPI DUP1 PUSH4 0x49A2104D EQ PUSH2 0x17F JUMPI DUP1 PUSH4 0x4C6B25B1 EQ PUSH2 0x17A JUMPI DUP1 PUSH4 0x5F6D73BD EQ PUSH2 0x175 JUMPI DUP1 PUSH4 0x68E0D4E1 EQ PUSH2 0x170 JUMPI DUP1 PUSH4 0x6AFDD850 EQ PUSH2 0x16B JUMPI DUP1 PUSH4 0x715018A6 EQ PUSH2 0x166 JUMPI DUP1 PUSH4 0x8DA5CB5B EQ PUSH2 0x161 JUMPI DUP1 PUSH4 0xAD5C4648 EQ PUSH2 0x15C JUMPI DUP1 PUSH4 0xB1827330 EQ PUSH2 0x157 JUMPI DUP1 PUSH4 0xB7D86225 EQ PUSH2 0x152 JUMPI DUP1 PUSH4 0xB936C783 EQ PUSH2 0x14D JUMPI DUP1 PUSH4 0xC6BBD5A7 EQ PUSH2 0x148 JUMPI DUP1 PUSH4 0xEF95F733 EQ PUSH2 0x143 JUMPI DUP1 PUSH4 0xF0EDC7B3 EQ PUSH2 0x13E JUMPI DUP1 PUSH4 0xF2FDE38B EQ PUSH2 0x139 JUMPI DUP1 PUSH4 0xF6C4C1F2 EQ PUSH2 0x134 JUMPI DUP1 PUSH4 0xF887EA40 EQ PUSH2 0x12F JUMPI PUSH4 0xFEF0BEC8 SUB PUSH2 0x1A7 JUMPI PUSH2 0x9B4 JUMP JUMPDEST PUSH2 0x999 JUMP JUMPDEST PUSH2 0x976 JUMP JUMPDEST PUSH2 0x95E JUMP JUMPDEST PUSH2 0x942 JUMP JUMPDEST PUSH2 0x8F1 JUMP JUMPDEST PUSH2 0x88B JUMP JUMPDEST PUSH2 0x866 JUMP JUMPDEST PUSH2 0x84E JUMP JUMPDEST PUSH2 0x833 JUMP JUMPDEST PUSH2 0x7FA JUMP JUMPDEST PUSH2 0x7DF JUMP JUMPDEST PUSH2 0x7C7 JUMP JUMPDEST PUSH2 0x797 JUMP JUMPDEST PUSH2 0x76C JUMP JUMPDEST PUSH2 0x746 JUMP JUMPDEST PUSH2 0x67B JUMP JUMPDEST PUSH2 0x55B JUMP JUMPDEST PUSH2 0x51E JUMP JUMPDEST PUSH2 0x4F7 JUMP JUMPDEST PUSH2 0x4D3 JUMP JUMPDEST PUSH2 0x494 JUMP JUMPDEST PUSH2 0x445 JUMP JUMPDEST PUSH2 0x24E JUMP JUMPDEST PUSH2 0x1B7 JUMP JUMPDEST PUSH1 0x0 DUP1 REVERT JUMPDEST PUSH1 0x0 SWAP2 SUB SLT PUSH2 0x1A7 JUMPI JUMP JUMPDEST CALLVALUE PUSH2 0x1A7 JUMPI PUSH2 0x1C7 CALLDATASIZE PUSH1 0x4 PUSH2 0x1AC JUMP JUMPDEST PUSH2 0x1CF PUSH2 0xB01 JUMP JUMPDEST PUSH1 0x40 MLOAD STOP JUMPDEST SUB SWAP1 RETURN JUMPDEST PUSH2 0x1ED SWAP2 PUSH1 0x8 MUL SHR JUMPDEST PUSH1 0x1 PUSH1 0x1 PUSH1 0xA0 SHL SUB AND SWAP1 JUMP JUMPDEST SWAP1 JUMP JUMPDEST SWAP1 PUSH2 0x1ED SWAP2 SLOAD PUSH2 0x1D8 JUMP JUMPDEST PUSH2 0x1ED PUSH1 0x0 PUSH1 0x3 PUSH2 0x1F0 JUMP JUMPDEST PUSH2 0x1E1 PUSH2 0x1ED PUSH2 0x1ED SWAP3 PUSH1 0x1 PUSH1 0x1 PUSH1 0xA0 SHL SUB AND SWAP1 JUMP JUMPDEST PUSH2 0x1ED SWAP1 PUSH2 0x207 JUMP JUMPDEST PUSH2 0x1ED SWAP1 PUSH2 0x21D JUMP JUMPDEST PUSH2 0x238 SWAP1 PUSH2 0x226 JUMP JUMPDEST SWAP1 MSTORE JUMP JUMPDEST PUSH1 0x20 DUP2 ADD SWAP3 SWAP2 PUSH2 0x24C SWAP2 SWAP1 PUSH2 0x22F JUMP JUMPDEST JUMP JUMPDEST CALLVALUE PUSH2 0x1A7 JUMPI PUSH2 0x25E CALLDATASIZE PUSH1 0x4 PUSH2 0x1AC JUMP JUMPDEST PUSH2 0x1D4 PUSH2 0x269 PUSH2 0x1FB JUMP JUMPDEST PUSH1 0x40 MLOAD SWAP2 DUP3 SWAP2 DUP3 PUSH2 0x23C JUMP JUMPDEST PUSH2 0x27E DUP2 PUSH2 0x1E1 JUMP JUMPDEST SUB PUSH2 0x1A7 JUMPI JUMP JUMPDEST SWAP1 POP CALLDATALOAD SWAP1 PUSH2 0x24C DUP3 PUSH2 0x275 JUMP JUMPDEST SWAP2 SWAP1 PUSH1 0x40 DUP4 DUP3 SUB SLT PUSH2 0x1A7 JUMPI PUSH2 0x1ED SWAP1 PUSH1 0x20 PUSH2 0x2AE DUP3 DUP7 PUSH2 0x285 JUMP JUMPDEST SWAP5 ADD PUSH2 0x285 JUMP JUMPDEST SWAP1 PUSH2 0x2BF SWAP1 PUSH2 0x226 JUMP JUMPDEST PUSH1 0x0 MSTORE PUSH1 0x20 MSTORE PUSH1 0x40 PUSH1 0x0 KECCAK256 SWAP1 JUMP JUMPDEST PUSH2 0x1ED SWAP1 DUP2 JUMP JUMPDEST PUSH2 0x1ED SWAP1 SLOAD PUSH2 0x2CD JUMP JUMPDEST PUSH2 0x1ED SWAP1 JUMPDEST PUSH1 0xFF AND SWAP1 JUMP JUMPDEST PUSH2 0x1ED SWAP1 SLOAD PUSH2 0x2DE JUMP JUMPDEST PUSH2 0x1ED SWAP1 PUSH1 0x8 SHR PUSH2 0x2E3 JUMP JUMPDEST PUSH2 0x1ED SWAP1 SLOAD PUSH2 0x2F3 JUMP JUMPDEST PUSH2 0x1ED SWAP1 PUSH1 0x10 SHR JUMPDEST PUSH3 0xFFFFFF AND SWAP1 JUMP JUMPDEST PUSH2 0x1ED SWAP1 SLOAD PUSH2 0x309 JUMP JUMPDEST PUSH2 0x1ED SWAP1 PUSH1 0x28 SHR PUSH2 0x311 JUMP JUMPDEST PUSH2 0x1ED SWAP1 SLOAD PUSH2 0x323 JUMP JUMPDEST PUSH2 0x1ED SWAP1 PUSH1 0x40 SHR PUSH2 0x2E3 JUMP JUMPDEST PUSH2 0x1ED SWAP1 SLOAD PUSH2 0x339 JUMP JUMPDEST SWAP1 PUSH2 0x35E PUSH2 0x363 SWAP3 PUSH1 0x7 PUSH2 0x2B5 JUMP JUMPDEST PUSH2 0x2B5 JUMP JUMPDEST SWAP1 PUSH2 0x36D DUP3 PUSH2 0x2D4 JUMP JUMPDEST SWAP2 PUSH2 0x37A PUSH1 0x1 DUP3 ADD PUSH2 0x2D4 JUMP JUMPDEST SWAP2 PUSH2 0x387 PUSH1 0x2 DUP4 ADD PUSH2 0x2D4 JUMP JUMPDEST SWAP2 PUSH2 0x394 PUSH1 0x3 DUP3 ADD PUSH2 0x2D4 JUMP JUMPDEST SWAP2 PUSH2 0x3A1 PUSH1 0x4 DUP4 ADD PUSH2 0x2D4 JUMP JUMPDEST SWAP2 PUSH2 0x3AE PUSH1 0x5 DUP3 ADD PUSH2 0x2E9 JUMP JUMPDEST SWAP2 PUSH2 0x3BB PUSH1 0x5 DUP4 ADD PUSH2 0x2FF JUMP JUMPDEST SWAP2 PUSH2 0x3C8 PUSH1 0x5 DUP3 ADD PUSH2 0x319 JUMP JUMPDEST SWAP2 PUSH2 0x1ED PUSH1 0x5 PUSH2 0x3D9 DUP2 DUP6 ADD PUSH2 0x32F JUMP JUMPDEST SWAP4 ADD PUSH2 0x345 JUMP JUMPDEST SWAP8 SWAP6 SWAP4 SWAP2 SWAP11 SWAP10 SWAP9 SWAP7 SWAP5 SWAP3 SWAP1 SWAP11 PUSH2 0x140 DUP10 ADD SWAP12 PUSH1 0x0 DUP11 ADD PUSH2 0x3FE SWAP2 SWAP1 MSTORE JUMP JUMPDEST PUSH1 0x20 DUP10 ADD MSTORE PUSH1 0x40 DUP9 ADD MSTORE PUSH1 0x60 DUP8 ADD MSTORE PUSH1 0x80 DUP7 ADD MSTORE PUSH1 0xFF AND PUSH1 0xA0 DUP6 ADD MSTORE PUSH1 0xFF AND PUSH1 0xC0 DUP5 ADD MSTORE PUSH3 0xFFFFFF AND PUSH1 0xE0 DUP4 ADD MSTORE PUSH3 0xFFFFFF AND PUSH2 0x100 DUP3 ADD MSTORE PUSH2 0x120 ADD PUSH2 0x24C SWAP2 ISZERO ISZERO SWAP1 MSTORE JUMP JUMPDEST CALLVALUE PUSH2 0x1A7 JUMPI PUSH2 0x1D4 PUSH2 0x461 PUSH2 0x45B CALLDATASIZE PUSH1 0x4 PUSH2 0x292 JUMP JUMPDEST SWAP1 PUSH2 0x34F JUMP JUMPDEST SWAP7 PUSH2 0x477 SWAP11 SWAP9 SWAP11 SWAP7 SWAP2 SWAP7 SWAP6 SWAP3 SWAP6 SWAP5 SWAP4 SWAP5 PUSH1 0x40 MLOAD SWAP1 JUMP JUMPDEST SWAP11 DUP12 SWAP11 DUP12 PUSH2 0x3E0 JUMP JUMPDEST SWAP1 PUSH1 0x20 DUP3 DUP3 SUB SLT PUSH2 0x1A7 JUMPI PUSH2 0x1ED SWAP2 PUSH2 0x285 JUMP JUMPDEST CALLVALUE PUSH2 0x1A7 JUMPI PUSH2 0x1CF PUSH2 0x4A7 CALLDATASIZE PUSH1 0x4 PUSH2 0x480 JUMP JUMPDEST PUSH2 0xC8F JUMP JUMPDEST DUP1 PUSH2 0x27E JUMP JUMPDEST SWAP1 POP CALLDATALOAD SWAP1 PUSH2 0x24C DUP3 PUSH2 0x4AC JUMP JUMPDEST SWAP1 PUSH1 0x20 DUP3 DUP3 SUB SLT PUSH2 0x1A7 JUMPI PUSH2 0x1ED SWAP2 PUSH2 0x4B2 JUMP JUMPDEST CALLVALUE PUSH2 0x1A7 JUMPI PUSH2 0x1CF PUSH2 0x4E6 CALLDATASIZE PUSH1 0x4 PUSH2 0x4BF JUMP JUMPDEST PUSH2 0xE0F JUMP JUMPDEST PUSH2 0x1ED PUSH1 0x0 PUSH1 0x1 PUSH2 0x1F0 JUMP JUMPDEST CALLVALUE PUSH2 0x1A7 JUMPI PUSH2 0x507 CALLDATASIZE PUSH1 0x4 PUSH2 0x1AC JUMP JUMPDEST PUSH2 0x1D4 PUSH2 0x269 PUSH2 0x4EB JUMP JUMPDEST PUSH2 0x1ED PUSH1 0x0 PUSH1 0x5 PUSH2 0x1F0 JUMP JUMPDEST CALLVALUE PUSH2 0x1A7 JUMPI PUSH2 0x52E CALLDATASIZE PUSH1 0x4 PUSH2 0x1AC JUMP JUMPDEST PUSH2 0x1D4 PUSH2 0x269 PUSH2 0x512 JUMP JUMPDEST PUSH2 0x1ED SWAP2 PUSH1 0x8 MUL SHR DUP2 JUMP JUMPDEST SWAP1 PUSH2 0x1ED SWAP2 SLOAD PUSH2 0x539 JUMP JUMPDEST PUSH2 0x1ED PUSH1 0x0 PUSH1 0xC PUSH2 0x544 JUMP JUMPDEST CALLVALUE PUSH2 0x1A7 JUMPI PUSH2 0x56B CALLDATASIZE PUSH1 0x4 PUSH2 0x1AC JUMP JUMPDEST PUSH2 0x1D4 PUSH2 0x576 PUSH2 0x54F JUMP JUMPDEST PUSH1 0x40 MLOAD JUMPDEST SWAP2 DUP3 SWAP2 DUP3 SWAP1 DUP2 MSTORE PUSH1 0x20 ADD SWAP1 JUMP JUMPDEST SWAP1 PUSH2 0x2BF JUMP JUMPDEST PUSH2 0x1ED SWAP1 PUSH2 0x1E1 JUMP JUMPDEST PUSH2 0x1ED SWAP1 SLOAD PUSH2 0x58D JUMP JUMPDEST PUSH2 0x1ED SWAP1 PUSH1 0x10 SHR PUSH2 0x1E1 JUMP JUMPDEST PUSH2 0x1ED SWAP1 SLOAD PUSH2 0x5A0 JUMP JUMPDEST PUSH2 0x5C1 SWAP1 PUSH1 0x9 PUSH2 0x587 JUMP JUMPDEST SWAP1 PUSH2 0x5CB DUP3 PUSH2 0x596 JUMP JUMPDEST SWAP2 PUSH2 0x5D8 PUSH1 0x1 DUP3 ADD PUSH2 0x2D4 JUMP JUMPDEST SWAP2 PUSH2 0x5E5 PUSH1 0x2 DUP4 ADD PUSH2 0x2D4 JUMP JUMPDEST SWAP2 PUSH2 0x5F2 PUSH1 0x3 DUP3 ADD PUSH2 0x2D4 JUMP JUMPDEST SWAP2 PUSH2 0x5FF PUSH1 0x4 DUP4 ADD PUSH2 0x2E9 JUMP JUMPDEST SWAP2 PUSH2 0x60C PUSH1 0x4 DUP3 ADD PUSH2 0x2FF JUMP JUMPDEST SWAP2 PUSH2 0x1ED PUSH1 0x5 PUSH2 0x61E PUSH1 0x4 DUP6 ADD PUSH2 0x5AC JUMP JUMPDEST SWAP4 ADD PUSH2 0x2D4 JUMP JUMPDEST PUSH2 0x238 SWAP1 PUSH2 0x1E1 JUMP JUMPDEST SWAP6 SWAP4 SWAP2 SWAP9 SWAP8 SWAP7 SWAP5 SWAP3 SWAP1 SWAP9 PUSH2 0x100 DUP8 ADD SWAP10 PUSH1 0x0 DUP9 ADD PUSH2 0x64B SWAP2 PUSH2 0x625 JUMP JUMPDEST PUSH1 0x20 DUP8 ADD MSTORE PUSH1 0x40 DUP7 ADD MSTORE PUSH1 0x60 DUP6 ADD MSTORE ISZERO ISZERO PUSH1 0x80 DUP5 ADD MSTORE ISZERO ISZERO PUSH1 0xA0 DUP4 ADD MSTORE PUSH1 0xC0 DUP3 ADD PUSH2 0x675 SWAP2 PUSH2 0x625 JUMP JUMPDEST PUSH1 0xE0 ADD MSTORE JUMP JUMPDEST CALLVALUE PUSH2 0x1A7 JUMPI PUSH2 0x1D4 PUSH2 0x696 PUSH2 0x691 CALLDATASIZE PUSH1 0x4 PUSH2 0x4BF JUMP JUMPDEST PUSH2 0x5B6 JUMP JUMPDEST SWAP5 PUSH2 0x6A9 SWAP9 SWAP7 SWAP9 SWAP5 SWAP2 SWAP5 SWAP4 SWAP3 SWAP4 PUSH1 0x40 MLOAD SWAP1 JUMP JUMPDEST SWAP9 DUP10 SWAP9 DUP10 PUSH2 0x62E JUMP JUMPDEST PUSH1 0xFF DUP2 AND PUSH2 0x27E JUMP JUMPDEST SWAP1 POP CALLDATALOAD SWAP1 PUSH2 0x24C DUP3 PUSH2 0x6B2 JUMP JUMPDEST PUSH3 0xFFFFFF DUP2 AND PUSH2 0x27E JUMP JUMPDEST SWAP1 POP CALLDATALOAD SWAP1 PUSH2 0x24C DUP3 PUSH2 0x6C8 JUMP JUMPDEST PUSH1 0xE0 DUP2 DUP4 SUB SLT PUSH2 0x1A7 JUMPI PUSH2 0x6F4 DUP3 DUP3 PUSH2 0x285 JUMP JUMPDEST SWAP3 PUSH2 0x702 DUP4 PUSH1 0x20 DUP5 ADD PUSH2 0x285 JUMP JUMPDEST SWAP3 PUSH2 0x710 DUP2 PUSH1 0x40 DUP6 ADD PUSH2 0x6BB JUMP JUMPDEST SWAP3 PUSH2 0x71E DUP3 PUSH1 0x60 DUP4 ADD PUSH2 0x6BB JUMP JUMPDEST SWAP3 PUSH2 0x1ED PUSH2 0x72F DUP5 PUSH1 0x80 DUP6 ADD PUSH2 0x6D3 JUMP JUMPDEST SWAP4 PUSH1 0xC0 PUSH2 0x73F DUP3 PUSH1 0xA0 DUP8 ADD PUSH2 0x6D3 JUMP JUMPDEST SWAP5 ADD PUSH2 0x4B2 JUMP JUMPDEST PUSH2 0x1CF PUSH2 0x754 CALLDATASIZE PUSH1 0x4 PUSH2 0x6E0 JUMP JUMPDEST SWAP6 SWAP5 SWAP1 SWAP5 SWAP4 SWAP2 SWAP4 PUSH2 0x1436 JUMP JUMPDEST PUSH2 0x1ED PUSH1 0x0 PUSH1 0x4 PUSH2 0x1F0 JUMP JUMPDEST CALLVALUE PUSH2 0x1A7 JUMPI PUSH2 0x77C CALLDATASIZE PUSH1 0x4 PUSH2 0x1AC JUMP JUMPDEST PUSH2 0x1D4 PUSH2 0x269 PUSH2 0x760 JUMP JUMPDEST PUSH1 0x20 DUP2 ADD SWAP3 SWAP2 PUSH2 0x24C SWAP2 SWAP1 PUSH2 0x625 JUMP JUMPDEST CALLVALUE PUSH2 0x1A7 JUMPI PUSH2 0x7A7 CALLDATASIZE PUSH1 0x4 PUSH2 0x1AC JUMP JUMPDEST PUSH2 0x1D4 PUSH15 0x22D473030F116DDEE9F6B43AC78BA3 JUMPDEST PUSH1 0x40 MLOAD SWAP2 DUP3 SWAP2 DUP3 PUSH2 0x787 JUMP JUMPDEST CALLVALUE PUSH2 0x1A7 JUMPI PUSH2 0x7D7 CALLDATASIZE PUSH1 0x4 PUSH2 0x1AC JUMP JUMPDEST PUSH2 0x1CF PUSH2 0x171D JUMP JUMPDEST CALLVALUE PUSH2 0x1A7 JUMPI PUSH2 0x7EF CALLDATASIZE PUSH1 0x4 PUSH2 0x1AC JUMP JUMPDEST PUSH2 0x1D4 PUSH2 0x7BB PUSH2 0x1725 JUMP JUMPDEST CALLVALUE PUSH2 0x1A7 JUMPI PUSH2 0x80A CALLDATASIZE PUSH1 0x4 PUSH2 0x1AC JUMP JUMPDEST PUSH2 0x1D4 PUSH20 0x4200000000000000000000000000000000000006 PUSH2 0x7BB JUMP JUMPDEST PUSH2 0x1ED PUSH1 0x0 PUSH1 0xB PUSH2 0x544 JUMP JUMPDEST CALLVALUE PUSH2 0x1A7 JUMPI PUSH2 0x843 CALLDATASIZE PUSH1 0x4 PUSH2 0x1AC JUMP JUMPDEST PUSH2 0x1D4 PUSH2 0x576 PUSH2 0x827 JUMP JUMPDEST CALLVALUE PUSH2 0x1A7 JUMPI PUSH2 0x1CF PUSH2 0x861 CALLDATASIZE PUSH1 0x4 PUSH2 0x4BF JUMP JUMPDEST PUSH2 0x1746 JUMP JUMPDEST CALLVALUE PUSH2 0x1A7 JUMPI PUSH2 0x1CF PUSH2 0x879 CALLDATASIZE PUSH1 0x4 PUSH2 0x292 JUMP JUMPDEST SWAP1 PUSH2 0x174F JUMP JUMPDEST PUSH2 0x1ED PUSH1 0x0 PUSH1 0x2 PUSH2 0x1F0 JUMP JUMPDEST CALLVALUE PUSH2 0x1A7 JUMPI PUSH2 0x89B CALLDATASIZE PUSH1 0x4 PUSH2 0x1AC JUMP JUMPDEST PUSH2 0x1D4 PUSH2 0x269 PUSH2 0x87F JUMP JUMPDEST SWAP1 SWAP2 PUSH1 0x60 DUP3 DUP5 SUB SLT PUSH2 0x1A7 JUMPI PUSH2 0x1ED PUSH2 0x8BF DUP5 DUP5 PUSH2 0x285 JUMP JUMPDEST SWAP4 PUSH1 0x40 PUSH2 0x2AE DUP3 PUSH1 0x20 DUP8 ADD PUSH2 0x4B2 JUMP JUMPDEST PUSH2 0x1ED SWAP3 PUSH2 0x35E PUSH1 0x0 SWAP4 PUSH2 0x8E7 PUSH2 0x8EC SWAP5 PUSH1 0x8 PUSH2 0x2B5 JUMP JUMPDEST PUSH2 0x587 JUMP JUMPDEST PUSH2 0x544 JUMP JUMPDEST CALLVALUE PUSH2 0x1A7 JUMPI PUSH2 0x1D4 PUSH2 0x576 PUSH2 0x907 CALLDATASIZE PUSH1 0x4 PUSH2 0x8A6 JUMP JUMPDEST SWAP2 PUSH2 0x8CF JUMP JUMPDEST PUSH1 0x80 DUP2 DUP4 SUB SLT PUSH2 0x1A7 JUMPI PUSH2 0x921 DUP3 DUP3 PUSH2 0x285 JUMP JUMPDEST SWAP3 PUSH2 0x1ED PUSH2 0x932 DUP5 PUSH1 0x20 DUP6 ADD PUSH2 0x285 JUMP JUMPDEST SWAP4 PUSH1 0x60 PUSH2 0x2AE DUP3 PUSH1 0x40 DUP8 ADD PUSH2 0x4B2 JUMP JUMPDEST CALLVALUE PUSH2 0x1A7 JUMPI PUSH2 0x1CF PUSH2 0x955 CALLDATASIZE PUSH1 0x4 PUSH2 0x90D JUMP JUMPDEST SWAP3 SWAP2 SWAP1 SWAP2 PUSH2 0x18D1 JUMP JUMPDEST CALLVALUE PUSH2 0x1A7 JUMPI PUSH2 0x1CF PUSH2 0x971 CALLDATASIZE PUSH1 0x4 PUSH2 0x480 JUMP JUMPDEST PUSH2 0x1B85 JUMP JUMPDEST CALLVALUE PUSH2 0x1A7 JUMPI PUSH2 0x1CF PUSH2 0x989 CALLDATASIZE PUSH1 0x4 PUSH2 0x480 JUMP JUMPDEST PUSH2 0x1BD0 JUMP JUMPDEST PUSH2 0x1ED PUSH1 0x0 DUP1 PUSH2 0x1F0 JUMP JUMPDEST CALLVALUE PUSH2 0x1A7 JUMPI PUSH2 0x9A9 CALLDATASIZE PUSH1 0x4 PUSH2 0x1AC JUMP JUMPDEST PUSH2 0x1D4 PUSH2 0x269 PUSH2 0x98E JUMP JUMPDEST CALLVALUE PUSH2 0x1A7 JUMPI PUSH2 0x1CF PUSH2 0x9C7 CALLDATASIZE PUSH1 0x4 PUSH2 0x4BF JUMP JUMPDEST PUSH2 0x1BF0 JUMP JUMPDEST PUSH2 0x9D4 PUSH2 0x1BF9 JUMP JUMPDEST PUSH2 0x24C PUSH2 0xAD4 JUMP JUMPDEST ADD SWAP1 JUMP JUMPDEST PUSH4 0x4E487B71 PUSH1 0xE0 SHL PUSH1 0x0 MSTORE PUSH1 0x41 PUSH1 0x4 MSTORE PUSH1 0x24 PUSH1 0x0 REVERT JUMPDEST SWAP1 PUSH1 0x1F ADD PUSH1 0x1F NOT AND DUP2 ADD SWAP1 DUP2 LT PUSH8 0xFFFFFFFFFFFFFFFF DUP3 GT OR PUSH2 0xA18 JUMPI PUSH1 0x40 MSTORE JUMP JUMPDEST PUSH2 0x9E0 JUMP JUMPDEST SWAP1 PUSH2 0x24C PUSH2 0xA2A PUSH1 0x40 MLOAD SWAP1 JUMP JUMPDEST SWAP3 DUP4 PUSH2 0x9F6 JUMP JUMPDEST PUSH8 0xFFFFFFFFFFFFFFFF DUP2 GT PUSH2 0xA18 JUMPI PUSH1 0x20 SWAP1 PUSH1 0x1F ADD PUSH1 0x1F NOT AND ADD SWAP1 JUMP JUMPDEST SWAP1 PUSH2 0xA60 PUSH2 0xA5B DUP4 PUSH2 0xA31 JUMP JUMPDEST PUSH2 0xA1D JUMP JUMPDEST SWAP2 DUP3 MSTORE JUMP JUMPDEST RETURNDATASIZE ISZERO PUSH2 0xA7F JUMPI PUSH2 0xA74 RETURNDATASIZE PUSH2 0xA4E JUMP JUMPDEST SWAP1 RETURNDATASIZE PUSH1 0x0 PUSH1 0x20 DUP5 ADD RETURNDATACOPY JUMP JUMPDEST PUSH1 0x60 SWAP1 JUMP JUMPDEST ISZERO PUSH2 0xA8B JUMPI JUMP JUMPDEST PUSH1 0x40 MLOAD PUSH3 0x461BCD PUSH1 0xE5 SHL DUP2 MSTORE PUSH1 0x20 PUSH1 0x4 DUP3 ADD MSTORE PUSH1 0x10 PUSH1 0x24 DUP3 ADD MSTORE PUSH32 0x5472616E73666572206661696C65642E00000000000000000000000000000000 PUSH1 0x44 DUP3 ADD MSTORE PUSH1 0x64 SWAP1 REVERT JUMPDEST SUB SWAP1 REVERT JUMPDEST PUSH2 0x24C PUSH1 0x0 DUP1 PUSH2 0xAE3 ADDRESS PUSH2 0x226 JUMP JUMPDEST BALANCE PUSH2 0xAED PUSH1 0x40 MLOAD SWAP1 JUMP JUMPDEST PUSH1 0x0 SWAP2 CALLER GAS CALL PUSH2 0xAFB PUSH2 0xA65 JUMP JUMPDEST POP PUSH2 0xA84 JUMP JUMPDEST PUSH2 0x24C PUSH2 0x9CC JUMP JUMPDEST PUSH2 0x24C SWAP1 PUSH2 0xB15 PUSH2 0x1BF9 JUMP JUMPDEST PUSH2 0xB8F JUMP JUMPDEST SWAP1 POP MLOAD SWAP1 PUSH2 0x24C DUP3 PUSH2 0x4AC JUMP JUMPDEST SWAP1 PUSH1 0x20 DUP3 DUP3 SUB SLT PUSH2 0x1A7 JUMPI PUSH2 0x1ED SWAP2 PUSH2 0xB1A JUMP JUMPDEST PUSH1 0x40 MLOAD RETURNDATASIZE PUSH1 0x0 DUP3 RETURNDATACOPY RETURNDATASIZE SWAP1 REVERT JUMPDEST DUP1 ISZERO ISZERO PUSH2 0x27E JUMP JUMPDEST SWAP1 POP MLOAD SWAP1 PUSH2 0x24C DUP3 PUSH2 0xB47 JUMP JUMPDEST SWAP1 PUSH1 0x20 DUP3 DUP3 SUB SLT PUSH2 0x1A7 JUMPI PUSH2 0x1ED SWAP2 PUSH2 0xB4F JUMP JUMPDEST SWAP2 PUSH1 0x20 PUSH2 0x24C SWAP3 SWAP5 SWAP4 PUSH2 0xB8B PUSH1 0x40 DUP3 ADD SWAP7 PUSH1 0x0 DUP4 ADD SWAP1 PUSH2 0x625 JUMP JUMPDEST ADD MSTORE JUMP JUMPDEST PUSH2 0xB9B PUSH2 0xBA0 SWAP2 PUSH2 0x226 JUMP JUMPDEST PUSH2 0x226 JUMP JUMPDEST PUSH2 0xBE4 PUSH1 0x20 PUSH2 0xBAE ADDRESS PUSH2 0x226 JUMP JUMPDEST PUSH1 0x40 MLOAD SWAP3 DUP4 SWAP2 DUP3 SWAP2 SWAP1 PUSH32 0x70A0823100000000000000000000000000000000000000000000000000000000 JUMPDEST DUP4 MSTORE PUSH1 0x4 DUP4 ADD PUSH2 0x787 JUMP JUMPDEST SUB DUP2 DUP6 GAS STATICCALL SWAP1 DUP2 ISZERO PUSH2 0xC5D JUMPI PUSH1 0x0 SWAP3 PUSH1 0x20 SWAP3 PUSH2 0xC21 SWAP3 DUP6 SWAP2 PUSH2 0xC62 JUMPI JUMPDEST POP PUSH1 0x40 MLOAD SWAP5 DUP6 SWAP4 DUP5 SWAP3 DUP4 SWAP2 SWAP1 PUSH4 0xA9059CBB PUSH1 0xE0 SHL DUP4 MSTORE CALLER PUSH1 0x4 DUP5 ADD PUSH2 0xB70 JUMP JUMPDEST SUB SWAP3 GAS CALL DUP1 ISZERO PUSH2 0xC5D JUMPI PUSH2 0xC32 JUMPI POP JUMP JUMPDEST PUSH2 0xC53 SWAP1 PUSH1 0x20 RETURNDATASIZE PUSH1 0x20 GT PUSH2 0xC56 JUMPI JUMPDEST PUSH2 0xC4B DUP2 DUP4 PUSH2 0x9F6 JUMP JUMPDEST DUP2 ADD SWAP1 PUSH2 0xB5C JUMP JUMPDEST POP JUMP JUMPDEST POP RETURNDATASIZE PUSH2 0xC41 JUMP JUMPDEST PUSH2 0xB3B JUMP JUMPDEST PUSH2 0xC82 SWAP2 POP DUP5 RETURNDATASIZE DUP7 GT PUSH2 0xC88 JUMPI JUMPDEST PUSH2 0xC7A DUP2 DUP4 PUSH2 0x9F6 JUMP JUMPDEST DUP2 ADD SWAP1 PUSH2 0xB27 JUMP JUMPDEST CODESIZE PUSH2 0xC01 JUMP JUMPDEST POP RETURNDATASIZE PUSH2 0xC70 JUMP JUMPDEST PUSH2 0x24C SWAP1 PUSH2 0xB09 JUMP JUMPDEST SWAP1 PUSH2 0x238 SWAP1 PUSH2 0x1E1 JUMP JUMPDEST PUSH2 0x1ED PUSH2 0x100 PUSH2 0xA1D JUMP JUMPDEST SWAP1 PUSH2 0x24C PUSH2 0xD61 PUSH1 0x5 PUSH2 0xCBE PUSH2 0xCA2 JUMP JUMPDEST SWAP5 PUSH2 0xCD1 PUSH2 0xCCB DUP3 PUSH2 0x596 JUMP JUMPDEST DUP8 PUSH2 0xC98 JUMP JUMPDEST PUSH2 0xCE7 PUSH2 0xCE0 PUSH1 0x1 DUP4 ADD PUSH2 0x2D4 JUMP JUMPDEST PUSH1 0x20 DUP9 ADD MSTORE JUMP JUMPDEST PUSH2 0xCFD PUSH2 0xCF6 PUSH1 0x2 DUP4 ADD PUSH2 0x2D4 JUMP JUMPDEST PUSH1 0x40 DUP9 ADD MSTORE JUMP JUMPDEST PUSH2 0xD13 PUSH2 0xD0C PUSH1 0x3 DUP4 ADD PUSH2 0x2D4 JUMP JUMPDEST PUSH1 0x60 DUP9 ADD MSTORE JUMP JUMPDEST PUSH2 0xD2B PUSH2 0xD22 PUSH1 0x4 DUP4 ADD PUSH2 0x2E9 JUMP JUMPDEST ISZERO ISZERO PUSH1 0x80 DUP9 ADD MSTORE JUMP JUMPDEST PUSH2 0xD43 PUSH2 0xD3A PUSH1 0x4 DUP4 ADD PUSH2 0x2FF JUMP JUMPDEST ISZERO ISZERO PUSH1 0xA0 DUP9 ADD MSTORE JUMP JUMPDEST PUSH2 0xD5B PUSH2 0xD52 PUSH1 0x4 DUP4 ADD PUSH2 0x5AC JUMP JUMPDEST PUSH1 0xC0 DUP9 ADD PUSH2 0xC98 JUMP JUMPDEST ADD PUSH2 0x2D4 JUMP JUMPDEST PUSH1 0xE0 DUP5 ADD MSTORE JUMP JUMPDEST PUSH2 0x1ED SWAP1 PUSH2 0xCAD JUMP JUMPDEST PUSH2 0x1ED SWAP1 MLOAD PUSH2 0x1E1 JUMP JUMPDEST PUSH2 0x1E1 PUSH2 0x1ED PUSH2 0x1ED SWAP3 SWAP1 JUMP JUMPDEST PUSH2 0x1ED SWAP1 PUSH2 0xD7B JUMP JUMPDEST PUSH2 0x1ED PUSH2 0x1ED PUSH2 0x1ED SWAP3 SWAP1 JUMP JUMPDEST PUSH4 0x4E487B71 PUSH1 0xE0 SHL PUSH1 0x0 MSTORE PUSH1 0x11 PUSH1 0x4 MSTORE PUSH1 0x24 PUSH1 0x0 REVERT JUMPDEST SWAP2 SWAP1 DUP3 ADD DUP1 SWAP3 GT PUSH2 0xDC1 JUMPI JUMP JUMPDEST PUSH2 0xD9E JUMP JUMPDEST SWAP1 PUSH32 0xFFFFFFFFFFFFFFFFFFFFFFFFFFFFFFFFFFFFFFFFFFFFFFFFFFFFFFFFFFFFFFFF SWAP1 JUMPDEST SWAP2 DUP2 NOT AND SWAP2 AND OR SWAP1 JUMP JUMPDEST SWAP1 PUSH2 0xE04 PUSH2 0x1ED PUSH2 0xE0B SWAP3 PUSH2 0xD91 JUMP JUMPDEST DUP3 SLOAD PUSH2 0xDC6 JUMP JUMPDEST SWAP1 SSTORE JUMP JUMPDEST PUSH2 0xE22 PUSH2 0xE1D DUP3 PUSH1 0x9 PUSH2 0x587 JUMP JUMPDEST PUSH2 0xD68 JUMP JUMPDEST SWAP1 PUSH2 0xE2C DUP3 PUSH2 0xD71 JUMP JUMPDEST SWAP2 PUSH1 0x0 SWAP3 PUSH2 0xE4A PUSH2 0xE44 PUSH2 0xE3F DUP7 PUSH2 0xD88 JUMP JUMPDEST PUSH2 0x1E1 JUMP JUMPDEST SWAP2 PUSH2 0x1E1 JUMP JUMPDEST EQ PUSH2 0x10FE JUMPI PUSH1 0x8 SWAP1 PUSH2 0xE60 DUP4 PUSH2 0x8E7 CALLER DUP6 PUSH2 0x2B5 JUMP JUMPDEST PUSH2 0xE7E PUSH2 0xE79 DUP7 DUP5 ADD SWAP3 PUSH2 0xE73 DUP5 PUSH2 0xD71 JUMP JUMPDEST SWAP1 PUSH2 0x2B5 JUMP JUMPDEST PUSH2 0x2D4 JUMP JUMPDEST PUSH2 0xE87 DUP7 PUSH2 0xD91 JUMP JUMPDEST DUP2 GT PUSH2 0xFE3 JUMPI JUMPDEST POP POP PUSH1 0x80 DUP2 ADD MLOAD ISZERO ISZERO DUP1 ISZERO PUSH2 0xFD6 JUMPI JUMPDEST PUSH2 0xEA9 JUMPI JUMPDEST POP POP POP POP JUMP JUMPDEST PUSH2 0xECB PUSH2 0xE79 PUSH1 0xC0 PUSH2 0xEBF DUP7 PUSH2 0x8E7 CALLER DUP9 PUSH2 0x2B5 JUMP JUMPDEST SWAP4 ADD SWAP3 PUSH2 0xE73 DUP5 PUSH2 0xD71 JUMP JUMPDEST SWAP4 PUSH2 0xED5 DUP2 PUSH2 0xD91 JUMP JUMPDEST DUP6 GT PUSH2 0xEE2 JUMPI JUMPDEST POP PUSH2 0xEA3 JUMP JUMPDEST PUSH2 0xEF1 PUSH2 0xB9B PUSH2 0xB9B DUP5 PUSH2 0xD71 JUMP JUMPDEST SWAP3 PUSH1 0x20 PUSH2 0xEFD PUSH1 0x40 MLOAD SWAP1 JUMP JUMPDEST SWAP5 DUP6 SWAP1 PUSH4 0xA9059CBB PUSH1 0xE0 SHL DUP3 MSTORE DUP2 DUP6 DUP2 PUSH2 0xF1B DUP13 CALLER PUSH1 0x4 DUP5 ADD PUSH2 0xB70 JUMP JUMPDEST SUB SWAP3 GAS CALL SWAP4 DUP5 ISZERO PUSH2 0xC5D JUMPI PUSH2 0xF51 DUP7 PUSH2 0x8E7 PUSH2 0xF49 DUP7 PUSH2 0xF5A SWAP6 PUSH2 0xF64 SWAP11 PUSH2 0xF5F SWAP10 POP PUSH2 0xFB9 JUMPI JUMPDEST POP PUSH2 0xD91 JUMP JUMPDEST SWAP5 CALLER SWAP1 PUSH2 0x2B5 JUMP JUMPDEST PUSH2 0xE73 DUP6 PUSH2 0xD71 JUMP JUMPDEST PUSH2 0xDF4 JUMP JUMPDEST PUSH2 0xD71 JUMP JUMPDEST SWAP1 PUSH32 0x7521B41FD87BBBA2E8ADC235CE9A586217C275F3DAEA9F5A08B3B9D26C801C48 PUSH2 0xFAC PUSH2 0xFA2 PUSH2 0xF9C PUSH2 0xF98 CALLER PUSH2 0x226 JUMP JUMPDEST SWAP5 SWAP1 JUMP JUMPDEST SWAP5 PUSH2 0x226 JUMP JUMPDEST SWAP5 PUSH2 0x57A PUSH1 0x40 MLOAD SWAP1 JUMP JUMPDEST SUB SWAP1 LOG4 CODESIZE DUP1 DUP1 DUP1 DUP1 PUSH2 0xEDC JUMP JUMPDEST PUSH2 0xFD1 SWAP1 PUSH1 0x20 RETURNDATASIZE PUSH1 0x20 GT PUSH2 0xC56 JUMPI PUSH2 0xC4B DUP2 DUP4 PUSH2 0x9F6 JUMP JUMPDEST PUSH2 0xF43 JUMP JUMPDEST POP PUSH1 0xA0 DUP2 ADD MLOAD ISZERO ISZERO PUSH2 0xE9E JUMP JUMPDEST PUSH2 0x100D SWAP1 PUSH1 0x0 SWAP1 PUSH2 0xFFE PUSH2 0xFFA PUSH1 0x80 DUP8 ADD MLOAD ISZERO ISZERO SWAP1 JUMP JUMPDEST ISZERO SWAP1 JUMP JUMPDEST DUP1 PUSH2 0x10E8 JUMPI JUMPDEST PUSH2 0x10D6 JUMPI PUSH2 0xDB4 JUMP JUMPDEST SWAP1 PUSH2 0x101D PUSH2 0xB9B PUSH2 0xB9B DUP4 PUSH2 0xD71 JUMP JUMPDEST SWAP1 PUSH1 0x20 PUSH2 0x1029 PUSH1 0x40 MLOAD SWAP1 JUMP JUMPDEST SWAP3 DUP4 SWAP1 PUSH4 0xA9059CBB PUSH1 0xE0 SHL DUP3 MSTORE DUP2 DUP11 DUP2 PUSH2 0x1047 DUP10 CALLER PUSH1 0x4 DUP5 ADD PUSH2 0xB70 JUMP JUMPDEST SUB SWAP3 GAS CALL SWAP2 DUP3 ISZERO PUSH2 0xC5D JUMPI PUSH2 0x1079 SWAP3 PUSH2 0x10B9 JUMPI JUMPDEST POP PUSH2 0xF5F PUSH2 0x1068 DUP9 PUSH2 0xD91 JUMP JUMPDEST PUSH2 0xF5A PUSH2 0xF51 DUP10 PUSH2 0x8E7 CALLER DUP12 PUSH2 0x2B5 JUMP JUMPDEST PUSH2 0x1082 CALLER PUSH2 0x226 JUMP JUMPDEST PUSH32 0x7521B41FD87BBBA2E8ADC235CE9A586217C275F3DAEA9F5A08B3B9D26C801C48 PUSH2 0x10AF PUSH2 0xFA2 DUP9 PUSH2 0xF9C JUMP JUMPDEST SUB SWAP1 LOG4 CODESIZE DUP1 PUSH2 0xE8E JUMP JUMPDEST PUSH2 0x10D1 SWAP1 PUSH1 0x20 RETURNDATASIZE PUSH1 0x20 GT PUSH2 0xC56 JUMPI PUSH2 0xC4B DUP2 DUP4 PUSH2 0x9F6 JUMP JUMPDEST PUSH2 0x105B JUMP JUMPDEST SWAP1 POP PUSH2 0x10E2 DUP5 DUP3 PUSH2 0x1CFD JUMP JUMPDEST SWAP1 PUSH2 0xDB4 JUMP JUMPDEST POP PUSH2 0x10F9 PUSH2 0xFFA PUSH1 0xA0 DUP8 ADD MLOAD ISZERO ISZERO SWAP1 JUMP JUMPDEST PUSH2 0x1004 JUMP JUMPDEST PUSH1 0x40 MLOAD PUSH32 0xB3A96CFC00000000000000000000000000000000000000000000000000000000 DUP2 MSTORE PUSH1 0x4 SWAP1 REVERT JUMPDEST PUSH2 0x1ED PUSH2 0x140 PUSH2 0xA1D JUMP JUMPDEST SWAP1 PUSH2 0x24C PUSH2 0x1204 PUSH1 0x5 PUSH2 0x1145 PUSH2 0x1129 JUMP JUMPDEST SWAP5 PUSH2 0x1156 PUSH2 0x1152 DUP3 PUSH2 0x2D4 JUMP JUMPDEST DUP8 MSTORE JUMP JUMPDEST PUSH2 0x1165 PUSH2 0xCE0 PUSH1 0x1 DUP4 ADD PUSH2 0x2D4 JUMP JUMPDEST PUSH2 0x1174 PUSH2 0xCF6 PUSH1 0x2 DUP4 ADD PUSH2 0x2D4 JUMP JUMPDEST PUSH2 0x1183 PUSH2 0xD0C PUSH1 0x3 DUP4 ADD PUSH2 0x2D4 JUMP JUMPDEST PUSH2 0x1199 PUSH2 0x1192 PUSH1 0x4 DUP4 ADD PUSH2 0x2D4 JUMP JUMPDEST PUSH1 0x80 DUP9 ADD MSTORE JUMP JUMPDEST PUSH2 0x11B1 PUSH2 0x11A7 DUP4 DUP4 ADD PUSH2 0x2E9 JUMP JUMPDEST PUSH1 0xFF AND PUSH1 0xA0 DUP9 ADD MSTORE JUMP JUMPDEST PUSH2 0x11C9 PUSH2 0x11BF DUP4 DUP4 ADD PUSH2 0x2FF JUMP JUMPDEST PUSH1 0xFF AND PUSH1 0xC0 DUP9 ADD MSTORE JUMP JUMPDEST PUSH2 0x11E3 PUSH2 0x11D7 DUP4 DUP4 ADD PUSH2 0x319 JUMP JUMPDEST PUSH3 0xFFFFFF AND PUSH1 0xE0 DUP9 ADD MSTORE JUMP JUMPDEST PUSH2 0x11FE PUSH2 0x11F1 DUP4 DUP4 ADD PUSH2 0x32F JUMP JUMPDEST PUSH3 0xFFFFFF AND PUSH2 0x100 DUP9 ADD MSTORE JUMP JUMPDEST ADD PUSH2 0x345 JUMP JUMPDEST ISZERO ISZERO PUSH2 0x120 DUP5 ADD MSTORE JUMP JUMPDEST PUSH2 0x1ED SWAP1 PUSH2 0x1134 JUMP JUMPDEST PUSH2 0x1223 PUSH2 0x238 SWAP2 PUSH2 0x1E1 JUMP JUMPDEST PUSH1 0x60 SHL SWAP1 JUMP JUMPDEST PUSH1 0x20 SWAP4 SWAP3 PUSH2 0x1249 PUSH1 0x14 DUP4 PUSH2 0x1241 DUP3 SWAP6 PUSH2 0x9DC SWAP8 PUSH2 0x1217 JUMP JUMPDEST ADD DUP1 SWAP3 PUSH2 0x1217 JUMP JUMPDEST ADD SWAP2 DUP3 MSTORE JUMP JUMPDEST SWAP1 PUSH2 0xE04 PUSH2 0x1ED PUSH2 0xE0B SWAP3 SWAP1 JUMP JUMPDEST SWAP1 PUSH1 0xFF SWAP1 PUSH2 0xDEA JUMP JUMPDEST PUSH2 0x2E3 PUSH2 0x1ED PUSH2 0x1ED SWAP3 PUSH1 0xFF AND SWAP1 JUMP JUMPDEST SWAP1 PUSH2 0x1286 PUSH2 0x1ED PUSH2 0xE0B SWAP3 PUSH2 0x1266 JUMP JUMPDEST DUP3 SLOAD PUSH2 0x125D JUMP JUMPDEST SWAP1 PUSH2 0xFF00 SWAP1 PUSH1 0x8 SHL PUSH2 0xDEA JUMP JUMPDEST SWAP1 PUSH2 0x12AA PUSH2 0x1ED PUSH2 0xE0B SWAP3 PUSH2 0x1266 JUMP JUMPDEST DUP3 SLOAD PUSH2 0x128D JUMP JUMPDEST SWAP1 PUSH5 0xFFFFFF0000 SWAP1 PUSH1 0x10 SHL PUSH2 0xDEA JUMP JUMPDEST PUSH2 0x311 PUSH2 0x1ED PUSH2 0x1ED SWAP3 PUSH3 0xFFFFFF AND SWAP1 JUMP JUMPDEST SWAP1 PUSH2 0x12E3 PUSH2 0x1ED PUSH2 0xE0B SWAP3 PUSH2 0x12C1 JUMP JUMPDEST DUP3 SLOAD PUSH2 0x12B1 JUMP JUMPDEST SWAP1 PUSH8 0xFFFFFF0000000000 SWAP1 PUSH1 0x28 SHL PUSH2 0xDEA JUMP JUMPDEST SWAP1 PUSH2 0x130D PUSH2 0x1ED PUSH2 0xE0B SWAP3 PUSH2 0x12C1 JUMP JUMPDEST DUP3 SLOAD PUSH2 0x12EA JUMP JUMPDEST SWAP1 PUSH9 0xFF0000000000000000 SWAP1 PUSH1 0x40 SHL PUSH2 0xDEA JUMP JUMPDEST SWAP1 PUSH2 0x1338 PUSH2 0x1ED PUSH2 0xE0B SWAP3 ISZERO ISZERO SWAP1 JUMP JUMPDEST DUP3 SLOAD PUSH2 0x1314 JUMP JUMPDEST SWAP1 PUSH2 0x1426 PUSH2 0x120 PUSH1 0x5 PUSH2 0x24C SWAP5 PUSH2 0x1360 PUSH2 0x135A PUSH1 0x0 DUP8 ADD MLOAD SWAP1 JUMP JUMPDEST DUP3 PUSH2 0x124F JUMP JUMPDEST PUSH2 0x1377 PUSH2 0x136E PUSH1 0x20 DUP8 ADD MLOAD SWAP1 JUMP JUMPDEST PUSH1 0x1 DUP4 ADD PUSH2 0xDF4 JUMP JUMPDEST PUSH2 0x138E PUSH2 0x1385 PUSH1 0x40 DUP8 ADD MLOAD SWAP1 JUMP JUMPDEST PUSH1 0x2 DUP4 ADD PUSH2 0xDF4 JUMP JUMPDEST PUSH2 0x13A5 PUSH2 0x139C PUSH1 0x60 DUP8 ADD MLOAD SWAP1 JUMP JUMPDEST PUSH1 0x3 DUP4 ADD PUSH2 0xDF4 JUMP JUMPDEST PUSH2 0x13BC PUSH2 0x13B3 PUSH1 0x80 DUP8 ADD MLOAD SWAP1 JUMP JUMPDEST PUSH1 0x4 DUP4 ADD PUSH2 0xDF4 JUMP JUMPDEST ADD SWAP3 PUSH2 0x13D5 PUSH2 0x13CF PUSH1 0xA0 DUP4 ADD MLOAD PUSH1 0xFF AND SWAP1 JUMP JUMPDEST DUP6 PUSH2 0x1276 JUMP JUMPDEST PUSH2 0x13EC PUSH2 0x13E6 PUSH1 0xC0 DUP4 ADD MLOAD PUSH1 0xFF AND SWAP1 JUMP JUMPDEST DUP6 PUSH2 0x129A JUMP JUMPDEST PUSH2 0x1405 PUSH2 0x13FF PUSH1 0xE0 DUP4 ADD MLOAD PUSH3 0xFFFFFF AND SWAP1 JUMP JUMPDEST DUP6 PUSH2 0x12D3 JUMP JUMPDEST PUSH2 0x141F PUSH2 0x1419 PUSH2 0x100 DUP4 ADD MLOAD PUSH3 0xFFFFFF AND SWAP1 JUMP JUMPDEST DUP6 PUSH2 0x12FD JUMP JUMPDEST ADD MLOAD ISZERO ISZERO SWAP1 JUMP JUMPDEST SWAP1 PUSH2 0x1328 JUMP JUMPDEST SWAP1 PUSH2 0x24C SWAP2 PUSH2 0x133F JUMP JUMPDEST SWAP3 SWAP1 SWAP5 SWAP4 SWAP2 SWAP6 PUSH2 0x1445 DUP7 PUSH2 0x1E1 JUMP JUMPDEST PUSH2 0x144E DUP6 PUSH2 0x1E1 JUMP JUMPDEST LT ISZERO PUSH2 0x16FA JUMPI DUP4 SWAP6 JUMPDEST PUSH2 0x1460 DUP8 PUSH2 0x1E1 JUMP JUMPDEST PUSH2 0x1469 DUP7 PUSH2 0x1E1 JUMP JUMPDEST SUB PUSH2 0x16F2 JUMPI SWAP7 JUMPDEST PUSH1 0x7 SWAP4 PUSH2 0x1489 PUSH2 0x1484 DUP11 PUSH2 0x35E DUP12 DUP10 PUSH2 0x2B5 JUMP JUMPDEST PUSH2 0x120E JUMP JUMPDEST SWAP4 PUSH1 0x20 DUP6 ADD SWAP8 PUSH2 0x1497 DUP10 MLOAD SWAP1 JUMP JUMPDEST SWAP9 PUSH1 0x0 SWAP10 PUSH2 0x14AB PUSH2 0x14A7 DUP13 PUSH2 0xD91 JUMP JUMPDEST SWAP2 SWAP1 JUMP JUMPDEST EQ ISZERO DUP1 PUSH2 0x16E5 JUMPI JUMPDEST DUP1 PUSH2 0x16CE JUMPI JUMPDEST PUSH2 0x16A3 JUMPI DUP12 SWAP9 DUP12 SWAP8 DUP12 PUSH2 0x14D9 PUSH2 0x14A7 PUSH2 0x14D3 PUSH2 0x14F2 SWAP7 MLOAD SWAP1 JUMP JUMPDEST SWAP3 PUSH2 0xD91 JUMP JUMPDEST EQ ISZERO SWAP1 DUP2 PUSH2 0x168E JUMPI JUMPDEST DUP2 PUSH2 0x1680 JUMPI JUMPDEST POP PUSH2 0x1676 JUMPI PUSH2 0x1E1 JUMP JUMPDEST PUSH2 0x14FB DUP8 PUSH2 0x1E1 JUMP JUMPDEST EQ SWAP2 DUP3 ISZERO PUSH2 0x166F JUMPI DUP5 JUMPDEST PUSH1 0xFF DUP2 AND PUSH1 0xFF DUP8 AND SUB PUSH2 0x1667 JUMPI POP SWAP2 JUMPDEST ISZERO PUSH2 0x1660 JUMPI DUP3 JUMPDEST PUSH3 0xFFFFFF DUP2 AND PUSH3 0xFFFFFF DUP6 AND SUB PUSH2 0x1658 JUMPI POP SWAP3 JUMPDEST PUSH1 0x40 MLOAD DUP1 PUSH1 0x20 DUP2 ADD PUSH2 0x1544 DUP9 DUP13 DUP12 DUP5 PUSH2 0x1229 JUMP JUMPDEST SWAP1 DUP2 SUB DUP3 MSTORE SUB PUSH2 0x1554 SWAP1 DUP3 PUSH2 0x9F6 JUMP JUMPDEST DUP1 MLOAD SWAP1 PUSH1 0x20 ADD KECCAK256 SWAP5 PUSH2 0x1566 PUSH1 0xB4 PUSH2 0xD91 JUMP JUMPDEST PUSH2 0x1570 SWAP1 DUP3 PUSH2 0xDB4 JUMP JUMPDEST SWAP1 PUSH2 0x1579 PUSH2 0x1129 JUMP JUMPDEST SWAP7 PUSH2 0x1584 SWAP1 DUP13 DUP10 ADD MSTORE JUMP JUMPDEST PUSH1 0x20 DUP8 ADD MSTORE PUSH1 0x40 DUP7 ADD MSTORE PUSH2 0x1597 DUP10 PUSH2 0xD91 JUMP JUMPDEST PUSH2 0x15A2 DUP2 PUSH1 0x60 DUP9 ADD MSTORE JUMP JUMPDEST PUSH1 0x80 DUP7 ADD MSTORE PUSH1 0xFF AND PUSH1 0xA0 DUP6 ADD MSTORE PUSH1 0xFF AND PUSH1 0xC0 DUP5 ADD MSTORE PUSH3 0xFFFFFF AND PUSH1 0xE0 DUP4 ADD MSTORE PUSH3 0xFFFFFF AND PUSH2 0x100 DUP3 ADD MSTORE DUP5 ISZERO ISZERO PUSH2 0x120 DUP3 ADD MSTORE DUP4 PUSH2 0x15E0 DUP4 DUP6 PUSH2 0x2B5 JUMP JUMPDEST SWAP1 PUSH2 0x15EA SWAP2 PUSH2 0x2B5 JUMP JUMPDEST SWAP1 PUSH2 0x15F4 SWAP2 PUSH2 0x142C JUMP JUMPDEST PUSH2 0x15FD SWAP2 PUSH2 0x2B5 JUMP JUMPDEST SWAP1 PUSH2 0x1607 SWAP2 PUSH2 0x2B5 JUMP JUMPDEST ADD PUSH2 0x1611 SWAP1 PUSH2 0x2D4 JUMP JUMPDEST SWAP1 PUSH2 0x161B SWAP1 PUSH2 0x226 JUMP JUMPDEST SWAP2 PUSH2 0x1625 SWAP1 PUSH2 0x226 JUMP JUMPDEST SWAP1 SWAP2 PUSH2 0x1630 PUSH1 0x40 MLOAD SWAP1 JUMP JUMPDEST PUSH32 0xCAAE1144BFF91D59A9AC363D9FC91A3F9AFCBAC47706CB7413E5D1E42169B056 SWAP1 PUSH1 0x0 SWAP1 LOG4 JUMP JUMPDEST SWAP1 POP SWAP3 PUSH2 0x1530 JUMP JUMPDEST DUP1 SWAP3 PUSH2 0x151C JUMP JUMPDEST SWAP1 POP SWAP2 PUSH2 0x1515 JUMP JUMPDEST DUP1 SWAP5 PUSH2 0x1505 JUMP JUMPDEST PUSH2 0xE3F DUP11 DUP10 PUSH2 0x1EA2 JUMP JUMPDEST PUSH2 0x120 ADD MLOAD ISZERO SWAP1 POP CODESIZE PUSH2 0x14E8 JUMP JUMPDEST SWAP1 POP PUSH2 0x169B PUSH1 0x40 DUP3 ADD MLOAD SWAP1 JUMP JUMPDEST NUMBER GT SWAP1 PUSH2 0x14E2 JUMP JUMPDEST PUSH1 0x40 MLOAD PUSH32 0x2F31408500000000000000000000000000000000000000000000000000000000 DUP2 MSTORE PUSH1 0x4 SWAP1 REVERT JUMPDEST POP PUSH2 0x16E0 PUSH2 0xFFA PUSH2 0x120 DUP10 ADD MLOAD ISZERO ISZERO SWAP1 JUMP JUMPDEST PUSH2 0x14B9 JUMP JUMPDEST POP PUSH1 0x40 DUP8 ADD MLOAD NUMBER LT PUSH2 0x14B3 JUMP JUMPDEST POP DUP4 SWAP7 PUSH2 0x1470 JUMP JUMPDEST DUP6 PUSH2 0x1457 JUMP JUMPDEST PUSH2 0x1708 PUSH2 0x1BF9 JUMP JUMPDEST PUSH2 0x24C PUSH2 0x24C PUSH2 0x1718 PUSH1 0x0 PUSH2 0xD88 JUMP JUMPDEST PUSH2 0x2437 JUMP JUMPDEST PUSH2 0x24C PUSH2 0x1700 JUMP JUMPDEST PUSH2 0x1ED PUSH1 0x6 PUSH2 0x596 JUMP JUMPDEST PUSH2 0x24C SWAP1 PUSH2 0x173B PUSH2 0x1BF9 JUMP JUMPDEST PUSH2 0x24C SWAP1 PUSH1 0xC PUSH2 0xDF4 JUMP JUMPDEST PUSH2 0x24C SWAP1 PUSH2 0x172F JUMP JUMPDEST SWAP1 PUSH2 0x1759 DUP2 PUSH2 0x1E1 JUMP JUMPDEST PUSH2 0x1762 DUP4 PUSH2 0x1E1 JUMP JUMPDEST LT ISZERO PUSH2 0x18A0 JUMPI DUP2 JUMPDEST PUSH2 0x1773 DUP4 PUSH2 0x1E1 JUMP JUMPDEST PUSH2 0x177C DUP3 PUSH2 0x1E1 JUMP JUMPDEST SUB PUSH2 0x1899 JUMPI POP JUMPDEST PUSH2 0x1795 PUSH2 0x1ED DUP3 PUSH2 0x35E DUP6 PUSH1 0x7 PUSH2 0x2B5 JUMP JUMPDEST PUSH1 0x1 DUP2 ADD PUSH2 0x17A2 DUP2 PUSH2 0x2D4 JUMP JUMPDEST PUSH2 0x17AF PUSH2 0x14A7 PUSH1 0x0 PUSH2 0xD91 JUMP JUMPDEST EQ DUP1 PUSH2 0x1879 JUMPI JUMPDEST PUSH2 0x184E JUMPI PUSH2 0x17C3 SWAP1 PUSH2 0x2D4 JUMP JUMPDEST PUSH2 0x17D0 PUSH2 0x14A7 PUSH1 0x0 PUSH2 0xD91 JUMP JUMPDEST GT DUP1 PUSH2 0x183A JUMPI JUMPDEST DUP1 PUSH2 0x1825 JUMPI JUMPDEST PUSH2 0x16A3 JUMPI PUSH1 0x5 PUSH2 0x17ED SWAP2 ADD PUSH2 0x345 JUMP JUMPDEST PUSH2 0x17FA JUMPI PUSH2 0x24C SWAP2 PUSH2 0x1EA2 JUMP JUMPDEST PUSH1 0x40 MLOAD PUSH32 0x4F50B0E100000000000000000000000000000000000000000000000000000000 DUP2 MSTORE PUSH1 0x4 SWAP1 REVERT JUMPDEST POP PUSH2 0x1835 PUSH2 0xFFA PUSH1 0x5 DUP4 ADD PUSH2 0x345 JUMP JUMPDEST PUSH2 0x17DD JUMP JUMPDEST POP PUSH2 0x1847 PUSH1 0x2 DUP3 ADD PUSH2 0x2D4 JUMP JUMPDEST NUMBER LT PUSH2 0x17D7 JUMP JUMPDEST PUSH1 0x40 MLOAD PUSH32 0xA5E0617800000000000000000000000000000000000000000000000000000000 DUP2 MSTORE PUSH1 0x4 SWAP1 REVERT JUMPDEST POP PUSH2 0x1886 PUSH1 0x2 DUP4 ADD PUSH2 0x2D4 JUMP JUMPDEST PUSH2 0x1893 PUSH2 0x14A7 PUSH1 0x0 PUSH2 0xD91 JUMP JUMPDEST EQ PUSH2 0x17B6 JUMP JUMPDEST SWAP1 POP PUSH2 0x1783 JUMP JUMPDEST DUP1 SWAP2 PUSH2 0x176A JUMP JUMPDEST PUSH1 0x40 SWAP1 PUSH2 0xB8B PUSH2 0x24C SWAP5 SWAP7 SWAP6 SWAP4 SWAP7 PUSH2 0x18C7 PUSH1 0x60 DUP5 ADD SWAP9 PUSH1 0x0 DUP6 ADD SWAP1 PUSH2 0x625 JUMP JUMPDEST PUSH1 0x20 DUP4 ADD SWAP1 PUSH2 0x625 JUMP JUMPDEST SWAP1 SWAP3 SWAP2 SWAP3 PUSH2 0x18DE DUP2 PUSH2 0x1E1 JUMP JUMPDEST PUSH2 0x18E7 DUP4 PUSH2 0x1E1 JUMP JUMPDEST LT ISZERO PUSH2 0x1B0B JUMPI DUP2 JUMPDEST PUSH2 0x18F8 DUP4 PUSH2 0x1E1 JUMP JUMPDEST PUSH2 0x1901 DUP3 PUSH2 0x1E1 JUMP JUMPDEST SUB PUSH2 0x1B04 JUMPI POP JUMPDEST PUSH2 0x191A PUSH2 0x1ED DUP3 PUSH2 0x35E DUP6 PUSH1 0x7 PUSH2 0x2B5 JUMP JUMPDEST SWAP2 PUSH2 0x1927 PUSH1 0x1 DUP5 ADD PUSH2 0x2D4 JUMP JUMPDEST PUSH2 0x1934 PUSH2 0x14A7 PUSH1 0x0 PUSH2 0xD91 JUMP JUMPDEST EQ DUP1 ISZERO PUSH2 0x1AF0 JUMPI JUMPDEST DUP1 ISZERO PUSH2 0x1ADE JUMPI JUMPDEST PUSH2 0x184E JUMPI PUSH2 0x198E SWAP1 PUSH1 0x20 DUP7 PUSH2 0x195A PUSH2 0xB9B DUP9 PUSH2 0x226 JUMP JUMPDEST PUSH2 0x1963 ADDRESS PUSH2 0x226 JUMP JUMPDEST PUSH1 0x0 PUSH2 0x196E PUSH1 0x40 MLOAD SWAP1 JUMP JUMPDEST DUP1 SWAP8 DUP2 SWAP6 DUP3 SWAP5 PUSH2 0x1982 PUSH4 0x23B872DD PUSH1 0xE0 SHL SWAP1 JUMP JUMPDEST DUP5 MSTORE CALLER PUSH1 0x4 DUP6 ADD PUSH2 0x18A7 JUMP JUMPDEST SUB SWAP3 GAS CALL SWAP2 DUP3 ISZERO PUSH2 0xC5D JUMPI PUSH2 0x19A8 SWAP3 PUSH2 0x1AC1 JUMPI JUMPDEST POP PUSH2 0x1E1 JUMP JUMPDEST PUSH2 0x19B1 DUP5 PUSH2 0x1E1 JUMP JUMPDEST SUB PUSH2 0x1A48 JUMPI POP DUP1 PUSH2 0x19DA PUSH1 0x3 PUSH2 0x1A10 SWAP4 ADD PUSH2 0x19D4 DUP7 PUSH2 0x19CF DUP4 PUSH2 0x2D4 JUMP JUMPDEST PUSH2 0xDB4 JUMP JUMPDEST SWAP1 PUSH2 0xDF4 JUMP JUMPDEST PUSH2 0xE79 PUSH2 0x1A03 DUP5 PUSH2 0x35E PUSH1 0x0 PUSH2 0x19F1 CALLER PUSH1 0x8 PUSH2 0x2B5 JUMP JUMPDEST SWAP6 ADD SWAP5 PUSH2 0x19FD DUP7 PUSH2 0x2D4 JUMP JUMPDEST SWAP1 PUSH2 0x587 JUMP JUMPDEST PUSH2 0x19D4 DUP7 PUSH2 0x19CF DUP4 PUSH2 0x2D4 JUMP JUMPDEST PUSH32 0x5BB41883A6FFF90EFF4E984CC1F4CDC29BCFBB49FBF510DC6D13BA1C920BE8B PUSH2 0x1A43 PUSH2 0xFA2 PUSH2 0xF9C PUSH2 0xF98 CALLER PUSH2 0x226 JUMP JUMPDEST SUB SWAP1 LOG4 JUMP JUMPDEST PUSH2 0x1A51 SWAP1 PUSH2 0x1E1 JUMP JUMPDEST PUSH2 0x1A5A DUP4 PUSH2 0x1E1 JUMP JUMPDEST SUB PUSH2 0x1A7C JUMPI DUP1 PUSH2 0x1A77 PUSH1 0x4 PUSH2 0x1A10 SWAP4 ADD PUSH2 0x19D4 DUP7 PUSH2 0x19CF DUP4 PUSH2 0x2D4 JUMP JUMPDEST PUSH2 0x19DA JUMP JUMPDEST PUSH1 0x40 MLOAD PUSH3 0x461BCD PUSH1 0xE5 SHL DUP2 MSTORE PUSH1 0x20 PUSH1 0x4 DUP3 ADD MSTORE PUSH1 0xD PUSH1 0x24 DUP3 ADD MSTORE PUSH32 0x496E76616C696420746F6B656E00000000000000000000000000000000000000 PUSH1 0x44 DUP3 ADD MSTORE PUSH1 0x64 SWAP1 REVERT JUMPDEST PUSH2 0x1AD9 SWAP1 PUSH1 0x20 RETURNDATASIZE PUSH1 0x20 GT PUSH2 0xC56 JUMPI PUSH2 0xC4B DUP2 DUP4 PUSH2 0x9F6 JUMP JUMPDEST PUSH2 0x19A2 JUMP JUMPDEST POP PUSH2 0x1AEB PUSH1 0x5 DUP5 ADD PUSH2 0x345 JUMP JUMPDEST PUSH2 0x1943 JUMP JUMPDEST POP PUSH2 0x1AFD PUSH1 0x2 DUP5 ADD PUSH2 0x2D4 JUMP JUMPDEST NUMBER GT PUSH2 0x193C JUMP JUMPDEST SWAP1 POP PUSH2 0x1908 JUMP JUMPDEST DUP1 SWAP2 PUSH2 0x18EF JUMP JUMPDEST PUSH2 0x24C SWAP1 PUSH2 0x1B1E PUSH2 0x1BF9 JUMP JUMPDEST PUSH2 0x1B28 PUSH1 0x0 PUSH2 0xD88 JUMP JUMPDEST PUSH2 0x1B31 DUP2 PUSH2 0x1E1 JUMP JUMPDEST PUSH2 0x1B3A DUP4 PUSH2 0x1E1 JUMP JUMPDEST EQ PUSH2 0x1B49 JUMPI POP PUSH2 0x24C SWAP1 PUSH2 0x2437 JUMP JUMPDEST PUSH2 0xAD0 SWAP1 PUSH2 0x1B56 PUSH1 0x40 MLOAD SWAP1 JUMP JUMPDEST SWAP2 DUP3 SWAP2 PUSH32 0x1E4FBDF700000000000000000000000000000000000000000000000000000000 DUP4 MSTORE PUSH1 0x4 DUP4 ADD PUSH2 0x787 JUMP JUMPDEST PUSH2 0x24C SWAP1 PUSH2 0x1B12 JUMP JUMPDEST PUSH2 0x24C SWAP1 PUSH2 0x1B9A PUSH2 0x1BF9 JUMP JUMPDEST PUSH2 0x1BC5 JUMP JUMPDEST SWAP1 PUSH1 0x1 PUSH1 0x1 PUSH1 0xA0 SHL SUB SWAP1 PUSH2 0xDEA JUMP JUMPDEST SWAP1 PUSH2 0x1BBE PUSH2 0x1ED PUSH2 0xE0B SWAP3 PUSH2 0x226 JUMP JUMPDEST DUP3 SLOAD PUSH2 0x1B9F JUMP JUMPDEST PUSH2 0x24C SWAP1 PUSH1 0xA PUSH2 0x1BAE JUMP JUMPDEST PUSH2 0x24C SWAP1 PUSH2 0x1B8E JUMP JUMPDEST PUSH2 0x24C SWAP1 PUSH2 0x1BE5 PUSH2 0x1BF9 JUMP JUMPDEST PUSH2 0x24C SWAP1 PUSH1 0xB PUSH2 0xDF4 JUMP JUMPDEST PUSH2 0x24C SWAP1 PUSH2 0x1BD9 JUMP JUMPDEST PUSH2 0x1C01 PUSH2 0x1725 JUMP JUMPDEST CALLER SWAP1 PUSH2 0x1C0F PUSH2 0xE44 DUP4 PUSH2 0x1E1 JUMP JUMPDEST SUB PUSH2 0x1C17 JUMPI POP JUMP JUMPDEST PUSH2 0xAD0 SWAP1 PUSH2 0x1C24 PUSH1 0x40 MLOAD SWAP1 JUMP JUMPDEST SWAP2 DUP3 SWAP2 PUSH32 0x118CDAA700000000000000000000000000000000000000000000000000000000 DUP4 MSTORE PUSH1 0x4 DUP4 ADD PUSH2 0x787 JUMP JUMPDEST ISZERO PUSH2 0x1C5A JUMPI JUMP JUMPDEST PUSH1 0x40 MLOAD PUSH3 0x461BCD PUSH1 0xE5 SHL DUP2 MSTORE PUSH1 0x20 PUSH1 0x4 DUP3 ADD MSTORE PUSH1 0x2E PUSH1 0x24 DUP3 ADD MSTORE PUSH32 0x57696E6E696E6720746F6B656E20616D6F756E74206D75737420626520677265 PUSH1 0x44 DUP3 ADD MSTORE PUSH32 0x61746572207468616E207A65726F000000000000000000000000000000000000 PUSH1 0x64 DUP3 ADD MSTORE PUSH1 0x84 SWAP1 REVERT JUMPDEST DUP2 DUP2 MUL SWAP3 SWAP2 DUP2 ISZERO SWAP2 DUP5 DIV EQ OR ISZERO PUSH2 0xDC1 JUMPI JUMP JUMPDEST PUSH4 0x4E487B71 PUSH1 0xE0 SHL PUSH1 0x0 MSTORE PUSH1 0x12 PUSH1 0x4 MSTORE PUSH1 0x24 PUSH1 0x0 REVERT JUMPDEST DUP2 ISZERO PUSH2 0x1CF8 JUMPI DIV SWAP1 JUMP JUMPDEST PUSH2 0x1CD8 JUMP JUMPDEST PUSH2 0x1D5E PUSH2 0x1D6A PUSH2 0x1ED SWAP4 PUSH2 0x1D0F PUSH1 0x0 SWAP1 JUMP JUMPDEST POP PUSH2 0x1D53 PUSH1 0x60 PUSH2 0x1D64 PUSH1 0x40 DUP5 ADD PUSH2 0x1D3A PUSH2 0x1D27 DUP3 MLOAD SWAP1 JUMP JUMPDEST PUSH2 0x1D34 PUSH2 0x14A7 PUSH1 0x0 PUSH2 0xD91 JUMP JUMPDEST GT PUSH2 0x1C53 JUMP JUMPDEST PUSH2 0x1D5E PUSH2 0x1D59 PUSH8 0xDE0B6B3A7640000 SWAP10 PUSH2 0x1D53 DUP12 PUSH2 0xD91 JUMP JUMPDEST SWAP1 PUSH2 0x1CC5 JUMP JUMPDEST SWAP2 MLOAD SWAP1 JUMP JUMPDEST SWAP1 PUSH2 0x1CEE JUMP JUMPDEST SWAP3 ADD MLOAD SWAP1 JUMP JUMPDEST SWAP2 PUSH2 0xD91 JUMP JUMPDEST PUSH2 0x2E3 PUSH2 0x1ED PUSH2 0x1ED SWAP3 SWAP1 JUMP JUMPDEST SWAP1 PUSH2 0x1286 PUSH2 0x1ED PUSH2 0xE0B SWAP3 ISZERO ISZERO SWAP1 JUMP JUMPDEST SWAP1 PUSH2 0x12AA PUSH2 0x1ED PUSH2 0xE0B SWAP3 ISZERO ISZERO SWAP1 JUMP JUMPDEST SWAP1 PUSH22 0xFFFFFFFFFFFFFFFFFFFFFFFFFFFFFFFFFFFFFFFF0000 SWAP1 PUSH1 0x10 SHL PUSH2 0xDEA JUMP JUMPDEST SWAP1 PUSH2 0x1DCE PUSH2 0x1ED PUSH2 0xE0B SWAP3 PUSH2 0x226 JUMP JUMPDEST DUP3 SLOAD PUSH2 0x1D9D JUMP JUMPDEST PUSH1 0x5 PUSH2 0x1E84 PUSH1 0xE0 PUSH2 0x24C SWAP5 PUSH2 0x1DF5 PUSH2 0x1DEF PUSH1 0x0 DUP4 ADD PUSH2 0xD71 JUMP JUMPDEST DUP7 PUSH2 0x1BAE JUMP JUMPDEST PUSH2 0x1E0C PUSH2 0x1E03 PUSH1 0x20 DUP4 ADD MLOAD SWAP1 JUMP JUMPDEST PUSH1 0x1 DUP8 ADD PUSH2 0xDF4 JUMP JUMPDEST PUSH2 0x1E23 PUSH2 0x1E1A PUSH1 0x40 DUP4 ADD MLOAD SWAP1 JUMP JUMPDEST PUSH1 0x2 DUP8 ADD PUSH2 0xDF4 JUMP JUMPDEST PUSH2 0x1E3A PUSH2 0x1E31 PUSH1 0x60 DUP4 ADD MLOAD SWAP1 JUMP JUMPDEST PUSH1 0x3 DUP8 ADD PUSH2 0xDF4 JUMP JUMPDEST PUSH2 0x1E7F PUSH1 0x4 DUP7 ADD PUSH2 0x1E57 PUSH2 0x1E51 PUSH1 0x80 DUP6 ADD MLOAD ISZERO ISZERO SWAP1 JUMP JUMPDEST DUP3 PUSH2 0x1D7D JUMP JUMPDEST PUSH2 0x1E6D PUSH2 0x1E67 PUSH1 0xA0 DUP6 ADD MLOAD ISZERO ISZERO SWAP1 JUMP JUMPDEST DUP3 PUSH2 0x1D8D JUMP JUMPDEST PUSH2 0x1E79 PUSH1 0xC0 DUP5 ADD PUSH2 0xD71 JUMP JUMPDEST SWAP1 PUSH2 0x1DBE JUMP JUMPDEST ADD MLOAD SWAP1 JUMP JUMPDEST SWAP2 ADD PUSH2 0xDF4 JUMP JUMPDEST SWAP1 PUSH2 0x24C SWAP2 PUSH2 0x1DD5 JUMP JUMPDEST PUSH2 0x311 PUSH2 0x1ED PUSH2 0x1ED SWAP3 SWAP1 JUMP JUMPDEST SWAP1 PUSH2 0x1EAC DUP2 PUSH2 0x1E1 JUMP JUMPDEST PUSH2 0x1EB5 DUP4 PUSH2 0x1E1 JUMP JUMPDEST LT ISZERO PUSH2 0x2430 JUMPI DUP2 JUMPDEST PUSH2 0x1EC6 DUP4 PUSH2 0x1E1 JUMP JUMPDEST PUSH2 0x1ECF DUP3 PUSH2 0x1E1 JUMP JUMPDEST SUB PUSH2 0x2428 JUMPI POP SWAP1 JUMPDEST PUSH2 0x1EE9 PUSH2 0x1ED DUP4 PUSH2 0x35E DUP5 PUSH1 0x7 PUSH2 0x2B5 JUMP JUMPDEST SWAP2 PUSH1 0x0 SWAP3 PUSH1 0x3 DUP2 ADD DUP5 PUSH2 0x1EFB DUP3 PUSH2 0x2D4 JUMP JUMPDEST SWAP6 PUSH1 0x0 SWAP7 PUSH2 0x1F0B PUSH2 0x14A7 DUP10 PUSH2 0xD91 JUMP JUMPDEST GT PUSH2 0x23EA JUMPI JUMPDEST PUSH1 0x4 DUP5 ADD SWAP2 PUSH2 0x1F1F DUP4 PUSH2 0x2D4 JUMP JUMPDEST PUSH2 0x1F2B PUSH2 0x14A7 DUP11 PUSH2 0xD91 JUMP JUMPDEST GT PUSH2 0x2396 JUMPI JUMPDEST DUP8 DUP9 SWAP2 DUP10 SWAP4 PUSH2 0x1F3F DUP12 PUSH2 0xD91 JUMP JUMPDEST DUP2 GT DUP1 DUP1 PUSH2 0x2385 JUMPI JUMPDEST DUP1 PUSH2 0x237C JUMPI JUMPDEST ISZERO PUSH2 0x230B JUMPI POP POP POP POP PUSH1 0x1 SWAP2 JUMPDEST DUP2 DUP3 ISZERO PUSH2 0x2304 JUMPI JUMPDEST PUSH2 0x21D2 JUMPI POP POP PUSH2 0xF9C PUSH2 0x2128 PUSH2 0x20FC PUSH2 0xE79 PUSH1 0x1 PUSH1 0x5 DUP10 PUSH2 0x2122 PUSH2 0xF5A DUP16 DUP16 SWAP13 DUP16 SWAP13 PUSH32 0x99DC767CF9079637556FA4C152DCAF6B25BBF98C744029720EAF88154130855E SWAP16 PUSH2 0x1A43 SWAP16 SWAP4 PUSH2 0x212E SWAP16 PUSH2 0xF98 SWAP16 SWAP1 PUSH2 0x20EF PUSH2 0x210D SWAP5 PUSH2 0x20E8 PUSH2 0x2116 SWAP10 PUSH2 0x20D0 PUSH2 0x2108 SWAP7 DUP1 PUSH1 0x0 EQ PUSH2 0x21CC JUMPI DUP3 SWAP7 JUMPDEST DUP2 ISZERO PUSH2 0x21C2 JUMPI PUSH2 0x2091 SWAP1 SWAP4 JUMPDEST DUP14 DUP4 ISZERO PUSH2 0x21B3 JUMPI POP PUSH2 0x1FF2 DUP14 PUSH2 0x2D4 JUMP JUMPDEST SWAP7 JUMPDEST PUSH2 0x1FFD DUP3 PUSH2 0x1E1 JUMP JUMPDEST PUSH2 0x2006 DUP12 PUSH2 0x1E1 JUMP JUMPDEST SUB PUSH2 0x21A4 JUMPI PUSH2 0x2035 PUSH2 0x201A PUSH1 0x5 DUP4 ADD PUSH2 0x2E9 JUMP JUMPDEST PUSH2 0x202E PUSH2 0x2027 PUSH1 0x2 PUSH2 0x1D70 JUMP JUMPDEST SWAP2 PUSH1 0xFF AND SWAP1 JUMP JUMPDEST EQ SWAP3 PUSH2 0x1E1 JUMP JUMPDEST PUSH2 0x203E DUP8 PUSH2 0x1E1 JUMP JUMPDEST SUB PUSH2 0x2182 JUMPI PUSH2 0x2078 PUSH2 0x2052 PUSH1 0x5 DUP4 ADD PUSH2 0x2E9 JUMP JUMPDEST PUSH2 0x205F PUSH2 0x2027 PUSH1 0x2 PUSH2 0x1D70 JUMP JUMPDEST EQ JUMPDEST DUP14 DUP2 ISZERO PUSH2 0x2170 JUMPI PUSH2 0x2071 SWAP1 PUSH2 0x1E95 JUMP JUMPDEST DUP11 DUP10 PUSH2 0x28D2 JUMP JUMPDEST SWAP1 DUP3 ISZERO PUSH2 0x215E JUMPI POP PUSH2 0x2089 DUP13 PUSH2 0x1E95 JUMP JUMPDEST SWAP1 JUMPDEST DUP11 PUSH2 0x293E JUMP JUMPDEST SWAP1 ISZERO PUSH2 0x214D JUMPI PUSH2 0x20C9 PUSH2 0x20A3 DUP14 PUSH2 0x2D4 JUMP JUMPDEST PUSH2 0x20B7 PUSH2 0x20AE PUSH2 0xCA2 JUMP JUMPDEST SWAP10 DUP13 DUP12 ADD PUSH2 0xC98 JUMP JUMPDEST PUSH2 0x20C2 NUMBER PUSH1 0x20 DUP12 ADD MSTORE JUMP JUMPDEST PUSH1 0x40 DUP10 ADD MSTORE JUMP JUMPDEST PUSH1 0x60 DUP8 ADD MSTORE JUMP JUMPDEST DUP7 ISZERO ISZERO PUSH1 0x80 DUP7 ADD DUP2 SWAP1 MSTORE PUSH1 0xA0 DUP7 ADD MSTORE PUSH1 0xC0 DUP6 ADD PUSH2 0xC98 JUMP JUMPDEST PUSH1 0xE0 DUP4 ADD MSTORE JUMP JUMPDEST PUSH2 0x2103 DUP4 DUP12 ADD SWAP15 DUP16 PUSH2 0x2D4 JUMP JUMPDEST PUSH1 0x9 PUSH2 0x587 JUMP JUMPDEST PUSH2 0x1E8B JUMP JUMPDEST PUSH2 0xD91 JUMP JUMPDEST SWAP4 DUP5 DUP1 SWAP4 PUSH2 0xDF4 JUMP JUMPDEST PUSH2 0x1385 DUP2 DUP7 DUP6 ADD PUSH2 0xDF4 JUMP JUMPDEST ADD PUSH2 0x1328 JUMP JUMPDEST SWAP7 PUSH2 0x226 JUMP JUMPDEST SWAP5 PUSH2 0x2138 PUSH1 0x40 MLOAD SWAP1 JUMP JUMPDEST SWAP1 ISZERO ISZERO DUP1 DUP3 MSTORE PUSH1 0x20 DUP3 ADD MSTORE SWAP1 DUP2 SWAP1 PUSH1 0x40 DUP3 ADD SWAP1 JUMP JUMPDEST PUSH2 0x20C9 PUSH2 0x2159 DUP13 PUSH2 0x2D4 JUMP JUMPDEST PUSH2 0x20A3 JUMP JUMPDEST PUSH1 0x5 PUSH2 0x216A SWAP2 ADD PUSH2 0x319 JUMP JUMPDEST SWAP1 PUSH2 0x208B JUMP JUMPDEST POP PUSH2 0x217D PUSH1 0x5 DUP5 ADD PUSH2 0x32F JUMP JUMPDEST PUSH2 0x2071 JUMP JUMPDEST PUSH2 0x2078 PUSH2 0x2191 PUSH1 0x5 DUP4 ADD PUSH2 0x2FF JUMP JUMPDEST PUSH2 0x219E PUSH2 0x2027 PUSH1 0x2 PUSH2 0x1D70 JUMP JUMPDEST EQ PUSH2 0x2061 JUMP JUMPDEST PUSH2 0x2035 PUSH2 0x201A PUSH1 0x5 DUP4 ADD PUSH2 0x2FF JUMP JUMPDEST PUSH2 0x21BC SWAP1 PUSH2 0x2D4 JUMP JUMPDEST SWAP7 PUSH2 0x1FF4 JUMP JUMPDEST POP PUSH2 0x2091 DUP4 PUSH2 0x1FE1 JUMP JUMPDEST DUP7 PUSH2 0x1FD5 JUMP JUMPDEST SWAP5 SWAP3 SWAP1 SWAP8 SWAP2 POP PUSH2 0x21E1 DUP5 PUSH2 0x2D4 JUMP JUMPDEST SWAP4 PUSH2 0x21EB DUP3 PUSH2 0x2D4 JUMP JUMPDEST SWAP1 PUSH2 0x21F4 PUSH2 0xCA2 JUMP JUMPDEST SWAP6 PUSH2 0x2201 DUP11 DUP7 DUP10 ADD PUSH2 0xC98 JUMP JUMPDEST PUSH2 0x220C NUMBER PUSH1 0x20 DUP10 ADD MSTORE JUMP JUMPDEST PUSH1 0x40 DUP8 ADD MSTORE PUSH2 0x221A DUP5 PUSH2 0xD91 JUMP JUMPDEST DUP1 SWAP5 DUP2 SWAP4 DUP3 PUSH1 0x60 DUP11 ADD SWAP1 PUSH2 0x222B SWAP2 MSTORE JUMP JUMPDEST DUP10 ISZERO ISZERO PUSH1 0x80 DUP11 ADD MSTORE DUP13 ISZERO ISZERO PUSH1 0xA0 DUP11 ADD MSTORE PUSH2 0x2248 DUP12 PUSH1 0xC0 DUP12 ADD PUSH2 0xC98 JUMP JUMPDEST PUSH1 0xE0 DUP10 ADD MSTORE DUP7 ADD SWAP7 PUSH2 0x2259 DUP9 PUSH2 0x2D4 JUMP JUMPDEST PUSH2 0x2264 SWAP1 PUSH1 0x9 PUSH2 0x587 JUMP JUMPDEST SWAP1 PUSH2 0x226E SWAP2 PUSH2 0x1E8B JUMP JUMPDEST PUSH2 0x2277 SWAP2 PUSH2 0xDF4 JUMP JUMPDEST PUSH2 0x2280 SWAP2 PUSH2 0xDF4 JUMP JUMPDEST PUSH2 0x228D DUP2 PUSH1 0x1 DUP5 ADD PUSH2 0xDF4 JUMP JUMPDEST PUSH2 0x229A SWAP1 PUSH1 0x2 DUP4 ADD PUSH2 0xDF4 JUMP JUMPDEST PUSH1 0x5 ADD PUSH1 0x1 PUSH2 0x22A8 SWAP2 PUSH2 0x1328 JUMP JUMPDEST PUSH2 0x22B1 SWAP1 PUSH2 0x2D4 JUMP JUMPDEST SWAP3 PUSH2 0x22BB SWAP1 PUSH2 0x226 JUMP JUMPDEST SWAP2 PUSH2 0x22C5 SWAP1 PUSH2 0x226 JUMP JUMPDEST SWAP3 SWAP4 PUSH2 0x22D0 PUSH1 0x40 MLOAD SWAP1 JUMP JUMPDEST SWAP2 ISZERO ISZERO DUP3 MSTORE ISZERO ISZERO PUSH1 0x20 DUP3 ADD MSTORE PUSH32 0x99DC767CF9079637556FA4C152DCAF6B25BBF98C744029720EAF88154130855E SWAP1 PUSH1 0x40 SWAP1 LOG4 JUMP JUMPDEST POP DUP1 PUSH2 0x1F63 JUMP JUMPDEST SWAP3 SWAP5 SWAP3 DUP1 PUSH2 0x236B JUMPI JUMPDEST DUP1 PUSH2 0x2362 JUMPI JUMPDEST ISZERO PUSH2 0x232A JUMPI POP PUSH1 0x1 SWAP3 POP POP PUSH2 0x1F5B JUMP JUMPDEST PUSH2 0x2336 PUSH2 0x14A7 DUP13 PUSH2 0xD91 JUMP JUMPDEST EQ SWAP1 DUP2 ISZERO PUSH2 0x234D JUMPI JUMPDEST POP ISZERO PUSH2 0x1F5B JUMPI POP PUSH1 0x1 PUSH2 0x1F5B JUMP JUMPDEST SWAP1 POP PUSH2 0x235B PUSH2 0x14A7 DUP12 PUSH2 0xD91 JUMP JUMPDEST EQ CODESIZE PUSH2 0x233F JUMP JUMPDEST POP DUP2 DUP2 EQ PUSH2 0x231A JUMP JUMPDEST POP PUSH2 0x2375 DUP12 PUSH2 0xD91 JUMP JUMPDEST DUP3 GT PUSH2 0x2314 JUMP JUMPDEST POP DUP3 DUP3 GT PUSH2 0x1F4E JUMP JUMPDEST POP PUSH2 0x238F DUP13 PUSH2 0xD91 JUMP JUMPDEST DUP4 GT PUSH2 0x1F48 JUMP JUMPDEST POP PUSH1 0x5 DUP5 ADD PUSH2 0x23A4 DUP2 PUSH2 0x2FF JUMP JUMPDEST PUSH2 0x23B1 PUSH2 0x2027 PUSH1 0x2 PUSH2 0x1D70 JUMP JUMPDEST SUB PUSH2 0x23CE JUMPI POP PUSH2 0x23C9 PUSH2 0x23C3 DUP4 PUSH2 0x2D4 JUMP JUMPDEST DUP7 PUSH2 0x2707 JUMP JUMPDEST PUSH2 0x1F31 JUMP JUMPDEST PUSH2 0x23DA PUSH2 0x23C9 SWAP2 PUSH2 0x32F JUMP JUMPDEST PUSH2 0x23E3 DUP5 PUSH2 0x2D4 JUMP JUMPDEST SWAP1 DUP8 PUSH2 0x256F JUMP JUMPDEST POP PUSH1 0x5 DUP4 ADD PUSH2 0x23F8 DUP2 PUSH2 0x2E9 JUMP JUMPDEST PUSH2 0x2405 PUSH2 0x2027 PUSH1 0x2 PUSH2 0x1D70 JUMP JUMPDEST SUB PUSH2 0x241C JUMPI POP PUSH2 0x2417 PUSH2 0x23C3 DUP4 PUSH2 0x2D4 JUMP JUMPDEST PUSH2 0x1F11 JUMP JUMPDEST PUSH2 0x23DA PUSH2 0x2417 SWAP2 PUSH2 0x319 JUMP JUMPDEST SWAP1 POP SWAP1 PUSH2 0x1ED7 JUMP JUMPDEST DUP1 SWAP2 PUSH2 0x1EBD JUMP JUMPDEST PUSH2 0x2458 PUSH2 0x2452 PUSH2 0x2447 PUSH1 0x6 PUSH2 0x596 JUMP JUMPDEST PUSH2 0xB9B DUP5 PUSH1 0x6 PUSH2 0x1BAE JUMP JUMPDEST SWAP2 PUSH2 0x226 JUMP JUMPDEST SWAP1 PUSH32 0x8BE0079C531659141344CD1FD0A4F28419497F9722A3DAAFE3B4186F6B6457E0 PUSH2 0x2483 PUSH1 0x40 MLOAD SWAP1 JUMP JUMPDEST PUSH1 0x0 SWAP1 LOG3 JUMP JUMPDEST PUSH2 0x1ED PUSH1 0xA0 PUSH2 0xA1D JUMP JUMPDEST PUSH1 0x1 PUSH1 0x1 PUSH1 0xA0 SHL SUB DUP2 AND PUSH2 0x27E JUMP JUMPDEST SWAP1 POP MLOAD SWAP1 PUSH2 0x24C DUP3 PUSH2 0x2493 JUMP JUMPDEST PUSH4 0xFFFFFFFF DUP2 AND PUSH2 0x27E JUMP JUMPDEST SWAP1 POP MLOAD SWAP1 PUSH2 0x24C DUP3 PUSH2 0x24AF JUMP JUMPDEST PUSH1 0x80 DUP2 DUP4 SUB SLT PUSH2 0x1A7 JUMPI PUSH2 0x24DC DUP3 DUP3 PUSH2 0xB1A JUMP JUMPDEST SWAP3 PUSH2 0x1ED PUSH2 0x24ED DUP5 PUSH1 0x20 DUP6 ADD PUSH2 0x24A2 JUMP JUMPDEST SWAP4 PUSH1 0x60 PUSH2 0x24FD DUP3 PUSH1 0x40 DUP8 ADD PUSH2 0x24BB JUMP JUMPDEST SWAP5 ADD PUSH2 0xB1A JUMP JUMPDEST SWAP1 PUSH1 0x80 DUP1 PUSH2 0x24C SWAP4 PUSH2 0x251E PUSH1 0x0 DUP3 ADD MLOAD PUSH1 0x0 DUP7 ADD SWAP1 PUSH2 0x625 JUMP JUMPDEST PUSH2 0x2530 PUSH1 0x20 DUP3 ADD MLOAD PUSH1 0x20 DUP7 ADD SWAP1 PUSH2 0x625 JUMP JUMPDEST PUSH2 0x253F PUSH1 0x40 DUP3 ADD MLOAD PUSH1 0x40 DUP7 ADD MSTORE JUMP JUMPDEST PUSH1 0x60 DUP2 DUP2 ADD MLOAD PUSH3 0xFFFFFF AND SWAP1 DUP6 ADD MSTORE JUMPDEST ADD MLOAD PUSH1 0x1 PUSH1 0x1 PUSH1 0xA0 SHL SUB AND SWAP2 ADD MSTORE JUMP JUMPDEST PUSH1 0xA0 DUP2 ADD SWAP3 SWAP2 PUSH2 0x24C SWAP2 SWAP1 PUSH2 0x2504 JUMP JUMPDEST PUSH1 0x80 SWAP1 PUSH2 0x2630 SWAP3 PUSH2 0x257E PUSH1 0x0 SWAP1 JUMP JUMPDEST POP PUSH2 0x25DF PUSH2 0x258F PUSH2 0xB9B PUSH1 0x2 PUSH2 0x596 JUMP JUMPDEST SWAP2 PUSH2 0x25D3 PUSH20 0x4200000000000000000000000000000000000006 SWAP8 PUSH2 0x25CC PUSH1 0x0 SWAP10 PUSH2 0x25C3 PUSH2 0x25BA PUSH2 0x2489 JUMP JUMPDEST SWAP9 DUP13 DUP11 ADD PUSH2 0xC98 JUMP JUMPDEST PUSH1 0x20 DUP9 ADD PUSH2 0xC98 JUMP JUMPDEST PUSH1 0x40 DUP7 ADD MSTORE JUMP JUMPDEST PUSH3 0xFFFFFF AND PUSH1 0x60 DUP5 ADD MSTORE JUMP JUMPDEST PUSH2 0x25FA PUSH2 0x25EB DUP7 PUSH2 0xD7B JUMP JUMPDEST PUSH1 0x1 PUSH1 0x1 PUSH1 0xA0 SHL SUB AND DUP4 DUP6 ADD MSTORE JUMP JUMPDEST PUSH1 0x40 MLOAD SWAP4 DUP5 SWAP3 DUP4 SWAP2 DUP3 SWAP2 PUSH32 0xC6A5026A00000000000000000000000000000000000000000000000000000000 DUP4 MSTORE PUSH1 0x4 DUP4 ADD PUSH2 0x255F JUMP JUMPDEST SUB SWAP2 GAS STATICCALL DUP1 ISZERO PUSH2 0xC5D JUMPI PUSH2 0x2642 JUMPI POP SWAP1 JUMP JUMPDEST PUSH2 0x2664 SWAP2 POP PUSH1 0x80 RETURNDATASIZE PUSH1 0x80 GT PUSH2 0x266A JUMPI JUMPDEST PUSH2 0x265C DUP2 DUP4 PUSH2 0x9F6 JUMP JUMPDEST DUP2 ADD SWAP1 PUSH2 0x24C8 JUMP JUMPDEST POP POP POP SWAP1 JUMP JUMPDEST POP RETURNDATASIZE PUSH2 0x2652 JUMP JUMPDEST SWAP1 POP MLOAD SWAP1 PUSH2 0x24C DUP3 PUSH2 0x275 JUMP JUMPDEST SWAP1 PUSH1 0x20 DUP3 DUP3 SUB SLT PUSH2 0x1A7 JUMPI PUSH2 0x1ED SWAP2 PUSH2 0x2671 JUMP JUMPDEST SWAP2 PUSH1 0x20 PUSH2 0x24C SWAP3 SWAP5 SWAP4 PUSH2 0x26AD PUSH1 0x40 DUP3 ADD SWAP7 PUSH1 0x0 DUP4 ADD SWAP1 PUSH2 0x625 JUMP JUMPDEST ADD SWAP1 PUSH2 0x625 JUMP JUMPDEST PUSH14 0xFFFFFFFFFFFFFFFFFFFFFFFFFFFF DUP2 AND PUSH2 0x27E JUMP JUMPDEST SWAP1 POP MLOAD SWAP1 PUSH2 0x24C DUP3 PUSH2 0x26B4 JUMP JUMPDEST SWAP1 SWAP2 PUSH1 0x60 DUP3 DUP5 SUB SLT PUSH2 0x1A7 JUMPI PUSH2 0x1ED PUSH2 0x26F0 DUP5 DUP5 PUSH2 0x26CA JUMP JUMPDEST SWAP4 PUSH1 0x40 PUSH2 0x2700 DUP3 PUSH1 0x20 DUP8 ADD PUSH2 0x26CA JUMP JUMPDEST SWAP5 ADD PUSH2 0x24BB JUMP JUMPDEST SWAP1 PUSH2 0x2766 PUSH1 0x20 DUP4 PUSH2 0x271B PUSH2 0xB9B PUSH1 0x4 PUSH2 0x596 JUMP JUMPDEST PUSH1 0x40 MLOAD SWAP4 DUP5 SWAP3 DUP4 SWAP2 DUP3 SWAP2 PUSH20 0x4200000000000000000000000000000000000006 PUSH32 0xE6A4390500000000000000000000000000000000000000000000000000000000 DUP5 MSTORE PUSH1 0x4 DUP5 ADD PUSH2 0x2692 JUMP JUMPDEST SUB SWAP2 GAS STATICCALL SWAP1 DUP2 ISZERO PUSH2 0xC5D JUMPI PUSH2 0x2787 SWAP2 PUSH2 0xB9B SWAP2 PUSH1 0x0 SWAP2 PUSH2 0x28A6 JUMPI JUMPDEST POP PUSH2 0x226 JUMP JUMPDEST SWAP2 PUSH2 0x2791 PUSH1 0x40 MLOAD SWAP1 JUMP JUMPDEST PUSH32 0x902F1AC00000000000000000000000000000000000000000000000000000000 DUP2 MSTORE PUSH1 0x60 DUP2 PUSH1 0x4 DUP2 DUP8 GAS STATICCALL SWAP2 DUP3 ISZERO PUSH2 0xC5D JUMPI PUSH1 0x0 SWAP2 DUP3 SWAP4 PUSH2 0x2872 JUMPI JUMPDEST POP PUSH1 0x20 PUSH2 0x27DA PUSH1 0x40 MLOAD SWAP1 JUMP JUMPDEST PUSH32 0xDFE168100000000000000000000000000000000000000000000000000000000 DUP2 MSTORE SWAP6 DUP7 SWAP1 PUSH1 0x4 SWAP1 DUP3 SWAP1 GAS STATICCALL SWAP1 DUP2 ISZERO PUSH2 0xC5D JUMPI PUSH2 0x1ED SWAP6 PUSH1 0x0 SWAP3 PUSH2 0x2839 JUMPI JUMPDEST POP PUSH2 0xE44 PUSH2 0x2827 SWAP2 PUSH2 0x1E1 JUMP JUMPDEST SUB PUSH2 0x2833 JUMPI SWAP1 SWAP2 PUSH2 0x2ACB JUMP JUMPDEST SWAP2 PUSH2 0x2ACB JUMP JUMPDEST PUSH2 0x2827 SWAP2 SWAP3 POP PUSH2 0x2863 PUSH2 0xE44 SWAP2 PUSH1 0x20 RETURNDATASIZE PUSH1 0x20 GT PUSH2 0x286B JUMPI JUMPDEST PUSH2 0x285B DUP2 DUP4 PUSH2 0x9F6 JUMP JUMPDEST DUP2 ADD SWAP1 PUSH2 0x267E JUMP JUMPDEST SWAP3 SWAP2 POP PUSH2 0x281A JUMP JUMPDEST POP RETURNDATASIZE PUSH2 0x2851 JUMP JUMPDEST SWAP1 SWAP3 POP PUSH2 0x2897 SWAP2 POP PUSH1 0x60 RETURNDATASIZE PUSH1 0x60 GT PUSH2 0x289F JUMPI JUMPDEST PUSH2 0x288F DUP2 DUP4 PUSH2 0x9F6 JUMP JUMPDEST DUP2 ADD SWAP1 PUSH2 0x26D7 JUMP JUMPDEST SWAP3 SWAP1 SWAP3 PUSH2 0x27CE JUMP JUMPDEST POP RETURNDATASIZE PUSH2 0x2885 JUMP JUMPDEST PUSH2 0x28BF SWAP2 POP PUSH1 0x20 RETURNDATASIZE PUSH1 0x20 GT PUSH2 0x286B JUMPI PUSH2 0x285B DUP2 DUP4 PUSH2 0x9F6 JUMP JUMPDEST CODESIZE PUSH2 0x2781 JUMP JUMPDEST SWAP2 SWAP1 DUP3 SUB SWAP2 DUP3 GT PUSH2 0xDC1 JUMPI JUMP JUMPDEST PUSH2 0x2919 SWAP3 PUSH2 0x1ED SWAP5 PUSH2 0x28E2 PUSH1 0x0 SWAP1 JUMP JUMPDEST POP ISZERO PUSH2 0x2923 JUMPI POP DUP2 PUSH2 0x28F7 PUSH2 0x28FD SWAP4 DUP4 PUSH2 0x2707 JUMP JUMPDEST SWAP2 PUSH2 0x3154 JUMP JUMPDEST PUSH2 0x1D53 PUSH2 0x290A PUSH1 0xB PUSH2 0x2D4 JUMP JUMPDEST PUSH2 0x2914 PUSH1 0x64 PUSH2 0xD91 JUMP JUMPDEST PUSH2 0x28C5 JUMP JUMPDEST PUSH2 0x1D5E PUSH1 0x64 PUSH2 0xD91 JUMP JUMPDEST SWAP1 DUP3 PUSH2 0x2933 PUSH2 0x2939 SWAP5 DUP5 DUP5 PUSH2 0x256F JUMP JUMPDEST SWAP2 PUSH2 0x2C04 JUMP JUMPDEST PUSH2 0x28FD JUMP JUMPDEST SWAP2 SWAP1 SWAP3 PUSH2 0x2949 PUSH1 0x0 SWAP1 JUMP JUMPDEST POP ISZERO PUSH2 0x2964 JUMPI POP DUP2 PUSH2 0x295E PUSH2 0x1ED SWAP4 DUP4 PUSH2 0x3651 JUMP JUMPDEST SWAP2 PUSH2 0x36B8 JUMP JUMPDEST SWAP1 DUP3 PUSH2 0x2974 PUSH2 0x1ED SWAP5 DUP5 DUP5 PUSH2 0x256F JUMP JUMPDEST SWAP2 PUSH2 0x34AD JUMP JUMPDEST ISZERO PUSH2 0x2981 JUMPI JUMP JUMPDEST PUSH1 0x40 MLOAD PUSH3 0x461BCD PUSH1 0xE5 SHL DUP2 MSTORE PUSH1 0x20 PUSH1 0x4 DUP3 ADD MSTORE PUSH1 0x2B PUSH1 0x24 DUP3 ADD MSTORE PUSH32 0x556E697377617056324C6962726172793A20494E53554646494349454E545F49 PUSH1 0x44 DUP3 ADD MSTORE PUSH32 0x4E5055545F414D4F554E54000000000000000000000000000000000000000000 PUSH1 0x64 DUP3 ADD MSTORE PUSH1 0x84 SWAP1 REVERT JUMPDEST PUSH2 0x29F9 PUSH2 0x1ED PUSH2 0x1ED SWAP3 SWAP1 JUMP JUMPDEST PUSH14 0xFFFFFFFFFFFFFFFFFFFFFFFFFFFF AND SWAP1 JUMP JUMPDEST ISZERO PUSH2 0x2A13 JUMPI JUMP JUMPDEST PUSH1 0x40 MLOAD PUSH3 0x461BCD PUSH1 0xE5 SHL DUP2 MSTORE PUSH1 0x20 PUSH1 0x4 DUP3 ADD MSTORE PUSH1 0x28 PUSH1 0x24 DUP3 ADD MSTORE PUSH32 0x556E697377617056324C6962726172793A20494E53554646494349454E545F4C PUSH1 0x44 DUP3 ADD MSTORE PUSH32 0x4951554944495459000000000000000000000000000000000000000000000000 PUSH1 0x64 DUP3 ADD MSTORE PUSH1 0x84 SWAP1 REVERT JUMPDEST PUSH2 0x1ED PUSH2 0x1ED PUSH2 0x1ED SWAP3 PUSH14 0xFFFFFFFFFFFFFFFFFFFFFFFFFFFF AND SWAP1 JUMP JUMPDEST PUSH14 0xFFFFFFFFFFFFFFFFFFFFFFFFFFFF SWAP1 DUP2 AND SWAP2 AND MUL SWAP1 PUSH14 0xFFFFFFFFFFFFFFFFFFFFFFFFFFFF DUP3 AND SWAP2 DUP3 SUB PUSH2 0xDC1 JUMPI JUMP JUMPDEST PUSH2 0x1ED SWAP3 PUSH2 0x19CF PUSH2 0x2B53 PUSH2 0x2B41 PUSH2 0x2B3B PUSH2 0x2B35 PUSH2 0x1D5E SWAP7 PUSH2 0x2AEA PUSH1 0x0 SWAP1 JUMP JUMPDEST POP PUSH2 0x2AFF PUSH2 0x2AF8 PUSH1 0x0 PUSH2 0xD91 JUMP JUMPDEST DUP3 GT PUSH2 0x297A JUMP JUMPDEST PUSH2 0x2B09 PUSH1 0x0 PUSH2 0x29EC JUMP JUMPDEST PUSH14 0xFFFFFFFFFFFFFFFFFFFFFFFFFFFF DUP11 AND GT DUP1 PUSH2 0x2B58 JUMPI JUMPDEST PUSH2 0x2B2A SWAP1 PUSH2 0x2A0C JUMP JUMPDEST PUSH2 0x1D53 PUSH2 0x3E5 PUSH2 0xD91 JUMP JUMPDEST SWAP5 PUSH2 0x2A7E JUMP JUMPDEST DUP5 PUSH2 0x1CC5 JUMP JUMPDEST SWAP5 PUSH2 0x2B4D PUSH2 0x3E8 PUSH2 0x29EC JUMP JUMPDEST SWAP1 PUSH2 0x2A9B JUMP JUMPDEST PUSH2 0x2A7E JUMP JUMPDEST POP PUSH2 0x2B2A PUSH2 0x2B66 PUSH1 0x0 PUSH2 0x29EC JUMP JUMPDEST PUSH14 0xFFFFFFFFFFFFFFFFFFFFFFFFFFFF DUP10 AND GT SWAP1 POP PUSH2 0x2B21 JUMP JUMPDEST PUSH2 0x1ED PUSH1 0xE0 PUSH2 0xA1D JUMP JUMPDEST SWAP1 PUSH1 0xC0 DUP1 PUSH2 0x24C SWAP4 PUSH2 0x2BA3 PUSH1 0x0 DUP3 ADD MLOAD PUSH1 0x0 DUP7 ADD SWAP1 PUSH2 0x625 JUMP JUMPDEST PUSH2 0x2BB5 PUSH1 0x20 DUP3 ADD MLOAD PUSH1 0x20 DUP7 ADD SWAP1 PUSH2 0x625 JUMP JUMPDEST PUSH1 0x40 DUP2 DUP2 ADD MLOAD PUSH3 0xFFFFFF AND SWAP1 DUP6 ADD MSTORE PUSH2 0x2BD6 PUSH1 0x60 DUP3 ADD MLOAD PUSH1 0x60 DUP7 ADD SWAP1 PUSH2 0x625 JUMP JUMPDEST PUSH2 0x2BE5 PUSH1 0x80 DUP3 ADD MLOAD PUSH1 0x80 DUP7 ADD MSTORE JUMP JUMPDEST PUSH2 0x254F PUSH1 0xA0 DUP3 ADD MLOAD PUSH1 0xA0 DUP7 ADD MSTORE JUMP JUMPDEST PUSH1 0xE0 DUP2 ADD SWAP3 SWAP2 PUSH2 0x24C SWAP2 SWAP1 PUSH2 0x2B89 JUMP JUMPDEST SWAP1 SWAP2 PUSH2 0x2C4F PUSH1 0x20 DUP5 PUSH2 0x2C18 PUSH2 0xB9B DUP7 PUSH2 0x226 JUMP JUMPDEST PUSH2 0x2C25 PUSH2 0xB9B PUSH1 0x0 PUSH2 0x596 JUMP JUMPDEST PUSH1 0x0 PUSH2 0x2C30 PUSH1 0x40 MLOAD SWAP1 JUMP JUMPDEST DUP1 SWAP7 DUP2 SWAP6 DUP3 SWAP5 PUSH2 0x2C44 PUSH4 0x95EA7B3 PUSH1 0xE0 SHL SWAP1 JUMP JUMPDEST DUP5 MSTORE PUSH1 0x4 DUP5 ADD PUSH2 0xB70 JUMP JUMPDEST SUB SWAP3 GAS CALL DUP1 ISZERO PUSH2 0xC5D JUMPI PUSH2 0x2E50 JUMPI JUMPDEST POP PUSH2 0x2C6C PUSH2 0xB9B PUSH1 0x5 PUSH2 0x596 JUMP JUMPDEST SWAP4 PUSH4 0x70A08231 SWAP3 PUSH2 0x2C7C ADDRESS PUSH2 0x226 JUMP JUMPDEST SWAP3 PUSH1 0x20 PUSH2 0x2C88 PUSH1 0x40 MLOAD SWAP1 JUMP JUMPDEST DUP1 SWAP9 PUSH2 0x2C94 DUP9 PUSH1 0xE0 SHL SWAP1 JUMP JUMPDEST DUP3 MSTORE DUP2 DUP1 PUSH2 0x2CA5 DUP10 PUSH1 0x4 DUP4 ADD PUSH2 0x787 JUMP JUMPDEST SUB SWAP2 GAS STATICCALL SWAP6 DUP7 ISZERO PUSH2 0xC5D JUMPI PUSH1 0x0 SWAP8 DUP9 SWAP8 PUSH2 0x2E1C JUMPI JUMPDEST POP SWAP2 PUSH2 0x2D33 PUSH1 0x20 SWAP5 SWAP3 PUSH2 0x2D2C PUSH2 0x2D87 SWAP6 PUSH2 0x2D18 PUSH2 0x2CD9 PUSH2 0xB9B DUP15 PUSH2 0x596 JUMP JUMPDEST SWAP7 PUSH2 0x2D0C PUSH20 0x4200000000000000000000000000000000000006 PUSH2 0x2D04 PUSH2 0x2CFD PUSH2 0x2B7F JUMP JUMPDEST SWAP10 DUP11 PUSH2 0xC98 JUMP JUMPDEST DUP12 DUP10 ADD PUSH2 0xC98 JUMP JUMPDEST PUSH3 0xFFFFFF AND PUSH1 0x40 DUP8 ADD MSTORE JUMP JUMPDEST PUSH2 0x2D25 DUP10 PUSH1 0x60 DUP8 ADD PUSH2 0xC98 JUMP JUMPDEST PUSH1 0x80 DUP6 ADD MSTORE JUMP JUMPDEST PUSH1 0xA0 DUP4 ADD MSTORE JUMP JUMPDEST PUSH2 0x2D4F PUSH2 0x2D3F DUP10 PUSH2 0xD7B JUMP JUMPDEST PUSH1 0x1 PUSH1 0x1 PUSH1 0xA0 SHL SUB AND PUSH1 0xC0 DUP4 ADD MSTORE JUMP JUMPDEST PUSH1 0x40 MLOAD SWAP8 DUP9 SWAP4 DUP5 SWAP3 DUP4 SWAP2 SWAP1 PUSH32 0x4E45AAF00000000000000000000000000000000000000000000000000000000 JUMPDEST DUP4 MSTORE PUSH1 0x4 DUP4 ADD PUSH2 0x2BF4 JUMP JUMPDEST SUB SWAP3 GAS CALL SWAP2 DUP3 ISZERO PUSH2 0xC5D JUMPI PUSH2 0x2DC6 SWAP5 PUSH1 0x20 SWAP4 PUSH2 0x2E01 JUMPI JUMPDEST POP PUSH2 0xBD9 PUSH2 0x2DAF PUSH2 0xB9B PUSH1 0x5 PUSH2 0x596 JUMP JUMPDEST SWAP2 PUSH2 0x2DB9 PUSH1 0x40 MLOAD SWAP1 JUMP JUMPDEST SWAP7 DUP8 SWAP5 DUP6 SWAP4 DUP5 SWAP4 PUSH1 0xE0 SHL SWAP1 JUMP JUMPDEST SUB SWAP2 GAS STATICCALL DUP1 ISZERO PUSH2 0xC5D JUMPI PUSH2 0x1ED SWAP3 PUSH1 0x0 SWAP2 PUSH2 0x2DE2 JUMPI JUMPDEST POP PUSH2 0x28C5 JUMP JUMPDEST PUSH2 0x2DFB SWAP2 POP PUSH1 0x20 RETURNDATASIZE PUSH1 0x20 GT PUSH2 0xC88 JUMPI PUSH2 0xC7A DUP2 DUP4 PUSH2 0x9F6 JUMP JUMPDEST CODESIZE PUSH2 0x2DDC JUMP JUMPDEST PUSH2 0x2E17 SWAP1 DUP5 RETURNDATASIZE DUP7 GT PUSH2 0xC88 JUMPI PUSH2 0xC7A DUP2 DUP4 PUSH2 0x9F6 JUMP JUMPDEST PUSH2 0x2D9E JUMP JUMPDEST PUSH2 0x2D87 SWAP4 SWAP2 SWAP8 POP PUSH1 0x20 SWAP5 SWAP3 PUSH2 0x2D2C PUSH2 0x2E43 PUSH2 0x2D33 SWAP4 DUP9 RETURNDATASIZE DUP11 GT PUSH2 0xC88 JUMPI PUSH2 0xC7A DUP2 DUP4 PUSH2 0x9F6 JUMP JUMPDEST SWAP10 SWAP4 SWAP6 POP POP SWAP3 SWAP5 POP PUSH2 0x2CBA JUMP JUMPDEST PUSH2 0x2E68 SWAP1 PUSH1 0x20 RETURNDATASIZE PUSH1 0x20 GT PUSH2 0xC56 JUMPI PUSH2 0xC4B DUP2 DUP4 PUSH2 0x9F6 JUMP JUMPDEST PUSH2 0x2C5E JUMP JUMPDEST PUSH2 0x2EA9 PUSH2 0x24C SWAP5 PUSH2 0x2E99 PUSH1 0x60 SWAP5 SWAP9 SWAP8 SWAP6 PUSH2 0x2E8F PUSH1 0x80 DUP7 ADD SWAP11 PUSH1 0x0 DUP8 ADD SWAP1 PUSH2 0x625 JUMP JUMPDEST PUSH1 0x20 DUP6 ADD SWAP1 PUSH2 0x625 JUMP JUMPDEST PUSH1 0x1 PUSH1 0x1 PUSH1 0xA0 SHL SUB AND PUSH1 0x40 DUP4 ADD MSTORE JUMP JUMPDEST ADD SWAP1 PUSH6 0xFFFFFFFFFFFF AND SWAP1 MSTORE JUMP JUMPDEST PUSH2 0x1ED PUSH1 0x8 PUSH2 0xD91 JUMP JUMPDEST PUSH2 0x2ED7 PUSH2 0x2ED1 PUSH2 0x1ED SWAP3 PUSH1 0xFF AND SWAP1 JUMP JUMPDEST PUSH1 0xF8 SHL SWAP1 JUMP JUMPDEST PUSH32 0xFF00000000000000000000000000000000000000000000000000000000000000 AND SWAP1 JUMP JUMPDEST PUSH8 0xFFFFFFFFFFFFFFFF DUP2 GT PUSH2 0xA18 JUMPI PUSH1 0x20 DUP1 SWAP2 MUL ADD SWAP1 JUMP JUMPDEST SWAP1 PUSH2 0xA60 PUSH2 0xA5B DUP4 PUSH2 0x2EFC JUMP JUMPDEST CALLDATASIZE SWAP1 CALLDATACOPY JUMP JUMPDEST SWAP1 PUSH2 0x24C PUSH2 0x2F3C PUSH2 0x2F36 DUP5 PUSH2 0x2F14 JUMP JUMPDEST SWAP4 PUSH2 0x2EFC JUMP JUMPDEST PUSH1 0x1F NOT ADD PUSH1 0x20 DUP5 ADD PUSH2 0x2F21 JUMP JUMPDEST PUSH4 0x4E487B71 PUSH1 0xE0 SHL PUSH1 0x0 MSTORE PUSH1 0x32 PUSH1 0x4 MSTORE PUSH1 0x24 PUSH1 0x0 REVERT JUMPDEST SWAP1 PUSH2 0x2F68 DUP3 MLOAD SWAP1 JUMP JUMPDEST DUP2 LT ISZERO PUSH2 0x2F79 JUMPI PUSH1 0x20 DUP1 SWAP2 MUL ADD ADD SWAP1 JUMP JUMPDEST PUSH2 0x2F49 JUMP JUMPDEST PUSH1 0x0 JUMPDEST DUP3 DUP2 LT PUSH2 0x2F8D JUMPI POP POP POP JUMP JUMPDEST PUSH1 0x60 DUP3 DUP3 ADD MSTORE PUSH1 0x20 ADD PUSH2 0x2F81 JUMP JUMPDEST SWAP1 PUSH2 0x24C PUSH2 0x2FAB PUSH2 0x2F36 DUP5 PUSH2 0x2F14 JUMP JUMPDEST PUSH1 0x1F NOT ADD PUSH1 0x20 DUP5 ADD PUSH2 0x2F7E JUMP JUMPDEST SWAP1 PUSH2 0x9DC DUP2 PUSH1 0x20 SWAP4 PUSH2 0x625 JUMP JUMPDEST SWAP1 PUSH2 0x2FE5 PUSH2 0x2FDE PUSH2 0x2FD4 DUP5 MLOAD SWAP1 JUMP JUMPDEST DUP1 DUP5 MSTORE SWAP3 PUSH1 0x20 ADD SWAP1 JUMP JUMPDEST SWAP3 PUSH1 0x20 ADD SWAP1 JUMP JUMPDEST SWAP1 PUSH1 0x0 JUMPDEST DUP2 DUP2 LT PUSH2 0x2FF6 JUMPI POP POP POP SWAP1 JUMP JUMPDEST SWAP1 SWAP2 SWAP3 PUSH2 0x3010 PUSH2 0x3009 PUSH1 0x1 SWAP3 DUP7 MLOAD PUSH2 0x2FB8 JUMP JUMPDEST SWAP5 PUSH1 0x20 ADD SWAP1 JUMP JUMPDEST SWAP3 SWAP2 ADD PUSH2 0x2FE9 JUMP JUMPDEST PUSH2 0x24C SWAP5 PUSH2 0x304C DUP3 SWAP9 SWAP8 SWAP6 PUSH2 0x3045 PUSH1 0x80 SWAP7 PUSH2 0x303E PUSH2 0x3059 SWAP8 PUSH1 0x0 PUSH1 0xA0 DUP10 ADD SWAP9 ADD SWAP1 PUSH2 0x625 JUMP JUMPDEST PUSH1 0x20 DUP13 ADD MSTORE JUMP JUMPDEST PUSH1 0x40 DUP11 ADD MSTORE JUMP JUMPDEST DUP8 DUP3 SUB PUSH1 0x60 DUP10 ADD MSTORE PUSH2 0x2FC5 JUMP JUMPDEST SWAP5 ADD SWAP1 ISZERO ISZERO SWAP1 MSTORE JUMP JUMPDEST PUSH1 0x0 JUMPDEST DUP4 DUP2 LT PUSH2 0x3075 JUMPI POP POP PUSH1 0x0 SWAP2 ADD MSTORE JUMP JUMPDEST DUP2 DUP2 ADD MLOAD DUP4 DUP3 ADD MSTORE PUSH1 0x20 ADD PUSH2 0x3065 JUMP JUMPDEST PUSH2 0x30A6 PUSH2 0x30AF PUSH1 0x20 SWAP4 PUSH2 0x9DC SWAP4 PUSH2 0x309A DUP2 MLOAD SWAP1 JUMP JUMPDEST DUP1 DUP4 MSTORE SWAP4 DUP5 SWAP3 PUSH1 0x20 ADD SWAP1 JUMP JUMPDEST SWAP6 DUP7 SWAP2 ADD PUSH2 0x3062 JUMP JUMPDEST PUSH1 0x1F ADD PUSH1 0x1F NOT AND SWAP1 JUMP JUMPDEST SWAP1 PUSH2 0x1ED SWAP2 PUSH2 0x3085 JUMP JUMPDEST SWAP1 PUSH2 0x30D9 PUSH2 0x30CF DUP4 MLOAD SWAP1 JUMP JUMPDEST DUP1 DUP4 MSTORE SWAP2 PUSH1 0x20 ADD SWAP1 JUMP JUMPDEST SWAP1 DUP2 PUSH2 0x30EB PUSH1 0x20 DUP4 MUL DUP5 ADD SWAP5 PUSH1 0x20 ADD SWAP1 JUMP JUMPDEST SWAP3 PUSH1 0x0 SWAP2 JUMPDEST DUP4 DUP4 LT PUSH2 0x30FF JUMPI POP POP POP POP POP SWAP1 JUMP JUMPDEST SWAP1 SWAP2 SWAP3 SWAP4 SWAP5 PUSH1 0x20 PUSH2 0x3122 PUSH2 0x311B DUP4 DUP6 PUSH1 0x1 SWAP6 SUB DUP8 MSTORE DUP10 MLOAD PUSH2 0x30B9 JUMP JUMPDEST SWAP8 PUSH1 0x20 ADD SWAP1 JUMP JUMPDEST SWAP4 ADD SWAP4 ADD SWAP2 SWAP4 SWAP3 SWAP1 PUSH2 0x30F0 JUMP JUMPDEST PUSH1 0x40 DUP1 DUP3 MSTORE PUSH2 0x1ED SWAP4 SWAP2 SWAP3 PUSH2 0x3146 SWAP2 DUP5 ADD SWAP1 PUSH2 0x3085 JUMP JUMPDEST SWAP2 PUSH1 0x20 DUP2 DUP5 SUB SWAP2 ADD MSTORE PUSH2 0x30C3 JUMP JUMPDEST SWAP2 PUSH2 0x3162 PUSH2 0xB9B PUSH1 0x3 PUSH2 0x596 JUMP JUMPDEST PUSH2 0x316F PUSH2 0xB9B PUSH1 0x1 PUSH2 0x596 JUMP JUMPDEST SWAP1 DUP1 EXTCODESIZE ISZERO PUSH2 0x1A7 JUMPI PUSH6 0xFFFFFFFFFFFF PUSH1 0x0 SWAP2 PUSH1 0x1 PUSH1 0x1 PUSH1 0xA0 SHL SUB DUP4 PUSH2 0x31CB SWAP6 PUSH2 0x3197 PUSH1 0x40 MLOAD SWAP1 JUMP JUMPDEST SWAP7 DUP8 SWAP6 DUP7 SWAP5 DUP6 SWAP4 PUSH32 0x87517C4500000000000000000000000000000000000000000000000000000000 DUP6 MSTORE DUP14 PUSH1 0x4 DUP7 ADD PUSH2 0x2E6D JUMP JUMPDEST SUB SWAP3 GAS CALL DUP1 ISZERO PUSH2 0xC5D JUMPI PUSH2 0x3497 JUMPI JUMPDEST POP PUSH2 0x3219 PUSH1 0x20 DUP4 PUSH2 0x31ED PUSH2 0xB9B DUP8 PUSH2 0x226 JUMP JUMPDEST PUSH2 0x31FA PUSH2 0xB9B PUSH1 0x1 PUSH2 0x596 JUMP JUMPDEST PUSH1 0x0 PUSH2 0x3205 PUSH1 0x40 MLOAD SWAP1 JUMP JUMPDEST DUP1 SWAP7 DUP2 SWAP6 DUP3 SWAP5 PUSH2 0x2C44 PUSH4 0xA9059CBB PUSH1 0xE0 SHL SWAP1 JUMP JUMPDEST SUB SWAP3 GAS CALL DUP1 ISZERO PUSH2 0xC5D JUMPI PUSH2 0x347A JUMPI JUMPDEST POP PUSH2 0x3241 PUSH2 0x323C PUSH2 0x3237 PUSH2 0x2EB7 JUMP JUMPDEST PUSH2 0x1D70 JUMP JUMPDEST PUSH2 0x2EC1 JUMP JUMPDEST PUSH2 0x3291 PUSH2 0x324D PUSH1 0x40 MLOAD SWAP1 JUMP JUMPDEST DUP1 SWAP3 PUSH2 0x3285 PUSH1 0x20 DUP4 ADD SWAP2 DUP3 PUSH2 0x9DC DUP2 PUSH1 0x1 SWAP4 PUSH32 0xFF00000000000000000000000000000000000000000000000000000000000000 AND SWAP1 MSTORE JUMP JUMPDEST SWAP1 DUP2 SUB DUP3 MSTORE SUB DUP3 PUSH2 0x9F6 JUMP JUMPDEST PUSH2 0x32A3 PUSH2 0x329E PUSH1 0x2 PUSH2 0xD91 JUMP JUMPDEST PUSH2 0x2F26 JUMP JUMPDEST PUSH2 0x32C0 PUSH1 0x0 SWAP6 PUSH2 0x32BB PUSH2 0x32B5 DUP9 PUSH2 0xD91 JUMP JUMPDEST DUP5 PUSH2 0x2F5F JUMP JUMPDEST PUSH2 0xC98 JUMP JUMPDEST PUSH2 0x32E5 PUSH20 0x4200000000000000000000000000000000000006 PUSH2 0x32BB PUSH2 0x32B5 PUSH1 0x1 PUSH2 0xD91 JUMP JUMPDEST PUSH2 0x3321 PUSH2 0x32FA PUSH2 0x32F5 PUSH1 0x1 PUSH2 0xD91 JUMP JUMPDEST PUSH2 0x2F9B JUMP JUMPDEST SWAP4 PUSH2 0x3304 ADDRESS PUSH2 0x226 JUMP JUMPDEST SWAP6 PUSH2 0x3285 DUP9 PUSH2 0x3312 PUSH1 0x40 MLOAD SWAP1 JUMP JUMPDEST SWAP6 DUP7 SWAP5 PUSH1 0x20 DUP7 ADD SWAP5 DUP12 DUP7 PUSH2 0x3018 JUMP JUMPDEST PUSH2 0x332D PUSH2 0x32B5 DUP7 PUSH2 0xD91 JUMP JUMPDEST MSTORE PUSH2 0x3340 PUSH2 0x333A DUP6 PUSH2 0xD91 JUMP JUMPDEST DUP4 PUSH2 0x2F5F JUMP JUMPDEST POP PUSH2 0x334E PUSH2 0xB9B PUSH1 0x5 PUSH2 0x596 JUMP JUMPDEST SWAP3 PUSH4 0x70A08231 SWAP2 PUSH1 0x20 PUSH2 0x3360 PUSH1 0x40 MLOAD SWAP1 JUMP JUMPDEST DUP1 SWAP7 PUSH2 0x336C DUP7 PUSH1 0xE0 SHL SWAP1 JUMP JUMPDEST DUP3 MSTORE DUP2 DUP1 PUSH2 0x337D DUP8 PUSH1 0x4 DUP4 ADD PUSH2 0x787 JUMP JUMPDEST SUB SWAP2 GAS STATICCALL SWAP5 DUP6 ISZERO PUSH2 0xC5D JUMPI DUP7 SWAP6 PUSH2 0x3459 JUMPI JUMPDEST POP PUSH2 0x339D PUSH2 0xB9B PUSH1 0x1 PUSH2 0x596 JUMP JUMPDEST SWAP4 DUP5 EXTCODESIZE ISZERO PUSH2 0x1A7 JUMPI PUSH2 0x33D4 SWAP5 DUP8 SWAP3 DUP4 PUSH2 0x33B5 PUSH1 0x40 MLOAD SWAP1 JUMP JUMPDEST DUP1 SWAP9 DUP2 SWAP6 DUP3 SWAP5 PUSH2 0x33C9 PUSH4 0x24856BC3 PUSH1 0xE0 SHL SWAP1 JUMP JUMPDEST DUP5 MSTORE PUSH1 0x4 DUP5 ADD PUSH2 0x312F JUMP JUMPDEST SUB SWAP3 GAS CALL SWAP2 DUP3 ISZERO PUSH2 0xC5D JUMPI PUSH2 0x3413 SWAP4 PUSH1 0x20 SWAP4 PUSH2 0x342D JUMPI JUMPDEST POP PUSH2 0xBD9 PUSH2 0x33FC PUSH2 0xB9B PUSH1 0x5 PUSH2 0x596 JUMP JUMPDEST SWAP2 PUSH2 0x3406 PUSH1 0x40 MLOAD SWAP1 JUMP JUMPDEST SWAP6 DUP7 SWAP5 DUP6 SWAP4 DUP5 SWAP4 PUSH1 0xE0 SHL SWAP1 JUMP JUMPDEST SUB SWAP2 GAS STATICCALL SWAP1 DUP2 ISZERO PUSH2 0xC5D JUMPI PUSH2 0x1ED SWAP4 SWAP2 PUSH2 0x2DE2 JUMPI POP PUSH2 0x28C5 JUMP JUMPDEST PUSH2 0x344C SWAP1 DUP8 RETURNDATASIZE DUP10 GT PUSH2 0x3452 JUMPI JUMPDEST PUSH2 0x3444 DUP2 DUP4 PUSH2 0x9F6 JUMP JUMPDEST DUP2 ADD SWAP1 PUSH2 0x1AC JUMP JUMPDEST CODESIZE PUSH2 0x33EB JUMP JUMPDEST POP RETURNDATASIZE PUSH2 0x343A JUMP JUMPDEST PUSH2 0x3473 SWAP2 SWAP6 POP PUSH1 0x20 RETURNDATASIZE PUSH1 0x20 GT PUSH2 0xC88 JUMPI PUSH2 0xC7A DUP2 DUP4 PUSH2 0x9F6 JUMP JUMPDEST SWAP4 CODESIZE PUSH2 0x338F JUMP JUMPDEST PUSH2 0x3492 SWAP1 PUSH1 0x20 RETURNDATASIZE PUSH1 0x20 GT PUSH2 0xC56 JUMPI PUSH2 0xC4B DUP2 DUP4 PUSH2 0x9F6 JUMP JUMPDEST PUSH2 0x3228 JUMP JUMPDEST PUSH2 0x34A7 SWAP1 PUSH1 0x0 PUSH2 0x3444 DUP2 DUP4 PUSH2 0x9F6 JUMP JUMPDEST CODESIZE PUSH2 0x31DA JUMP JUMPDEST SWAP3 SWAP2 PUSH20 0x4200000000000000000000000000000000000006 SWAP4 PUSH2 0x34D7 PUSH1 0x20 DUP5 PUSH2 0x2C18 PUSH2 0xB9B DUP10 PUSH2 0x226 JUMP JUMPDEST SUB SWAP3 GAS CALL DUP1 ISZERO PUSH2 0xC5D JUMPI PUSH2 0x3634 JUMPI JUMPDEST POP PUSH2 0x34F3 PUSH2 0xB9B DUP3 PUSH2 0x226 JUMP JUMPDEST SWAP1 PUSH4 0x70A08231 SWAP6 PUSH2 0x3503 ADDRESS PUSH2 0x226 JUMP JUMPDEST SWAP4 PUSH2 0x350D PUSH1 0x40 MLOAD SWAP1 JUMP JUMPDEST SWAP6 PUSH2 0x3518 DUP10 PUSH1 0xE0 SHL SWAP1 JUMP JUMPDEST DUP8 MSTORE PUSH1 0x20 DUP8 DUP1 PUSH2 0x352B DUP10 PUSH1 0x4 DUP4 ADD PUSH2 0x787 JUMP JUMPDEST SUB DUP2 DUP9 GAS STATICCALL SWAP7 DUP8 ISZERO PUSH2 0xC5D JUMPI PUSH1 0x0 SWAP8 PUSH2 0x35F9 JUMPI JUMPDEST POP SWAP2 PUSH2 0x357E PUSH1 0x20 SWAP5 SWAP3 PUSH2 0x2D2C PUSH2 0x35BB SWAP6 PUSH2 0x3571 PUSH1 0x0 SWAP12 SWAP13 PUSH2 0x2D0C PUSH2 0x3565 PUSH2 0xB9B DUP16 PUSH2 0x596 JUMP JUMPDEST SWAP9 PUSH2 0x2D04 PUSH2 0x2CFD PUSH2 0x2B7F JUMP JUMPDEST PUSH2 0x2D25 DUP11 PUSH1 0x60 DUP8 ADD PUSH2 0xC98 JUMP JUMPDEST PUSH2 0x358A PUSH2 0x2D3F DUP9 PUSH2 0xD7B JUMP JUMPDEST PUSH1 0x40 MLOAD SWAP7 DUP8 SWAP4 DUP5 SWAP3 DUP4 SWAP2 SWAP1 PUSH32 0x4E45AAF00000000000000000000000000000000000000000000000000000000 PUSH2 0x2D7C JUMP JUMPDEST SUB SWAP3 GAS CALL DUP1 ISZERO PUSH2 0xC5D JUMPI PUSH2 0x2DC6 SWAP6 PUSH1 0x20 SWAP5 PUSH2 0xBD9 SWAP3 PUSH2 0x35DE JUMPI JUMPDEST POP PUSH1 0x40 MLOAD PUSH2 0x2DB9 JUMP JUMPDEST PUSH2 0x35F4 SWAP1 DUP7 RETURNDATASIZE DUP9 GT PUSH2 0xC88 JUMPI PUSH2 0xC7A DUP2 DUP4 PUSH2 0x9F6 JUMP JUMPDEST PUSH2 0x35D5 JUMP JUMPDEST PUSH1 0x0 SWAP8 POP PUSH1 0x20 SWAP5 SWAP3 PUSH2 0x2D2C PUSH2 0x35BB SWAP6 SWAP4 PUSH2 0x3571 PUSH2 0x3625 PUSH2 0x357E SWAP6 DUP11 RETURNDATASIZE DUP13 GT PUSH2 0xC88 JUMPI PUSH2 0xC7A DUP2 DUP4 PUSH2 0x9F6 JUMP JUMPDEST SWAP12 POP POP SWAP4 SWAP6 POP POP SWAP3 SWAP5 POP PUSH2 0x353F JUMP JUMPDEST PUSH2 0x364C SWAP1 PUSH1 0x20 RETURNDATASIZE PUSH1 0x20 GT PUSH2 0xC56 JUMPI PUSH2 0xC4B DUP2 DUP4 PUSH2 0x9F6 JUMP JUMPDEST PUSH2 0x34E6 JUMP JUMPDEST SWAP1 PUSH2 0x2766 PUSH1 0x20 PUSH2 0x3664 PUSH2 0xB9B PUSH1 0x4 PUSH2 0x596 JUMP JUMPDEST SWAP4 PUSH20 0x4200000000000000000000000000000000000006 SWAP5 PUSH2 0x3684 PUSH1 0x40 MLOAD SWAP1 JUMP JUMPDEST SWAP4 DUP5 SWAP3 DUP4 SWAP2 DUP3 SWAP2 PUSH32 0xE6A4390500000000000000000000000000000000000000000000000000000000 DUP4 MSTORE DUP10 PUSH1 0x4 DUP5 ADD PUSH2 0x2692 JUMP JUMPDEST SWAP1 PUSH2 0x36C6 PUSH2 0xB9B PUSH1 0x3 PUSH2 0x596 JUMP JUMPDEST SWAP3 PUSH20 0x4200000000000000000000000000000000000006 SWAP4 PUSH2 0x36EA PUSH2 0xB9B PUSH1 0x1 PUSH2 0x596 JUMP JUMPDEST SWAP1 DUP1 EXTCODESIZE ISZERO PUSH2 0x1A7 JUMPI PUSH1 0x1 PUSH1 0x1 PUSH1 0xA0 SHL SUB PUSH1 0x0 SWAP2 PUSH6 0xFFFFFFFFFFFF SWAP4 DUP4 DUP10 PUSH2 0x3746 PUSH2 0x3713 PUSH1 0x40 MLOAD SWAP1 JUMP JUMPDEST SWAP8 DUP9 SWAP7 DUP8 SWAP6 DUP7 SWAP5 PUSH32 0x87517C4500000000000000000000000000000000000000000000000000000000 DUP7 MSTORE PUSH1 0x4 DUP7 ADD PUSH2 0x2E6D JUMP JUMPDEST SUB SWAP3 GAS CALL DUP1 ISZERO PUSH2 0xC5D JUMPI PUSH2 0x394D JUMPI JUMPDEST POP PUSH2 0x3768 PUSH1 0x20 DUP4 PUSH2 0x31ED PUSH2 0xB9B DUP9 PUSH2 0x226 JUMP JUMPDEST SUB SWAP3 GAS CALL DUP1 ISZERO PUSH2 0xC5D JUMPI PUSH2 0x3930 JUMPI JUMPDEST POP PUSH2 0x3869 PUSH2 0xB9B PUSH2 0x378C PUSH2 0x323C PUSH2 0x3237 PUSH2 0x2EB7 JUMP JUMPDEST SWAP5 PUSH2 0x37DD PUSH2 0x3799 PUSH1 0x40 MLOAD SWAP1 JUMP JUMPDEST DUP1 SWAP8 PUSH2 0x37D1 PUSH1 0x20 DUP4 ADD SWAP2 DUP3 PUSH2 0x9DC DUP2 PUSH1 0x1 SWAP4 PUSH32 0xFF00000000000000000000000000000000000000000000000000000000000000 AND SWAP1 MSTORE JUMP JUMPDEST SWAP1 DUP2 SUB DUP3 MSTORE SUB DUP8 PUSH2 0x9F6 JUMP JUMPDEST PUSH2 0x37EA PUSH2 0x329E PUSH1 0x2 PUSH2 0xD91 JUMP JUMPDEST PUSH2 0x37FC PUSH1 0x0 SWAP9 PUSH2 0x32BB PUSH2 0x32B5 DUP12 PUSH2 0xD91 JUMP JUMPDEST PUSH2 0x380D DUP3 PUSH2 0x32BB PUSH2 0x32B5 PUSH1 0x1 PUSH2 0xD91 JUMP JUMPDEST PUSH2 0x3844 PUSH2 0x381D PUSH2 0x32F5 PUSH1 0x1 PUSH2 0xD91 JUMP JUMPDEST SWAP6 PUSH2 0x3827 ADDRESS PUSH2 0x226 JUMP JUMPDEST SWAP8 PUSH2 0x3285 DUP12 PUSH2 0x3835 PUSH1 0x40 MLOAD SWAP1 JUMP JUMPDEST SWAP6 DUP7 SWAP5 PUSH1 0x20 DUP7 ADD SWAP5 DUP14 DUP7 PUSH2 0x3018 JUMP JUMPDEST PUSH2 0x3856 PUSH2 0x3850 DUP10 PUSH2 0xD91 JUMP JUMPDEST DUP7 PUSH2 0x2F5F JUMP JUMPDEST MSTORE PUSH2 0x2781 PUSH2 0x3863 DUP9 PUSH2 0xD91 JUMP JUMPDEST DUP6 PUSH2 0x2F5F JUMP JUMPDEST SWAP2 PUSH4 0x70A08231 SWAP3 PUSH2 0x3879 PUSH1 0x40 MLOAD SWAP1 JUMP JUMPDEST SWAP5 PUSH2 0x3884 DUP6 PUSH1 0xE0 SHL SWAP1 JUMP JUMPDEST DUP7 MSTORE PUSH1 0x20 DUP7 DUP1 PUSH2 0x3897 DUP7 PUSH1 0x4 DUP4 ADD PUSH2 0x787 JUMP JUMPDEST SUB DUP2 DUP6 GAS STATICCALL SWAP6 DUP7 ISZERO PUSH2 0xC5D JUMPI DUP8 SWAP7 PUSH2 0x390F JUMPI JUMPDEST POP PUSH2 0x38B8 PUSH2 0xB9B PUSH1 0x1 PUSH2 0x596 JUMP JUMPDEST SWAP4 DUP5 EXTCODESIZE ISZERO PUSH2 0x1A7 JUMPI PUSH2 0x38D0 SWAP5 DUP9 SWAP3 DUP4 PUSH2 0x33B5 PUSH1 0x40 MLOAD SWAP1 JUMP JUMPDEST SUB SWAP3 GAS CALL DUP1 ISZERO PUSH2 0xC5D JUMPI PUSH2 0x3413 SWAP5 PUSH1 0x20 SWAP5 PUSH2 0xBD9 SWAP3 PUSH2 0x38F3 JUMPI JUMPDEST POP PUSH1 0x40 MLOAD PUSH2 0x3406 JUMP JUMPDEST PUSH2 0x3909 SWAP1 DUP10 RETURNDATASIZE DUP12 GT PUSH2 0x3452 JUMPI PUSH2 0x3444 DUP2 DUP4 PUSH2 0x9F6 JUMP JUMPDEST CODESIZE PUSH2 0x38EA JUMP JUMPDEST PUSH2 0x3929 SWAP2 SWAP7 POP PUSH1 0x20 RETURNDATASIZE PUSH1 0x20 GT PUSH2 0xC88 JUMPI PUSH2 0xC7A DUP2 DUP4 PUSH2 0x9F6 JUMP JUMPDEST SWAP5 CODESIZE PUSH2 0x38AA JUMP JUMPDEST PUSH2 0x3948 SWAP1 PUSH1 0x20 RETURNDATASIZE PUSH1 0x20 GT PUSH2 0xC56 JUMPI PUSH2 0xC4B DUP2 DUP4 PUSH2 0x9F6 JUMP JUMPDEST PUSH2 0x3777 JUMP JUMPDEST PUSH2 0x395D SWAP1 PUSH1 0x0 PUSH2 0x3444 DUP2 DUP4 PUSH2 0x9F6 JUMP JUMPDEST CODESIZE PUSH2 0x3755 JUMP INVALID LOG2 PUSH5 0x6970667358 0x22 SLT KECCAK256 0x2C PUSH28 0x938CBD1F2226B679FB69BE97B585C0B3EDC2C1F2DF96CA682A6528F6 CALLER 0x2F PUSH5 0x736F6C6343 STOP ADDMOD XOR STOP CALLER "
        },
        "methodIdentifiers": {
          "CREATION_FEE()": "49a2104d",
          "LIQUIDATION_FEE()": "b1827330",
          "PERMIT2()": "6afdd850",
          "WETH()": "ad5c4648",
          "completeGame(address,address)": "b936c783",
          "createGame(address,address,uint8,uint8,uint24,uint24,uint256)": "5f6d73bd",
          "factoryV2()": "68e0d4e1",
          "games(address,address)": "152c8297",
          "owner()": "8da5cb5b",
          "permit2()": "12261ee7",
          "quoter()": "c6bbd5a7",
          "reclaimStake(bytes32)": "332ccba9",
          "recoverETH()": "0614117a",
          "recoverTokens(address)": "16114acd",
          "renounceOwnership()": "715018a6",
          "results(bytes32)": "4c6b25b1",
          "router()": "f887ea40",
          "setCreationFee(uint256)": "b7d86225",
          "setGameSigner(address)": "f6c4c1f2",
          "setLiquidationFee(uint256)": "fef0bec8",
          "stakeInGame(address,address,uint256,address)": "f0edc7b3",
          "stakes(address,bytes32,address)": "ef95f733",
          "transferOwnership(address)": "f2fde38b",
          "universalRouter()": "35a9e4df",
          "weth()": "3fc8cef3"
        }
      }
    }
  }
}